{"contracts/ethereum/BitcoinSprintEntropy.sol":{"BitcoinSprintEntropy":{"abi":[{"inputs":[{"internalType":"address","name":"_treasury","type":"address"}],"stateMutability":"nonpayable","type":"constructor"},{"inputs":[],"name":"AlreadyFulfilled","type":"error"},{"inputs":[],"name":"AlreadyRefunded","type":"error"},{"inputs":[],"name":"EnforcedPause","type":"error"},{"inputs":[],"name":"ExpectedPause","type":"error"},{"inputs":[],"name":"IncorrectPayment","type":"error"},{"inputs":[],"name":"InvalidAddress","type":"error"},{"inputs":[],"name":"InvalidCommitment","type":"error"},{"inputs":[],"name":"InvalidQualityScore","type":"error"},{"inputs":[],"name":"InvalidRequestId","type":"error"},{"inputs":[],"name":"InvalidTier","type":"error"},{"inputs":[],"name":"InvalidTimeout","type":"error"},{"inputs":[],"name":"InvalidTreasury","type":"error"},{"inputs":[],"name":"NoPayments","type":"error"},{"inputs":[],"name":"NotAuthorized","type":"error"},{"inputs":[],"name":"NotFulfilled","type":"error"},{"inputs":[{"internalType":"address","name":"owner","type":"address"}],"name":"OwnableInvalidOwner","type":"error"},{"inputs":[{"internalType":"address","name":"account","type":"address"}],"name":"OwnableUnauthorizedAccount","type":"error"},{"inputs":[],"name":"PreimageMismatch","type":"error"},{"inputs":[],"name":"ReentrancyGuardReentrantCall","type":"error"},{"inputs":[],"name":"TimeoutNotReached","type":"error"},{"inputs":[],"name":"TransferFailed","type":"error"},{"anonymous":false,"inputs":[{"indexed":true,"internalType":"address","name":"fulfiller","type":"address"}],"name":"AuthorizedFulfillerAdded","type":"event"},{"anonymous":false,"inputs":[{"indexed":true,"internalType":"address","name":"fulfiller","type":"address"}],"name":"AuthorizedFulfillerRemoved","type":"event"},{"anonymous":false,"inputs":[{"indexed":true,"internalType":"uint256","name":"requestId","type":"uint256"},{"indexed":true,"internalType":"address","name":"fulfiller","type":"address"},{"indexed":true,"internalType":"bytes32","name":"finalEntropyHash","type":"bytes32"},{"indexed":false,"internalType":"uint256","name":"qualityScore","type":"uint256"}],"name":"EntropyFulfilled","type":"event"},{"anonymous":false,"inputs":[{"indexed":true,"internalType":"uint256","name":"requestId","type":"uint256"},{"indexed":true,"internalType":"address","name":"requester","type":"address"},{"indexed":false,"internalType":"uint256","name":"payment","type":"uint256"},{"indexed":false,"internalType":"uint8","name":"qualityTier","type":"uint8"},{"indexed":false,"internalType":"bytes32","name":"userCommit","type":"bytes32"}],"name":"EntropyRequested","type":"event"},{"anonymous":false,"inputs":[{"indexed":true,"internalType":"address","name":"previousOwner","type":"address"},{"indexed":true,"internalType":"address","name":"newOwner","type":"address"}],"name":"OwnershipTransferred","type":"event"},{"anonymous":false,"inputs":[{"indexed":false,"internalType":"address","name":"account","type":"address"}],"name":"Paused","type":"event"},{"anonymous":false,"inputs":[{"indexed":true,"internalType":"uint256","name":"requestId","type":"uint256"},{"indexed":false,"internalType":"address","name":"requester","type":"address"},{"indexed":false,"internalType":"uint256","name":"amount","type":"uint256"}],"name":"RefundIssued","type":"event"},{"anonymous":false,"inputs":[{"indexed":true,"internalType":"address","name":"oldTreasury","type":"address"},{"indexed":true,"internalType":"address","name":"newTreasury","type":"address"}],"name":"TreasuryUpdated","type":"event"},{"anonymous":false,"inputs":[{"indexed":false,"internalType":"uint256","name":"amount","type":"uint256"},{"indexed":false,"internalType":"address","name":"to","type":"address"}],"name":"TreasuryWithdrawn","type":"event"},{"anonymous":false,"inputs":[{"indexed":false,"internalType":"address","name":"account","type":"address"}],"name":"Unpaused","type":"event"},{"stateMutability":"payable","type":"fallback"},{"inputs":[],"name":"FIXED_PAYMENT","outputs":[{"internalType":"uint256","name":"","type":"uint256"}],"stateMutability":"view","type":"function"},{"inputs":[{"internalType":"address","name":"fulfiller","type":"address"}],"name":"addAuthorizedFulfiller","outputs":[],"stateMutability":"nonpayable","type":"function"},{"inputs":[{"internalType":"address","name":"","type":"address"}],"name":"authorizedFulfillers","outputs":[{"internalType":"bool","name":"","type":"bool"}],"stateMutability":"view","type":"function"},{"inputs":[{"internalType":"uint256","name":"requestId","type":"uint256"}],"name":"canRefund","outputs":[{"internalType":"bool","name":"","type":"bool"}],"stateMutability":"view","type":"function"},{"inputs":[{"internalType":"address","name":"a","type":"address"}],"name":"escrowBalanceOf","outputs":[{"internalType":"uint256","name":"","type":"uint256"}],"stateMutability":"view","type":"function"},{"inputs":[],"name":"fulfilledCount","outputs":[{"internalType":"uint256","name":"","type":"uint256"}],"stateMutability":"view","type":"function"},{"inputs":[],"name":"fulfillmentTimeout","outputs":[{"internalType":"uint256","name":"","type":"uint256"}],"stateMutability":"view","type":"function"},{"inputs":[],"name":"getContractStats","outputs":[{"internalType":"uint256","name":"totalRequests","type":"uint256"},{"internalType":"uint256","name":"totalFulfilled","type":"uint256"},{"internalType":"uint256","name":"contractBalance","type":"uint256"},{"internalType":"uint256","name":"pending","type":"uint256"},{"internalType":"uint256","name":"treasuryReserve","type":"uint256"},{"internalType":"uint256","name":"stray","type":"uint256"}],"stateMutability":"view","type":"function"},{"inputs":[{"internalType":"uint256","name":"requestId","type":"uint256"}],"name":"getEntropyCommitment","outputs":[{"internalType":"bytes32","name":"","type":"bytes32"}],"stateMutability":"view","type":"function"},{"inputs":[{"internalType":"uint256","name":"id","type":"uint256"}],"name":"getRequestMeta","outputs":[{"internalType":"address","name":"requester","type":"address"},{"internalType":"uint256","name":"timestamp","type":"uint256"},{"internalType":"uint8","name":"qualityTier","type":"uint8"},{"internalType":"bool","name":"fulfilled","type":"bool"},{"internalType":"bool","name":"refunded","type":"bool"},{"internalType":"uint256","name":"payment","type":"uint256"}],"stateMutability":"view","type":"function"},{"inputs":[{"internalType":"uint8","name":"","type":"uint8"}],"name":"getRequiredPayment","outputs":[{"internalType":"uint256","name":"","type":"uint256"}],"stateMutability":"pure","type":"function"},{"inputs":[{"internalType":"address","name":"user","type":"address"}],"name":"getUserRequests","outputs":[{"internalType":"uint256[]","name":"","type":"uint256[]"}],"stateMutability":"view","type":"function"},{"inputs":[],"name":"owner","outputs":[{"internalType":"address","name":"","type":"address"}],"stateMutability":"view","type":"function"},{"inputs":[],"name":"pause","outputs":[],"stateMutability":"nonpayable","type":"function"},{"inputs":[],"name":"paused","outputs":[{"internalType":"bool","name":"","type":"bool"}],"stateMutability":"view","type":"function"},{"inputs":[],"name":"pendingBalance","outputs":[{"internalType":"uint256","name":"","type":"uint256"}],"stateMutability":"view","type":"function"},{"inputs":[{"internalType":"uint256","name":"requestId","type":"uint256"},{"internalType":"bytes32","name":"fulfillerCommit","type":"bytes32"}],"name":"postFulfillerCommit","outputs":[],"stateMutability":"nonpayable","type":"function"},{"inputs":[{"internalType":"address[]","name":"payees","type":"address[]"}],"name":"releaseRefunds","outputs":[],"stateMutability":"nonpayable","type":"function"},{"inputs":[{"internalType":"address","name":"fulfiller","type":"address"}],"name":"removeAuthorizedFulfiller","outputs":[],"stateMutability":"nonpayable","type":"function"},{"inputs":[],"name":"renounceOwnership","outputs":[],"stateMutability":"nonpayable","type":"function"},{"inputs":[],"name":"requestCount","outputs":[{"internalType":"uint256","name":"","type":"uint256"}],"stateMutability":"view","type":"function"},{"inputs":[{"internalType":"uint8","name":"qualityTier","type":"uint8"},{"internalType":"bytes32","name":"userCommit","type":"bytes32"}],"name":"requestEntropy","outputs":[{"internalType":"uint256","name":"","type":"uint256"}],"stateMutability":"payable","type":"function"},{"inputs":[{"internalType":"uint256","name":"requestId","type":"uint256"}],"name":"requestRefund","outputs":[],"stateMutability":"nonpayable","type":"function"},{"inputs":[{"internalType":"uint256","name":"requestId","type":"uint256"},{"internalType":"bytes32","name":"userPreimage","type":"bytes32"},{"internalType":"bytes32","name":"fulfillerPreimage","type":"bytes32"},{"internalType":"uint256","name":"qualityScore","type":"uint256"}],"name":"revealAndFulfill","outputs":[],"stateMutability":"nonpayable","type":"function"},{"inputs":[],"name":"strayBalance","outputs":[{"internalType":"uint256","name":"","type":"uint256"}],"stateMutability":"view","type":"function"},{"inputs":[],"name":"sweepStray","outputs":[],"stateMutability":"nonpayable","type":"function"},{"inputs":[{"internalType":"address","name":"newOwner","type":"address"}],"name":"transferOwnership","outputs":[],"stateMutability":"nonpayable","type":"function"},{"inputs":[],"name":"treasury","outputs":[{"internalType":"address","name":"","type":"address"}],"stateMutability":"view","type":"function"},{"inputs":[],"name":"treasuryBalance","outputs":[{"internalType":"uint256","name":"","type":"uint256"}],"stateMutability":"view","type":"function"},{"inputs":[],"name":"unpause","outputs":[],"stateMutability":"nonpayable","type":"function"},{"inputs":[{"internalType":"uint256","name":"newTimeout","type":"uint256"}],"name":"updateFulfillmentTimeout","outputs":[],"stateMutability":"nonpayable","type":"function"},{"inputs":[{"internalType":"address","name":"newTreasury","type":"address"}],"name":"updateTreasury","outputs":[],"stateMutability":"nonpayable","type":"function"},{"inputs":[],"name":"withdrawPayments","outputs":[],"stateMutability":"nonpayable","type":"function"},{"inputs":[],"name":"withdrawTreasury","outputs":[],"stateMutability":"nonpayable","type":"function"},{"stateMutability":"payable","type":"receive"}],"evm":{"bytecode":{"linkReferences":{},"object":"6080604052601e60025534801561001557600080fd5b50604051614f5d380380614f5d8339818101604052810190610037919061041d565b33600073ffffffffffffffffffffffffffffffffffffffff168173ffffffffffffffffffffffffffffffffffffffff16036100aa5760006040517f1e4fbdf70000000000000000000000000000000000000000000000000000000081526004016100a19190610459565b60405180910390fd5b6100b9816102f360201b60201c565b50600180819055506100db67b401d13f1269055260c01b6103b760201b60201c565b6100f5670cdbfa772451f50060c01b6103b760201b60201c565b61010f67f39051cff911f07160c01b6103b760201b60201c565b600073ffffffffffffffffffffffffffffffffffffffff168173ffffffffffffffffffffffffffffffffffffffff160361018f5761015d67ed5921b66a6b315160c01b6103b760201b60201c565b6040517f14bcf5c800000000000000000000000000000000000000000000000000000000815260040160405180910390fd5b6101a967afc299342e8f2d6c60c01b6103b760201b60201c565b6101c367a9207d91c4e1a2af60c01b6103b760201b60201c565b80600860006101000a81548173ffffffffffffffffffffffffffffffffffffffff021916908373ffffffffffffffffffffffffffffffffffffffff16021790555061021e67c833b66352cb6bdd60c01b6103b760201b60201c565b6001600b60003373ffffffffffffffffffffffffffffffffffffffff1673ffffffffffffffffffffffffffffffffffffffff16815260200190815260200160002060006101000a81548160ff02191690831515021790555061029067438348ab2a919f1b60c01b6103b760201b60201c565b6102aa67e2a2aef00a64fcd160c01b6103b760201b60201c565b3373ffffffffffffffffffffffffffffffffffffffff167f4d30243d3dd420952fe6994a84ef13d7eda0eb94f3da88f506d050b518bfa3ce60405160405180910390a250610474565b60008060009054906101000a900473ffffffffffffffffffffffffffffffffffffffff169050816000806101000a81548173ffffffffffffffffffffffffffffffffffffffff021916908373ffffffffffffffffffffffffffffffffffffffff1602179055508173ffffffffffffffffffffffffffffffffffffffff168173ffffffffffffffffffffffffffffffffffffffff167f8be0079c531659141344cd1fd0a4f28419497f9722a3daafe3b4186f6b6457e060405160405180910390a35050565b50565b600080fd5b600073ffffffffffffffffffffffffffffffffffffffff82169050919050565b60006103ea826103bf565b9050919050565b6103fa816103df565b811461040557600080fd5b50565b600081519050610417816103f1565b92915050565b600060208284031215610433576104326103ba565b5b600061044184828501610408565b91505092915050565b610453816103df565b82525050565b600060208201905061046e600083018461044a565b92915050565b614ada806104836000396000f3fe6080604052600436106101fd5760003560e01c80638bfee3471161010d578063c5c28fd1116100a0578063f2fde38b1161006f578063f2fde38b14610741578063f58a42881461076a578063f82719ca1461079a578063fa48388f146107c5578063fc8cc92b146107ee57610230565b8063c5c28fd114610694578063cbcb345b146106bf578063dd46c3f0146106e8578063dfe6b5d61461071157610230565b8063987bf9a7116100dc578063987bf9a7146105af578063a4b2409e146105ec578063b337cf7414610615578063b4aedb541461065257610230565b80638bfee347146104f35780638ceff157146105305780638d6daf81146105475780638da5cb5b1461058457610230565b80635badbe4c1161019057806367a0b7bb1161015f57806367a0b7bb14610434578063715018a6146104715780637f51bb1f146104885780638456cb59146104b1578063850f991d146104c857610230565b80635badbe4c1461039c5780635c975abb146103c75780636103d70b146103f257806361d027b31461040957610230565b8063383ab8d6116101cc578063383ab8d6146103065780633f4ba83a1461032f5780634adf1d321461034657806357b4d18e1461037157610230565b806312792b6114610272578063166bab951461029b578063246ce9f7146102b2578063313dab20146102db57610230565b3661023057610216673084c8a95d073e8f60c01b61082b565b34600760008282546102289190614306565b925050819055005b61024467f35e0025bf09b28660c01b61082b565b61025867ba37e71b6c19132560c01b61082b565b346007600082825461026a9190614306565b925050819055005b34801561027e57600080fd5b50610299600480360381019061029491906143a6565b61082e565b005b3480156102a757600080fd5b506102b0610c7c565b005b3480156102be57600080fd5b506102d960048036038101906102d49190614444565b610f91565b005b3480156102e757600080fd5b506102f0611165565b6040516102fd9190614480565b60405180910390f35b34801561031257600080fd5b5061032d60048036038101906103289190614500565b61116b565b005b34801561033b57600080fd5b5061034461151f565b005b34801561035257600080fd5b5061035b611595565b6040516103689190614480565b60405180910390f35b34801561037d57600080fd5b506103866115a0565b6040516103939190614480565b60405180910390f35b3480156103a857600080fd5b506103b16115a6565b6040516103be9190614480565b60405180910390f35b3480156103d357600080fd5b506103dc6115ac565b6040516103e99190614568565b60405180910390f35b3480156103fe57600080fd5b506104076115c2565b005b34801561041557600080fd5b5061041e61187c565b60405161042b9190614592565b60405180910390f35b34801561044057600080fd5b5061045b60048036038101906104569190614444565b6118a2565b6040516104689190614568565b60405180910390f35b34801561047d57600080fd5b506104866118c2565b005b34801561049457600080fd5b506104af60048036038101906104aa9190614444565b6118d6565b005b3480156104bd57600080fd5b506104c6611af9565b005b3480156104d457600080fd5b506104dd611b6f565b6040516104ea9190614480565b60405180910390f35b3480156104ff57600080fd5b5061051a600480360381019061051591906145ad565b611b75565b60405161052791906145e9565b60405180910390f35b34801561053c57600080fd5b50610545611e7c565b005b34801561055357600080fd5b5061056e6004803603810190610569919061463d565b612191565b60405161057b9190614480565b60405180910390f35b34801561059057600080fd5b506105996121de565b6040516105a69190614592565b60405180910390f35b3480156105bb57600080fd5b506105d660048036038101906105d19190614444565b612207565b6040516105e39190614480565b60405180910390f35b3480156105f857600080fd5b50610613600480360381019061060e91906145ad565b61228c565b005b34801561062157600080fd5b5061063c60048036038101906106379190614444565b612951565b6040516106499190614728565b60405180910390f35b34801561065e57600080fd5b50610679600480360381019061067491906145ad565b612a24565b60405161068b96959493929190614759565b60405180910390f35b3480156106a057600080fd5b506106a9612bf2565b6040516106b69190614480565b60405180910390f35b3480156106cb57600080fd5b506106e660048036038101906106e191906145ad565b612bf8565b005b3480156106f457600080fd5b5061070f600480360381019061070a91906147ba565b612d29565b005b34801561071d57600080fd5b506107266135da565b60405161073896959493929190614821565b60405180910390f35b34801561074d57600080fd5b5061076860048036038101906107639190614444565b613643565b005b610784600480360381019061077f9190614882565b6136c9565b6040516107919190614480565b60405180910390f35b3480156107a657600080fd5b506107af613c8b565b6040516107bc9190614480565b60405180910390f35b3480156107d157600080fd5b506107ec60048036038101906107e79190614444565b613c91565b005b3480156107fa57600080fd5b50610815600480360381019061081091906145ad565b613daf565b6040516108229190614568565b60405180910390f35b50565b610842679d4f1fabf670d7e260c01b61082b565b61085667881e9c59cf40c31660c01b61082b565b61086a67db47df048e66a3e060c01b61082b565b61087e6756bf901e130a42b160c01b61082b565b600b60003373ffffffffffffffffffffffffffffffffffffffff1673ffffffffffffffffffffffffffffffffffffffff16815260200190815260200160002060009054906101000a900460ff168061090857506108d96121de565b73ffffffffffffffffffffffffffffffffffffffff163373ffffffffffffffffffffffffffffffffffffffff16145b6109525761092067a369c595162d58ee60c01b61082b565b6040517fea8e4eb500000000000000000000000000000000000000000000000000000000815260040160405180910390fd5b610966677a2c53aaa89e120460c01b61082b565b61097a67b85052559e8fdb1b60c01b61082b565b61098e67844bfcd25e7337d060c01b61082b565b6109a2679187204acc7e849660c01b61082b565b6109aa613fda565b6109be672308f57f2dd43ddd60c01b61082b565b6109d2677190a04c7d1fcf3760c01b61082b565b6109e667f0c9a841dd20946560c01b61082b565b6109fa67892789381ce71c2460c01b61082b565b600082148015610a1a5750610a1967b0f94e6a7ecd479c60c01b61401b565b5b80610a42575060035482118015610a415750610a406771cbd13c17b894be60c01b61401b565b5b5b15610a8d57610a5b67789cc131943e0e2060c01b61082b565b6040517fba0514c000000000000000000000000000000000000000000000000000000000815260040160405180910390fd5b610aa1673874ec2c0dcba2a160c01b61082b565b610ab56706c05761c35ae41b60c01b61082b565b610ac9677d7615e94babd77c60c01b61082b565b6000600960008481526020019081526020016000209050610af467993929818f3b620c60c01b61082b565b610b08670d076900d2e1c35d60c01b61082b565b8060000160039054906101000a900460ff168015610b365750610b356754e224ba14f72eb760c01b61401b565b5b80610b6b57508060000160049054906101000a900460ff168015610b6a5750610b6967659513fbb6526c4a60c01b61401b565b5b5b15610bb657610b8467e413673b6437e1d260c01b61082b565b6040517f4a4117f900000000000000000000000000000000000000000000000000000000815260040160405180910390fd5b610bca6799cfd1fafa68cec760c01b61082b565b610bde67240cda0ee36efa9a60c01b61082b565b610bf2678c430a46dac7810e60c01b61082b565b6000801b816004015414610c4657610c1467d106857bf72c1eae60c01b61082b565b6040517f4a4117f900000000000000000000000000000000000000000000000000000000815260040160405180910390fd5b610c5a67a82e502246c702a660c01b61082b565b610c6e67a5d0f829e67cb7b160c01b61082b565b818160040181905550505050565b610c9067990012c8fd5acdd160c01b61082b565b610c98614026565b610cac67c03c51faa1828c9460c01b61082b565b610cc067703fe4e2ba613c1f60c01b61082b565b610cc86140ad565b610cdc6743f08c9e7c3d31a560c01b61082b565b610cf0678f4e26a943a0ed4560c01b61082b565b610d04675c6ac7652ebfeb8c60c01b61082b565b610d1867bd15343af007767560c01b61082b565b60006006549050610d33675997977326ff331a60c01b61082b565b610d476790d7a893600c408460c01b61082b565b60008103610d9557610d63670172e71fd7da8cc460c01b61082b565b6040517f0e22dd6400000000000000000000000000000000000000000000000000000000815260040160405180910390fd5b610da967c72eb478ab3ce5cc60c01b61082b565b610dbd67964a9e1fe94c678260c01b61082b565b6000600681905550610dd9678ee516c9259f579a60c01b61082b565b610ded67517758b5c243177360c01b61082b565b6000600860009054906101000a900473ffffffffffffffffffffffffffffffffffffffff1673ffffffffffffffffffffffffffffffffffffffff1682604051610e35906148f3565b60006040518083038185875af1925050503d8060008114610e72576040519150601f19603f3d011682016040523d82523d6000602084013e610e77565b606091505b50509050610e8f672e17ac97da6b7a1560c01b61082b565b610ea3676dfc62ae79bb64b660c01b61082b565b80610eee57610ebc6776b1d6cde901d51f60c01b61082b565b6040517f90b8ec1800000000000000000000000000000000000000000000000000000000815260040160405180910390fd5b610f0267eb47e058e3803f1960c01b61082b565b610f166701da20caddd4496760c01b61082b565b610f2a673c8ca905a306e37760c01b61082b565b7f8a6c78a01514e727ad67ec87d74138b9e0d0a82a6c2536101087ab38c1e5d80582600860009054906101000a900473ffffffffffffffffffffffffffffffffffffffff16604051610f7d929190614908565b60405180910390a15050610f8f6140f3565b565b610fa56797a774d4b0161de660c01b61082b565b610fad614026565b610fc1679330c331a73991d760c01b61082b565b610fd5679f39cedb7482d02c60c01b61082b565b610fe9674142b0da424ca35e60c01b61082b565b610ffd679e2455605d5ef03960c01b61082b565b600073ffffffffffffffffffffffffffffffffffffffff168173ffffffffffffffffffffffffffffffffffffffff16036110775761104567c806b1a6fd484f6160c01b61082b565b6040517fe6c4247b00000000000000000000000000000000000000000000000000000000815260040160405180910390fd5b61108b67f1d85be809be3bd660c01b61082b565b61109f6737cbafcd5fb5036160c01b61082b565b6001600b60008373ffffffffffffffffffffffffffffffffffffffff1673ffffffffffffffffffffffffffffffffffffffff16815260200190815260200160002060006101000a81548160ff02191690831515021790555061110b67a074685ee2a48c4b60c01b61082b565b61111f67691579add15831aa60c01b61082b565b8073ffffffffffffffffffffffffffffffffffffffff167f4d30243d3dd420952fe6994a84ef13d7eda0eb94f3da88f506d050b518bfa3ce60405160405180910390a250565b60065481565b61117f67e208cd39bb6b9c4f60c01b61082b565b611187614026565b61119b67b804997d1f62433a60c01b61082b565b6111af670a09e16c6434532660c01b61082b565b6111b76140ad565b6111cb67696b2e9264ebccf960c01b61082b565b6111df672baa1675f270310160c01b61082b565b6111f36740902e84cc7a30b260c01b61082b565b61120767e2ac498a5d3ddc5060c01b61082b565b60008282905090506112236778601624c4fb65af60c01b61082b565b611237679967474dcb24fc4b60c01b61082b565b60005b8181101561151157611256670a5d4f405f91902c60c01b61082b565b61126a6736a78c02c2aa25b860c01b61082b565b600084848381811061127f5761127e614931565b5b90506020020160208101906112949190614444565b90506112aa6797d96596d666e5b660c01b61082b565b6112be67734e7ac90c38c5ee60c01b61082b565b6000600c60008373ffffffffffffffffffffffffffffffffffffffff1673ffffffffffffffffffffffffffffffffffffffff16815260200190815260200160002054905061131667a3b2c2cf44deb83260c01b61082b565b61132a67ad7619827155433260c01b61082b565b60008111156114ed57611347670b60737195edbbc560c01b61082b565b61135b67bd9ddd558393994c60c01b61082b565b6000600c60008473ffffffffffffffffffffffffffffffffffffffff1673ffffffffffffffffffffffffffffffffffffffff168152602001908152602001600020819055506113b46709f333116491ca1860c01b61082b565b6113c8671dbf7ac0c8925f8b60c01b61082b565b60008273ffffffffffffffffffffffffffffffffffffffff16826040516113ee906148f3565b60006040518083038185875af1925050503d806000811461142b576040519150601f19603f3d011682016040523d82523d6000602084013e611430565b606091505b505090506114486773db37f1bca09e5f60c01b61082b565b61145c6791e990f5f74fe80d60c01b61082b565b806114d257611475672e4c965b547c6bb160c01b61082b565b611489676d9865769876033360c01b61082b565b81600c60008573ffffffffffffffffffffffffffffffffffffffff1673ffffffffffffffffffffffffffffffffffffffff168152602001908152602001600020819055506114e7565b6114e66736f50a250e08c7e460c01b61082b565b5b50611502565b61150167057a0ff9e446d74f60c01b61082b565b5b5050808060010191505061123a565b505061151b6140f3565b5050565b61153367e69320cd79bd5a8860c01b61082b565b61153b614026565b61154f670dc9048de94456fd60c01b61082b565b61156367a9114e2ff4ebd68c60c01b61082b565b6115776706a366ac471b631c60c01b61082b565b61158b6736859014961d3cce60c01b61082b565b6115936140fc565b565b660110d9316ec00081565b60055481565b60035481565b60008060149054906101000a900460ff16905090565b6115d66731b323a62e59b09060c01b61082b565b6115de6140ad565b6115f267db97f1f4ee67797c60c01b61082b565b61160667a83e85b244edd03e60c01b61082b565b61161a672f7e496c908f94d260c01b61082b565b61162e67130de8dce4e9313460c01b61082b565b6000600c60003373ffffffffffffffffffffffffffffffffffffffff1673ffffffffffffffffffffffffffffffffffffffff16815260200190815260200160002054905061168667f5fd52bd1fa4975060c01b61082b565b61169a67e7e970c61c53253f60c01b61082b565b600081036116e8576116b667cb50c1b9b83f1dcd60c01b61082b565b6040517f0e22dd6400000000000000000000000000000000000000000000000000000000815260040160405180910390fd5b6116fc67a19d658709d2daed60c01b61082b565b61171067b80ca5e26f192ebf60c01b61082b565b6000600c60003373ffffffffffffffffffffffffffffffffffffffff1673ffffffffffffffffffffffffffffffffffffffff168152602001908152602001600020819055506117696714109f29a9944bb460c01b61082b565b61177d6748fe53ed9905a49860c01b61082b565b60003373ffffffffffffffffffffffffffffffffffffffff16826040516117a3906148f3565b60006040518083038185875af1925050503d80600081146117e0576040519150601f19603f3d011682016040523d82523d6000602084013e6117e5565b606091505b505090506117fd67198490e72d86165560c01b61082b565b6118116773c0d3a6e3e93e7360c01b61082b565b8061185c5761182a674942a51a2109387560c01b61082b565b6040517f90b8ec1800000000000000000000000000000000000000000000000000000000815260040160405180910390fd5b6118706751aa78aae237fcdb60c01b61082b565b505061187a6140f3565b565b600860009054906101000a900473ffffffffffffffffffffffffffffffffffffffff1681565b600b6020528060005260406000206000915054906101000a900460ff1681565b6118ca614026565b6118d4600061415e565b565b6118ea679e5edffb9e91007360c01b61082b565b6118f2614026565b61190667b9bda6f042265c9a60c01b61082b565b61191a67d92bd80762f9dcfb60c01b61082b565b61192e67af54b8e20c2276f860c01b61082b565b6119426794437fe7b175b81960c01b61082b565b600073ffffffffffffffffffffffffffffffffffffffff168173ffffffffffffffffffffffffffffffffffffffff16036119bc5761198a67b86889ff6dd6118e60c01b61082b565b6040517fe6c4247b00000000000000000000000000000000000000000000000000000000815260040160405180910390fd5b6119d0674be82b2df08e25ac60c01b61082b565b6119e4678f0a0b7d52446fb660c01b61082b565b6119f8670869fbc30a62795a60c01b61082b565b6000600860009054906101000a900473ffffffffffffffffffffffffffffffffffffffff169050611a33678dcbe4135bdea44b60c01b61082b565b81600860006101000a81548173ffffffffffffffffffffffffffffffffffffffff021916908373ffffffffffffffffffffffffffffffffffffffff160217905550611a8766906216de7b889a60c01b61082b565b611a9b67d80b433899798c4760c01b61082b565b8173ffffffffffffffffffffffffffffffffffffffff168173ffffffffffffffffffffffffffffffffffffffff167f4ab5be82436d353e61ca18726e984e561f5c1cc7c6d38b29d2553c790434705a60405160405180910390a35050565b611b0d67dfee9ec57c7e6f1160c01b61082b565b611b15614026565b611b29676c116cd925298de760c01b61082b565b611b3d6728bc85adde0f6ae160c01b61082b565b611b51678909cf69c069ada760c01b61082b565b611b65673cf4b5d78d1271b260c01b61082b565b611b6d614222565b565b60075481565b6000611b8b67f78bd573cddfa8b560c01b61082b565b611b9f67308d4c634e7bedcc60c01b61082b565b611bb3674f76e000e852b11660c01b61082b565b600082148015611bd35750611bd2673c0c65b0244773ca60c01b61401b565b5b80611bfb575060035482118015611bfa5750611bf967f9a4c57de2a7863f60c01b61401b565b5b5b15611c4657611c1467f6d17c771e1e292260c01b61082b565b6040517fba0514c000000000000000000000000000000000000000000000000000000000815260040160405180910390fd5b611c5a6744aa42b02aaf3f1760c01b61082b565b611c6e675e32a9c85935331560c01b61082b565b611c8267c0c875ad06afb77760c01b61082b565b6000600960008481526020019081526020016000209050611cad674c393a019426f0aa60c01b61082b565b611cc1670defa43a0c05eef660c01b61082b565b8060000160039054906101000a900460ff16611d1d57611ceb67fb78d48978323e9360c01b61082b565b6040517f07bc6c3e00000000000000000000000000000000000000000000000000000000815260040160405180910390fd5b611d3167cefe3b5e9bb7ea6d60c01b61082b565b611d45677218b3ab12fd921e60c01b61082b565b611d59678ab43ed58e19e35a60c01b61082b565b3373ffffffffffffffffffffffffffffffffffffffff168160000160059054906101000a900473ffffffffffffffffffffffffffffffffffffffff1673ffffffffffffffffffffffffffffffffffffffff161480611de95750611dba6121de565b73ffffffffffffffffffffffffffffffffffffffff163373ffffffffffffffffffffffffffffffffffffffff16145b611e3357611e0167e5154855ae0cfd2e60c01b61082b565b6040517fea8e4eb500000000000000000000000000000000000000000000000000000000815260040160405180910390fd5b611e4767c840a48303d7ae9a60c01b61082b565b611e5b677331fd3fa511095960c01b61082b565b611e6f671a5efad98af1ef4d60c01b61082b565b8060050154915050919050565b611e906714ef289706a560f560c01b61082b565b611e98614026565b611eac67fbfd14956cee0c6d60c01b61082b565b611ec06704e54735218fa6d460c01b61082b565b611ec86140ad565b611edc67ce081c7e3fc8977d60c01b61082b565b611ef0676af4067efb721a9f60c01b61082b565b611f0467d57c646e893456d460c01b61082b565b611f186706d766bc9072427460c01b61082b565b60006007549050611f33672ff917471e3b7d0460c01b61082b565b611f4767fffab99f461080d560c01b61082b565b60008103611f9557611f6367ed1e3730b823fa2d60c01b61082b565b6040517f0e22dd6400000000000000000000000000000000000000000000000000000000815260040160405180910390fd5b611fa9673cd8473c1ff838b160c01b61082b565b611fbd67032c2e6ce65fdbf660c01b61082b565b6000600781905550611fd96782e4fd2b1e1834fa60c01b61082b565b611fed67aa9f53cbb31228a160c01b61082b565b6000600860009054906101000a900473ffffffffffffffffffffffffffffffffffffffff1673ffffffffffffffffffffffffffffffffffffffff1682604051612035906148f3565b60006040518083038185875af1925050503d8060008114612072576040519150601f19603f3d011682016040523d82523d6000602084013e612077565b606091505b5050905061208f67fe27fbaba068b60e60c01b61082b565b6120a3679c13c5c757e9679260c01b61082b565b806120ee576120bc67f3927a21b21c706460c01b61082b565b6040517f90b8ec1800000000000000000000000000000000000000000000000000000000815260040160405180910390fd5b612102670f8b24154af11e8e60c01b61082b565b612116671599191e6a409d1360c01b61082b565b61212a67f0d5cdc68616ed5560c01b61082b565b7f8a6c78a01514e727ad67ec87d74138b9e0d0a82a6c2536101087ab38c1e5d80582600860009054906101000a900473ffffffffffffffffffffffffffffffffffffffff1660405161217d929190614908565b60405180910390a1505061218f6140f3565b565b60006121a767571a6518108b9f7a60c01b61082b565b6121bb673dd358e4a6f05f8f60c01b61082b565b6121cf67b2db26eb5223443760c01b61082b565b660110d9316ec0009050919050565b60008060009054906101000a900473ffffffffffffffffffffffffffffffffffffffff16905090565b600061221d67a75247766393971b60c01b61082b565b612231672073d08d94ab463260c01b61082b565b612245676a72b81ba3873c4360c01b61082b565b600c60008373ffffffffffffffffffffffffffffffffffffffff1673ffffffffffffffffffffffffffffffffffffffff168152602001908152602001600020549050919050565b6122a06794b5ab792ce4e65460c01b61082b565b6122a8613fda565b6122bc6737ecd48f5ad7cee860c01b61082b565b6122d0676ca4f6361c09404f60c01b61082b565b6122d86140ad565b6122ec676fab258b0c43293c60c01b61082b565b612300670ceb4585bfaf0b2860c01b61082b565b61231467c3fe3d69066ea46060c01b61082b565b61232867db500f3d6bd4773f60c01b61082b565b6000811480156123485750612347676781703eaedf574f60c01b61401b565b5b8061237057506003548111801561236f575061236e67ee7c69a5ba7ce20460c01b61401b565b5b5b156123bb5761238967d1cf1e932a1a14d560c01b61082b565b6040517fba0514c000000000000000000000000000000000000000000000000000000000815260040160405180910390fd5b6123cf67429f864a9d60a52360c01b61082b565b6123e367f462c97f627babf260c01b61082b565b6123f767fbd58d74f6d262c160c01b61082b565b600060096000838152602001908152602001600020905061242267030e0f4884007c2260c01b61082b565b61243667b1b0cdac7f736b5560c01b61082b565b3373ffffffffffffffffffffffffffffffffffffffff168160000160059054906101000a900473ffffffffffffffffffffffffffffffffffffffff1673ffffffffffffffffffffffffffffffffffffffff16146124d3576124a167c8e325117660cd6c60c01b61082b565b6040517fea8e4eb500000000000000000000000000000000000000000000000000000000815260040160405180910390fd5b6124e767712696c8e3c75e3360c01b61082b565b6124fb67afcc8ada0e00454d60c01b61082b565b61250f67ac7568a07af33c5860c01b61082b565b8060000160039054906101000a900460ff161561256c5761253a676689e7277ef4b71160c01b61082b565b6040517f4a4117f900000000000000000000000000000000000000000000000000000000815260040160405180910390fd5b612580671ee4d10bfcbbeaeb60c01b61082b565b6125946716cf606bd5aae9b260c01b61082b565b6125a8677c6853d8fa018b8e60c01b61082b565b8060000160049054906101000a900460ff1615612605576125d367508a92e1949ea10560c01b61082b565b6040517fa85e6f1a00000000000000000000000000000000000000000000000000000000815260040160405180910390fd5b61261967a4b14c587d89607b60c01b61082b565b61262d67547b9a2f2eb8c46e60c01b61082b565b61264167214cf305d8b0008860c01b61082b565b60025481600101546126539190614306565b4210156126a05761266e67f84f1aeaa5ca1ab860c01b61082b565b6040517f9b0056ac00000000000000000000000000000000000000000000000000000000815260040160405180910390fd5b6126b467b8a371ce8c7a3bbd60c01b61082b565b6126c867fadb02a42a4f3da160c01b61082b565b60018160000160046101000a81548160ff0219169083151502179055506126f9679490c8828360619b60c01b61082b565b61270d67f4542415a8fbfdba60c01b61082b565b60008160060154905061272a67c801ec9f8e78f36560c01b61082b565b61273e67776684fa127d026960c01b61082b565b60008111156128a95761275b672e600ee9ce22551b60c01b61082b565b61276f679b52f5a15a5fb28d60c01b61082b565b80600560008282546127819190614960565b9250508190555061279c671d11efb0732fa95060c01b61082b565b6127b067a65d031dbf2b270b60c01b61082b565b60003373ffffffffffffffffffffffffffffffffffffffff16826040516127d6906148f3565b60006040518083038185875af1925050503d8060008114612813576040519150601f19603f3d011682016040523d82523d6000602084013e612818565b606091505b505090506128306743f7857bfca61b9460c01b61082b565b61284467116e09123b1da7e960c01b61082b565b8061288f5761285d6769b4c0d64c82ffba60c01b61082b565b6040517f90b8ec1800000000000000000000000000000000000000000000000000000000815260040160405180910390fd5b6128a367ac78df2032889c2c60c01b61082b565b506128be565b6128bd677121f70ee91480c060c01b61082b565b5b6128d2672ede3c20654a2fd860c01b61082b565b6128e667ad2031aec02f4a1760c01b61082b565b827f7a482fdeb6bc9a1376f597068a214a7a39472bb2eff1b8cad21ba04f49ddca1b8360000160059054906101000a900473ffffffffffffffffffffffffffffffffffffffff168360405161293c929190614994565b60405180910390a2505061294e6140f3565b50565b606061296767c755d4a647471a4460c01b61082b565b61297b67457df8b3777bbded60c01b61082b565b61298f67054ed0a5b24b62fe60c01b61082b565b600a60008373ffffffffffffffffffffffffffffffffffffffff1673ffffffffffffffffffffffffffffffffffffffff168152602001908152602001600020805480602002602001604051908101604052809291908181526020018280548015612a1857602002820191906000526020600020905b815481526020019060010190808311612a04575b50505050509050919050565b600080600080600080612a416749d2a4ce4bb1904060c01b61082b565b612a556753d0386eb77b1d2260c01b61082b565b612a6967fe1064155f2267c660c01b61082b565b600087148015612a895750612a8867262a6345c4bddef160c01b61401b565b5b80612ab1575060035487118015612ab05750612aaf67fa7a12b5e1cc125860c01b61401b565b5b5b15612afc57612aca67402fd01d548d65a160c01b61082b565b6040517fba0514c000000000000000000000000000000000000000000000000000000000815260040160405180910390fd5b612b106789d3d5b009f4fc8660c01b61082b565b612b2467af000f1f9845096560c01b61082b565b612b3867fba161aa4bf54a1a60c01b61082b565b6000600960008981526020019081526020016000209050612b6367a21f0c095c2cf3dd60c01b61082b565b612b7767c8e08f2003d6f17460c01b61082b565b8060000160059054906101000a900473ffffffffffffffffffffffffffffffffffffffff1681600101548260000160009054906101000a900460ff168360000160039054906101000a900460ff168460000160049054906101000a900460ff1685600601549650965096509650965096505091939550919395565b60045481565b612c0c679feac3a15069833560c01b61082b565b612c14614026565b612c286764447ff3aac37bfa60c01b61082b565b612c3c67a323125f54f72c6060c01b61082b565b612c50678ef39d2555a254f360c01b61082b565b612c6467d7e3787aacf5cc0460c01b61082b565b600a81108015612c845750612c83674d299adb96a3337060c01b61401b565b5b80612cac5750610e1081118015612cab5750612caa67f4ed4dff48e8319660c01b61401b565b5b5b15612cf757612cc567a4430343a6506a7a60c01b61082b565b6040517f7fee1bc400000000000000000000000000000000000000000000000000000000815260040160405180910390fd5b612d0b6759086226b4f48fae60c01b61082b565b612d1f67286b9218a71f6be360c01b61082b565b8060028190555050565b612d3d67d946d66838c948ff60c01b61082b565b612d5167881e9c59cf40c31660c01b61082b565b612d6567db47df048e66a3e060c01b61082b565b612d796756bf901e130a42b160c01b61082b565b600b60003373ffffffffffffffffffffffffffffffffffffffff1673ffffffffffffffffffffffffffffffffffffffff16815260200190815260200160002060009054906101000a900460ff1680612e035750612dd46121de565b73ffffffffffffffffffffffffffffffffffffffff163373ffffffffffffffffffffffffffffffffffffffff16145b612e4d57612e1b67a369c595162d58ee60c01b61082b565b6040517fea8e4eb500000000000000000000000000000000000000000000000000000000815260040160405180910390fd5b612e61677a2c53aaa89e120460c01b61082b565b612e7567b85052559e8fdb1b60c01b61082b565b612e8967945c33ed36dfcb8560c01b61082b565b612e9d67e2f1181fe7929ff660c01b61082b565b612ea56140ad565b612eb9671ed7734050797c3f60c01b61082b565b612ecd67cd5eb81942ae033760c01b61082b565b612ee167d0ac3c8f8496229760c01b61082b565b612ef5672fee4a615a74a8d360c01b61082b565b600084148015612f155750612f1467324efb5067aab94260c01b61401b565b5b80612f3d575060035484118015612f3c5750612f3b67e4d19ceb9b9d4f7e60c01b61401b565b5b5b15612f8857612f5667c1ee05124c2e45a460c01b61082b565b6040517fba0514c000000000000000000000000000000000000000000000000000000000815260040160405180910390fd5b612f9c67dc882cf6653df66260c01b61082b565b612fb067d999181132dfb28760c01b61082b565b612fc467d5b070290601c14f60c01b61082b565b6000600960008681526020019081526020016000209050612fef67ed266aacc10f966460c01b61082b565b61300367a2c665c89e01b1cc60c01b61082b565b8060000160039054906101000a900460ff16156130605761302e674bb64b2c0cecc2e060c01b61082b565b6040517f4a4117f900000000000000000000000000000000000000000000000000000000815260040160405180910390fd5b61307467bdacfba23abe142560c01b61082b565b61308867165ff1e7feb6631e60c01b61082b565b61309c67e047877bb8870cb160c01b61082b565b8060000160049054906101000a900460ff16156130f9576130c76737b7c9c4f9026a7660c01b61082b565b6040517fa85e6f1a00000000000000000000000000000000000000000000000000000000815260040160405180910390fd5b61310d67238b327e0c84855d60c01b61082b565b61312167bb7fd1be8c3f017660c01b61082b565b613135679c40b4095f5137c060c01b61082b565b6127108211156131855761315367494ea533affe41b960c01b61082b565b6040517fc8cc901300000000000000000000000000000000000000000000000000000000815260040160405180910390fd5b613199679d4349187be640e260c01b61082b565b6131ad67c58ed3ccf18f811e60c01b61082b565b6131c16740f93a2a0e69443060c01b61082b565b6000846040516020016131d491906149de565b60405160208183030381529060405280519060200120905061320067429351ee7d0b196d60c01b61082b565b61321467447c61e9349ae61b60c01b61082b565b60008460405160200161322791906149de565b60405160208183030381529060405280519060200120905061325367382f2862b0aae69c60c01b61082b565b613267675ee81b0f0390cd1660c01b61082b565b6000801b836003015414158015613282575082600301548214155b156132cd5761329b671be9bfc8ee77d38260c01b61082b565b6040517f6f43bb6300000000000000000000000000000000000000000000000000000000815260040160405180910390fd5b6132e1676f51b66e48e1c8ea60c01b61082b565b6132f5672af8b648a941ac3b60c01b61082b565b61330967341ddf1ef722e45e60c01b61082b565b8260040154811461335a5761332867237d8199c89debb860c01b61082b565b6040517f6f43bb6300000000000000000000000000000000000000000000000000000000815260040160405180910390fd5b61336e676d31288f9334f92f60c01b61082b565b613382674288e5ad94ac906760c01b61082b565b85856040516020016133959291906149f9565b6040516020818303038152906040528051906020012083600501819055506133c7673c5fa957478c8aab60c01b61082b565b60018360000160036101000a81548160ff0219169083151502179055506133f867a49ccb805ad5ff2560c01b61082b565b838360000160016101000a81548161ffff021916908361ffff16021790555061342b67b92d08ec8ef0f62060c01b61082b565b42836002018190555061344867f7275fe9c89e8ab160c01b61082b565b60016004600082825461345b9190614306565b92505081905550613476677b793d3182f0ed3f60c01b61082b565b61348a6785c552adeae8de5460c01b61082b565b6000836006015490506134a7674db9862190b2e58460c01b61082b565b6134bb67db5effc13566aae660c01b61082b565b6000811115613537576134d867b1eb190c8f44d5ee60c01b61082b565b6134ec67a4771986758afdf860c01b61082b565b80600560008282546134fe9190614960565b9250508190555061351967a837fe14c3454d1560c01b61082b565b806006600082825461352b9190614306565b9250508190555061354c565b61354b67b828459592cf27e260c01b61082b565b5b6135606741a8673faccedf7060c01b61082b565b61357467984ce018725f24d960c01b61082b565b83600501543373ffffffffffffffffffffffffffffffffffffffff16897fcea07ad5d3a8e3289656dd4f7e6b1cb58a8c4dbe65a743a6e5edbbd9dcc716f1886040516135c09190614480565b60405180910390a4505050506135d46140f3565b50505050565b6000806000806000806135f76750dda3e2672c7de860c01b61082b565b61360b67f6da44ab14b3147560c01b61082b565b61361f678b56e323d4bc612260c01b61082b565b60035460045447600554600654600754955095509550955095509550909192939495565b61364b614026565b600073ffffffffffffffffffffffffffffffffffffffff168173ffffffffffffffffffffffffffffffffffffffff16036136bd5760006040517f1e4fbdf70000000000000000000000000000000000000000000000000000000081526004016136b49190614592565b60405180910390fd5b6136c68161415e565b50565b60006136df67a88be615c841a07b60c01b61082b565b6136e7613fda565b6136fb6756c805416ed467e760c01b61082b565b61370f67214662bb994fbcca60c01b61082b565b6137176140ad565b61372b6746429d76a7fe0b6760c01b61082b565b61373f67102fb85972b384ca60c01b61082b565b613753672555cfe7df0c764660c01b61082b565b6137676741aeeb48708cc05260c01b61082b565b60018360ff1610801561378a5750613789674894075ff965c45a60c01b61401b565b5b806137b4575060038360ff161180156137b357506137b2673d44a8da397df42160c01b61401b565b5b5b156137ff576137cd67e65259daefe3bafb60c01b61082b565b6040517fe142361700000000000000000000000000000000000000000000000000000000815260040160405180910390fd5b6138136791f0be7a910aea4e60c01b61082b565b61382767de3af96993681c7760c01b61082b565b61383b67820c03cd84f70f6260c01b61082b565b660110d9316ec000341461388f5761385d679f08794ecff26a8160c01b61082b565b6040517f569e8c1100000000000000000000000000000000000000000000000000000000815260040160405180910390fd5b6138a367d957ec0d728ebc6b60c01b61082b565b6138b76742cdd2c4cbe0e77160c01b61082b565b6138cb672f7a7c073814d5e260c01b61082b565b6000801b820361391b576138e96761a3e33fff3fcbf960c01b61082b565b6040517fc06789fa00000000000000000000000000000000000000000000000000000000815260040160405180910390fd5b61392f67051191851de3ca2260c01b61082b565b61394367a740079e543f0ead60c01b61082b565b61395767247550324a74cf2a60c01b61082b565b600060036000815461396890614a25565b9190508190559050613984670e5632be2a5865bb60c01b61082b565b6040518061016001604052808560ff168152602001600061ffff1681526020016000151581526020016000151581526020013373ffffffffffffffffffffffffffffffffffffffff168152602001428152602001600081526020018481526020016000801b81526020016000801b8152602001348152506009600083815260200190815260200160002060008201518160000160006101000a81548160ff021916908360ff16021790555060208201518160000160016101000a81548161ffff021916908361ffff16021790555060408201518160000160036101000a81548160ff02191690831515021790555060608201518160000160046101000a81548160ff02191690831515021790555060808201518160000160056101000a81548173ffffffffffffffffffffffffffffffffffffffff021916908373ffffffffffffffffffffffffffffffffffffffff16021790555060a0820151816001015560c0820151816002015560e08201518160030155610100820151816004015561012082015181600501556101408201518160060155905050613b2f678a7f3785c51fb6d960c01b61082b565b613b43675f1ba195ef07bb3160c01b61082b565b600a60003373ffffffffffffffffffffffffffffffffffffffff1673ffffffffffffffffffffffffffffffffffffffff168152602001908152602001600020819080600181540180825580915050600190039060005260206000200160009091909190915055613bbd676b3bedbe6f880cfe60c01b61082b565b3460056000828254613bcf9190614306565b92505081905550613bea67975e4a0bba65974360c01b61082b565b613bfe67d4a97688c627cc8f60c01b61082b565b3373ffffffffffffffffffffffffffffffffffffffff16817f572bbc94e20d9cc206a294f4ec2c92781bdf0ff9d8a4d4202f7c045093628855348787604051613c4993929190614a6d565b60405180910390a3613c65674baa21cf9d457f0d60c01b61082b565b613c79674094a0c5541a315160c01b61082b565b80915050613c856140f3565b92915050565b60025481565b613ca567b2126e2203ea572d60c01b61082b565b613cad614026565b613cc167452a54af108a68ed60c01b61082b565b613cd567614282210cd7585160c01b61082b565b613ce9675cb6d9888df6fa8660c01b61082b565b6000600b60008373ffffffffffffffffffffffffffffffffffffffff1673ffffffffffffffffffffffffffffffffffffffff16815260200190815260200160002060006101000a81548160ff021916908315150217905550613d556796c437d4b96fdde060c01b61082b565b613d696747c933b78b8ccc2960c01b61082b565b8073ffffffffffffffffffffffffffffffffffffffff167f8cc55edd97b1681f7db6157cf9dfeab2ed6dfa3b3e5b7e287e136ac67cbc544560405160405180910390a250565b6000613dc567a131e317c0bb29d660c01b61082b565b613dd967c3105294d314728560c01b61082b565b613ded67d87773353669a80860c01b61082b565b600082148015613e0d5750613e0c67d14d0f7b5e8bb56060c01b61401b565b5b80613e35575060035482118015613e345750613e3367066e23dcd87b1cd760c01b61401b565b5b5b15613e6b57613e4e671a5413106da3f64560c01b61082b565b613e6267ef20901bac341d2560c01b61082b565b60009050613fd5565b613e7f67507b51c3377d528460c01b61082b565b613e9367c4f5670c91614c1e60c01b61082b565b613ea7674854e12b989dfa5f60c01b61082b565b6000600960008481526020019081526020016000209050613ed2671cfc98b0deda834760c01b61082b565b613ee667a65fdc181b22b84760c01b61082b565b8060000160039054906101000a900460ff168015613f145750613f13673e1d3d720d997ea260c01b61401b565b5b80613f4957508060000160049054906101000a900460ff168015613f485750613f4767cea42a5fc107e80260c01b61401b565b5b5b15613f8057613f6267f1a65e0d335753fc60c01b61082b565b613f76678c829bf2743e09a960c01b61082b565b6000915050613fd5565b613f946748255fa88f336d6060c01b61082b565b613fa867803623e5794161d560c01b61082b565b613fbc67a08cc44d1e128d4d60c01b61082b565b6002548160010154613fce9190614306565b4210159150505b919050565b613fe26115ac565b15614019576040517fd93c066500000000000000000000000000000000000000000000000000000000815260040160405180910390fd5b565b600060019050919050565b61402e614285565b73ffffffffffffffffffffffffffffffffffffffff1661404c6121de565b73ffffffffffffffffffffffffffffffffffffffff16146140ab5761406f614285565b6040517f118cdaa70000000000000000000000000000000000000000000000000000000081526004016140a29190614592565b60405180910390fd5b565b6002600154036140e9576040517f3ee5aeb500000000000000000000000000000000000000000000000000000000815260040160405180910390fd5b6002600181905550565b60018081905550565b61410461428d565b60008060146101000a81548160ff0219169083151502179055507f5db9ee0a495bf2e6ff9c91a7834c1ba4fdd244a5e8aa4e537bd38aeae4b073aa614147614285565b6040516141549190614592565b60405180910390a1565b60008060009054906101000a900473ffffffffffffffffffffffffffffffffffffffff169050816000806101000a81548173ffffffffffffffffffffffffffffffffffffffff021916908373ffffffffffffffffffffffffffffffffffffffff1602179055508173ffffffffffffffffffffffffffffffffffffffff168173ffffffffffffffffffffffffffffffffffffffff167f8be0079c531659141344cd1fd0a4f28419497f9722a3daafe3b4186f6b6457e060405160405180910390a35050565b61422a613fda565b6001600060146101000a81548160ff0219169083151502179055507f62e78cea01bee320cd4e420270b5ea74000d11b0c9f74754ebdbfc544b05a25861426e614285565b60405161427b9190614592565b60405180910390a1565b600033905090565b6142956115ac565b6142cb576040517f8dfc202b00000000000000000000000000000000000000000000000000000000815260040160405180910390fd5b565b6000819050919050565b7f4e487b7100000000000000000000000000000000000000000000000000000000600052601160045260246000fd5b6000614311826142cd565b915061431c836142cd565b9250828201905080821115614334576143336142d7565b5b92915050565b600080fd5b600080fd5b61434d816142cd565b811461435857600080fd5b50565b60008135905061436a81614344565b92915050565b6000819050919050565b61438381614370565b811461438e57600080fd5b50565b6000813590506143a08161437a565b92915050565b600080604083850312156143bd576143bc61433a565b5b60006143cb8582860161435b565b92505060206143dc85828601614391565b9150509250929050565b600073ffffffffffffffffffffffffffffffffffffffff82169050919050565b6000614411826143e6565b9050919050565b61442181614406565b811461442c57600080fd5b50565b60008135905061443e81614418565b92915050565b60006020828403121561445a5761445961433a565b5b60006144688482850161442f565b91505092915050565b61447a816142cd565b82525050565b60006020820190506144956000830184614471565b92915050565b600080fd5b600080fd5b600080fd5b60008083601f8401126144c0576144bf61449b565b5b8235905067ffffffffffffffff8111156144dd576144dc6144a0565b5b6020830191508360208202830111156144f9576144f86144a5565b5b9250929050565b600080602083850312156145175761451661433a565b5b600083013567ffffffffffffffff8111156145355761453461433f565b5b614541858286016144aa565b92509250509250929050565b60008115159050919050565b6145628161454d565b82525050565b600060208201905061457d6000830184614559565b92915050565b61458c81614406565b82525050565b60006020820190506145a76000830184614583565b92915050565b6000602082840312156145c3576145c261433a565b5b60006145d18482850161435b565b91505092915050565b6145e381614370565b82525050565b60006020820190506145fe60008301846145da565b92915050565b600060ff82169050919050565b61461a81614604565b811461462557600080fd5b50565b60008135905061463781614611565b92915050565b6000602082840312156146535761465261433a565b5b600061466184828501614628565b91505092915050565b600081519050919050565b600082825260208201905092915050565b6000819050602082019050919050565b61469f816142cd565b82525050565b60006146b18383614696565b60208301905092915050565b6000602082019050919050565b60006146d58261466a565b6146df8185614675565b93506146ea83614686565b8060005b8381101561471b57815161470288826146a5565b975061470d836146bd565b9250506001810190506146ee565b5085935050505092915050565b6000602082019050818103600083015261474281846146ca565b905092915050565b61475381614604565b82525050565b600060c08201905061476e6000830189614583565b61477b6020830188614471565b614788604083018761474a565b6147956060830186614559565b6147a26080830185614559565b6147af60a0830184614471565b979650505050505050565b600080600080608085870312156147d4576147d361433a565b5b60006147e28782880161435b565b94505060206147f387828801614391565b935050604061480487828801614391565b92505060606148158782880161435b565b91505092959194509250565b600060c0820190506148366000830189614471565b6148436020830188614471565b6148506040830187614471565b61485d6060830186614471565b61486a6080830185614471565b61487760a0830184614471565b979650505050505050565b600080604083850312156148995761489861433a565b5b60006148a785828601614628565b92505060206148b885828601614391565b9150509250929050565b600081905092915050565b50565b60006148dd6000836148c2565b91506148e8826148cd565b600082019050919050565b60006148fe826148d0565b9150819050919050565b600060408201905061491d6000830185614471565b61492a6020830184614583565b9392505050565b7f4e487b7100000000000000000000000000000000000000000000000000000000600052603260045260246000fd5b600061496b826142cd565b9150614976836142cd565b925082820390508181111561498e5761498d6142d7565b5b92915050565b60006040820190506149a96000830185614583565b6149b66020830184614471565b9392505050565b6000819050919050565b6149d86149d382614370565b6149bd565b82525050565b60006149ea82846149c7565b60208201915081905092915050565b6000614a0582856149c7565b602082019150614a1582846149c7565b6020820191508190509392505050565b6000614a30826142cd565b91507fffffffffffffffffffffffffffffffffffffffffffffffffffffffffffffffff8203614a6257614a616142d7565b5b600182019050919050565b6000606082019050614a826000830186614471565b614a8f602083018561474a565b614a9c60408301846145da565b94935050505056fea2646970667358221220e47fb2b1e7e1ae9e4bff896b9b000c9beb07155900519ee0cb48a2e0b71e4eda64736f6c634300081e0033","opcodes":"PUSH1 0x80 PUSH1 0x40 MSTORE PUSH1 0x1E PUSH1 0x2 SSTORE CALLVALUE DUP1 ISZERO PUSH2 0x15 JUMPI PUSH1 0x0 DUP1 REVERT JUMPDEST POP PUSH1 0x40 MLOAD PUSH2 0x4F5D CODESIZE SUB DUP1 PUSH2 0x4F5D DUP4 CODECOPY DUP2 DUP2 ADD PUSH1 0x40 MSTORE DUP2 ADD SWAP1 PUSH2 0x37 SWAP2 SWAP1 PUSH2 0x41D JUMP JUMPDEST CALLER PUSH1 0x0 PUSH20 0xFFFFFFFFFFFFFFFFFFFFFFFFFFFFFFFFFFFFFFFF AND DUP2 PUSH20 0xFFFFFFFFFFFFFFFFFFFFFFFFFFFFFFFFFFFFFFFF AND SUB PUSH2 0xAA JUMPI PUSH1 0x0 PUSH1 0x40 MLOAD PUSH32 0x1E4FBDF700000000000000000000000000000000000000000000000000000000 DUP2 MSTORE PUSH1 0x4 ADD PUSH2 0xA1 SWAP2 SWAP1 PUSH2 0x459 JUMP JUMPDEST PUSH1 0x40 MLOAD DUP1 SWAP2 SUB SWAP1 REVERT JUMPDEST PUSH2 0xB9 DUP2 PUSH2 0x2F3 PUSH1 0x20 SHL PUSH1 0x20 SHR JUMP JUMPDEST POP PUSH1 0x1 DUP1 DUP2 SWAP1 SSTORE POP PUSH2 0xDB PUSH8 0xB401D13F12690552 PUSH1 0xC0 SHL PUSH2 0x3B7 PUSH1 0x20 SHL PUSH1 0x20 SHR JUMP JUMPDEST PUSH2 0xF5 PUSH8 0xCDBFA772451F500 PUSH1 0xC0 SHL PUSH2 0x3B7 PUSH1 0x20 SHL PUSH1 0x20 SHR JUMP JUMPDEST PUSH2 0x10F PUSH8 0xF39051CFF911F071 PUSH1 0xC0 SHL PUSH2 0x3B7 PUSH1 0x20 SHL PUSH1 0x20 SHR JUMP JUMPDEST PUSH1 0x0 PUSH20 0xFFFFFFFFFFFFFFFFFFFFFFFFFFFFFFFFFFFFFFFF AND DUP2 PUSH20 0xFFFFFFFFFFFFFFFFFFFFFFFFFFFFFFFFFFFFFFFF AND SUB PUSH2 0x18F JUMPI PUSH2 0x15D PUSH8 0xED5921B66A6B3151 PUSH1 0xC0 SHL PUSH2 0x3B7 PUSH1 0x20 SHL PUSH1 0x20 SHR JUMP JUMPDEST PUSH1 0x40 MLOAD PUSH32 0x14BCF5C800000000000000000000000000000000000000000000000000000000 DUP2 MSTORE PUSH1 0x4 ADD PUSH1 0x40 MLOAD DUP1 SWAP2 SUB SWAP1 REVERT JUMPDEST PUSH2 0x1A9 PUSH8 0xAFC299342E8F2D6C PUSH1 0xC0 SHL PUSH2 0x3B7 PUSH1 0x20 SHL PUSH1 0x20 SHR JUMP JUMPDEST PUSH2 0x1C3 PUSH8 0xA9207D91C4E1A2AF PUSH1 0xC0 SHL PUSH2 0x3B7 PUSH1 0x20 SHL PUSH1 0x20 SHR JUMP JUMPDEST DUP1 PUSH1 0x8 PUSH1 0x0 PUSH2 0x100 EXP DUP2 SLOAD DUP2 PUSH20 0xFFFFFFFFFFFFFFFFFFFFFFFFFFFFFFFFFFFFFFFF MUL NOT AND SWAP1 DUP4 PUSH20 0xFFFFFFFFFFFFFFFFFFFFFFFFFFFFFFFFFFFFFFFF AND MUL OR SWAP1 SSTORE POP PUSH2 0x21E PUSH8 0xC833B66352CB6BDD PUSH1 0xC0 SHL PUSH2 0x3B7 PUSH1 0x20 SHL PUSH1 0x20 SHR JUMP JUMPDEST PUSH1 0x1 PUSH1 0xB PUSH1 0x0 CALLER PUSH20 0xFFFFFFFFFFFFFFFFFFFFFFFFFFFFFFFFFFFFFFFF AND PUSH20 0xFFFFFFFFFFFFFFFFFFFFFFFFFFFFFFFFFFFFFFFF AND DUP2 MSTORE PUSH1 0x20 ADD SWAP1 DUP2 MSTORE PUSH1 0x20 ADD PUSH1 0x0 KECCAK256 PUSH1 0x0 PUSH2 0x100 EXP DUP2 SLOAD DUP2 PUSH1 0xFF MUL NOT AND SWAP1 DUP4 ISZERO ISZERO MUL OR SWAP1 SSTORE POP PUSH2 0x290 PUSH8 0x438348AB2A919F1B PUSH1 0xC0 SHL PUSH2 0x3B7 PUSH1 0x20 SHL PUSH1 0x20 SHR JUMP JUMPDEST PUSH2 0x2AA PUSH8 0xE2A2AEF00A64FCD1 PUSH1 0xC0 SHL PUSH2 0x3B7 PUSH1 0x20 SHL PUSH1 0x20 SHR JUMP JUMPDEST CALLER PUSH20 0xFFFFFFFFFFFFFFFFFFFFFFFFFFFFFFFFFFFFFFFF AND PUSH32 0x4D30243D3DD420952FE6994A84EF13D7EDA0EB94F3DA88F506D050B518BFA3CE PUSH1 0x40 MLOAD PUSH1 0x40 MLOAD DUP1 SWAP2 SUB SWAP1 LOG2 POP PUSH2 0x474 JUMP JUMPDEST PUSH1 0x0 DUP1 PUSH1 0x0 SWAP1 SLOAD SWAP1 PUSH2 0x100 EXP SWAP1 DIV PUSH20 0xFFFFFFFFFFFFFFFFFFFFFFFFFFFFFFFFFFFFFFFF AND SWAP1 POP DUP2 PUSH1 0x0 DUP1 PUSH2 0x100 EXP DUP2 SLOAD DUP2 PUSH20 0xFFFFFFFFFFFFFFFFFFFFFFFFFFFFFFFFFFFFFFFF MUL NOT AND SWAP1 DUP4 PUSH20 0xFFFFFFFFFFFFFFFFFFFFFFFFFFFFFFFFFFFFFFFF AND MUL OR SWAP1 SSTORE POP DUP2 PUSH20 0xFFFFFFFFFFFFFFFFFFFFFFFFFFFFFFFFFFFFFFFF AND DUP2 PUSH20 0xFFFFFFFFFFFFFFFFFFFFFFFFFFFFFFFFFFFFFFFF AND PUSH32 0x8BE0079C531659141344CD1FD0A4F28419497F9722A3DAAFE3B4186F6B6457E0 PUSH1 0x40 MLOAD PUSH1 0x40 MLOAD DUP1 SWAP2 SUB SWAP1 LOG3 POP POP JUMP JUMPDEST POP JUMP JUMPDEST PUSH1 0x0 DUP1 REVERT JUMPDEST PUSH1 0x0 PUSH20 0xFFFFFFFFFFFFFFFFFFFFFFFFFFFFFFFFFFFFFFFF DUP3 AND SWAP1 POP SWAP2 SWAP1 POP JUMP JUMPDEST PUSH1 0x0 PUSH2 0x3EA DUP3 PUSH2 0x3BF JUMP JUMPDEST SWAP1 POP SWAP2 SWAP1 POP JUMP JUMPDEST PUSH2 0x3FA DUP2 PUSH2 0x3DF JUMP JUMPDEST DUP2 EQ PUSH2 0x405 JUMPI PUSH1 0x0 DUP1 REVERT JUMPDEST POP JUMP JUMPDEST PUSH1 0x0 DUP2 MLOAD SWAP1 POP PUSH2 0x417 DUP2 PUSH2 0x3F1 JUMP JUMPDEST SWAP3 SWAP2 POP POP JUMP JUMPDEST PUSH1 0x0 PUSH1 0x20 DUP3 DUP5 SUB SLT ISZERO PUSH2 0x433 JUMPI PUSH2 0x432 PUSH2 0x3BA JUMP JUMPDEST JUMPDEST PUSH1 0x0 PUSH2 0x441 DUP5 DUP3 DUP6 ADD PUSH2 0x408 JUMP JUMPDEST SWAP2 POP POP SWAP3 SWAP2 POP POP JUMP JUMPDEST PUSH2 0x453 DUP2 PUSH2 0x3DF JUMP JUMPDEST DUP3 MSTORE POP POP JUMP JUMPDEST PUSH1 0x0 PUSH1 0x20 DUP3 ADD SWAP1 POP PUSH2 0x46E PUSH1 0x0 DUP4 ADD DUP5 PUSH2 0x44A JUMP JUMPDEST SWAP3 SWAP2 POP POP JUMP JUMPDEST PUSH2 0x4ADA DUP1 PUSH2 0x483 PUSH1 0x0 CODECOPY PUSH1 0x0 RETURN INVALID PUSH1 0x80 PUSH1 0x40 MSTORE PUSH1 0x4 CALLDATASIZE LT PUSH2 0x1FD JUMPI PUSH1 0x0 CALLDATALOAD PUSH1 0xE0 SHR DUP1 PUSH4 0x8BFEE347 GT PUSH2 0x10D JUMPI DUP1 PUSH4 0xC5C28FD1 GT PUSH2 0xA0 JUMPI DUP1 PUSH4 0xF2FDE38B GT PUSH2 0x6F JUMPI DUP1 PUSH4 0xF2FDE38B EQ PUSH2 0x741 JUMPI DUP1 PUSH4 0xF58A4288 EQ PUSH2 0x76A JUMPI DUP1 PUSH4 0xF82719CA EQ PUSH2 0x79A JUMPI DUP1 PUSH4 0xFA48388F EQ PUSH2 0x7C5 JUMPI DUP1 PUSH4 0xFC8CC92B EQ PUSH2 0x7EE JUMPI PUSH2 0x230 JUMP JUMPDEST DUP1 PUSH4 0xC5C28FD1 EQ PUSH2 0x694 JUMPI DUP1 PUSH4 0xCBCB345B EQ PUSH2 0x6BF JUMPI DUP1 PUSH4 0xDD46C3F0 EQ PUSH2 0x6E8 JUMPI DUP1 PUSH4 0xDFE6B5D6 EQ PUSH2 0x711 JUMPI PUSH2 0x230 JUMP JUMPDEST DUP1 PUSH4 0x987BF9A7 GT PUSH2 0xDC JUMPI DUP1 PUSH4 0x987BF9A7 EQ PUSH2 0x5AF JUMPI DUP1 PUSH4 0xA4B2409E EQ PUSH2 0x5EC JUMPI DUP1 PUSH4 0xB337CF74 EQ PUSH2 0x615 JUMPI DUP1 PUSH4 0xB4AEDB54 EQ PUSH2 0x652 JUMPI PUSH2 0x230 JUMP JUMPDEST DUP1 PUSH4 0x8BFEE347 EQ PUSH2 0x4F3 JUMPI DUP1 PUSH4 0x8CEFF157 EQ PUSH2 0x530 JUMPI DUP1 PUSH4 0x8D6DAF81 EQ PUSH2 0x547 JUMPI DUP1 PUSH4 0x8DA5CB5B EQ PUSH2 0x584 JUMPI PUSH2 0x230 JUMP JUMPDEST DUP1 PUSH4 0x5BADBE4C GT PUSH2 0x190 JUMPI DUP1 PUSH4 0x67A0B7BB GT PUSH2 0x15F JUMPI DUP1 PUSH4 0x67A0B7BB EQ PUSH2 0x434 JUMPI DUP1 PUSH4 0x715018A6 EQ PUSH2 0x471 JUMPI DUP1 PUSH4 0x7F51BB1F EQ PUSH2 0x488 JUMPI DUP1 PUSH4 0x8456CB59 EQ PUSH2 0x4B1 JUMPI DUP1 PUSH4 0x850F991D EQ PUSH2 0x4C8 JUMPI PUSH2 0x230 JUMP JUMPDEST DUP1 PUSH4 0x5BADBE4C EQ PUSH2 0x39C JUMPI DUP1 PUSH4 0x5C975ABB EQ PUSH2 0x3C7 JUMPI DUP1 PUSH4 0x6103D70B EQ PUSH2 0x3F2 JUMPI DUP1 PUSH4 0x61D027B3 EQ PUSH2 0x409 JUMPI PUSH2 0x230 JUMP JUMPDEST DUP1 PUSH4 0x383AB8D6 GT PUSH2 0x1CC JUMPI DUP1 PUSH4 0x383AB8D6 EQ PUSH2 0x306 JUMPI DUP1 PUSH4 0x3F4BA83A EQ PUSH2 0x32F JUMPI DUP1 PUSH4 0x4ADF1D32 EQ PUSH2 0x346 JUMPI DUP1 PUSH4 0x57B4D18E EQ PUSH2 0x371 JUMPI PUSH2 0x230 JUMP JUMPDEST DUP1 PUSH4 0x12792B61 EQ PUSH2 0x272 JUMPI DUP1 PUSH4 0x166BAB95 EQ PUSH2 0x29B JUMPI DUP1 PUSH4 0x246CE9F7 EQ PUSH2 0x2B2 JUMPI DUP1 PUSH4 0x313DAB20 EQ PUSH2 0x2DB JUMPI PUSH2 0x230 JUMP JUMPDEST CALLDATASIZE PUSH2 0x230 JUMPI PUSH2 0x216 PUSH8 0x3084C8A95D073E8F PUSH1 0xC0 SHL PUSH2 0x82B JUMP JUMPDEST CALLVALUE PUSH1 0x7 PUSH1 0x0 DUP3 DUP3 SLOAD PUSH2 0x228 SWAP2 SWAP1 PUSH2 0x4306 JUMP JUMPDEST SWAP3 POP POP DUP2 SWAP1 SSTORE STOP JUMPDEST PUSH2 0x244 PUSH8 0xF35E0025BF09B286 PUSH1 0xC0 SHL PUSH2 0x82B JUMP JUMPDEST PUSH2 0x258 PUSH8 0xBA37E71B6C191325 PUSH1 0xC0 SHL PUSH2 0x82B JUMP JUMPDEST CALLVALUE PUSH1 0x7 PUSH1 0x0 DUP3 DUP3 SLOAD PUSH2 0x26A SWAP2 SWAP1 PUSH2 0x4306 JUMP JUMPDEST SWAP3 POP POP DUP2 SWAP1 SSTORE STOP JUMPDEST CALLVALUE DUP1 ISZERO PUSH2 0x27E JUMPI PUSH1 0x0 DUP1 REVERT JUMPDEST POP PUSH2 0x299 PUSH1 0x4 DUP1 CALLDATASIZE SUB DUP2 ADD SWAP1 PUSH2 0x294 SWAP2 SWAP1 PUSH2 0x43A6 JUMP JUMPDEST PUSH2 0x82E JUMP JUMPDEST STOP JUMPDEST CALLVALUE DUP1 ISZERO PUSH2 0x2A7 JUMPI PUSH1 0x0 DUP1 REVERT JUMPDEST POP PUSH2 0x2B0 PUSH2 0xC7C JUMP JUMPDEST STOP JUMPDEST CALLVALUE DUP1 ISZERO PUSH2 0x2BE JUMPI PUSH1 0x0 DUP1 REVERT JUMPDEST POP PUSH2 0x2D9 PUSH1 0x4 DUP1 CALLDATASIZE SUB DUP2 ADD SWAP1 PUSH2 0x2D4 SWAP2 SWAP1 PUSH2 0x4444 JUMP JUMPDEST PUSH2 0xF91 JUMP JUMPDEST STOP JUMPDEST CALLVALUE DUP1 ISZERO PUSH2 0x2E7 JUMPI PUSH1 0x0 DUP1 REVERT JUMPDEST POP PUSH2 0x2F0 PUSH2 0x1165 JUMP JUMPDEST PUSH1 0x40 MLOAD PUSH2 0x2FD SWAP2 SWAP1 PUSH2 0x4480 JUMP JUMPDEST PUSH1 0x40 MLOAD DUP1 SWAP2 SUB SWAP1 RETURN JUMPDEST CALLVALUE DUP1 ISZERO PUSH2 0x312 JUMPI PUSH1 0x0 DUP1 REVERT JUMPDEST POP PUSH2 0x32D PUSH1 0x4 DUP1 CALLDATASIZE SUB DUP2 ADD SWAP1 PUSH2 0x328 SWAP2 SWAP1 PUSH2 0x4500 JUMP JUMPDEST PUSH2 0x116B JUMP JUMPDEST STOP JUMPDEST CALLVALUE DUP1 ISZERO PUSH2 0x33B JUMPI PUSH1 0x0 DUP1 REVERT JUMPDEST POP PUSH2 0x344 PUSH2 0x151F JUMP JUMPDEST STOP JUMPDEST CALLVALUE DUP1 ISZERO PUSH2 0x352 JUMPI PUSH1 0x0 DUP1 REVERT JUMPDEST POP PUSH2 0x35B PUSH2 0x1595 JUMP JUMPDEST PUSH1 0x40 MLOAD PUSH2 0x368 SWAP2 SWAP1 PUSH2 0x4480 JUMP JUMPDEST PUSH1 0x40 MLOAD DUP1 SWAP2 SUB SWAP1 RETURN JUMPDEST CALLVALUE DUP1 ISZERO PUSH2 0x37D JUMPI PUSH1 0x0 DUP1 REVERT JUMPDEST POP PUSH2 0x386 PUSH2 0x15A0 JUMP JUMPDEST PUSH1 0x40 MLOAD PUSH2 0x393 SWAP2 SWAP1 PUSH2 0x4480 JUMP JUMPDEST PUSH1 0x40 MLOAD DUP1 SWAP2 SUB SWAP1 RETURN JUMPDEST CALLVALUE DUP1 ISZERO PUSH2 0x3A8 JUMPI PUSH1 0x0 DUP1 REVERT JUMPDEST POP PUSH2 0x3B1 PUSH2 0x15A6 JUMP JUMPDEST PUSH1 0x40 MLOAD PUSH2 0x3BE SWAP2 SWAP1 PUSH2 0x4480 JUMP JUMPDEST PUSH1 0x40 MLOAD DUP1 SWAP2 SUB SWAP1 RETURN JUMPDEST CALLVALUE DUP1 ISZERO PUSH2 0x3D3 JUMPI PUSH1 0x0 DUP1 REVERT JUMPDEST POP PUSH2 0x3DC PUSH2 0x15AC JUMP JUMPDEST PUSH1 0x40 MLOAD PUSH2 0x3E9 SWAP2 SWAP1 PUSH2 0x4568 JUMP JUMPDEST PUSH1 0x40 MLOAD DUP1 SWAP2 SUB SWAP1 RETURN JUMPDEST CALLVALUE DUP1 ISZERO PUSH2 0x3FE JUMPI PUSH1 0x0 DUP1 REVERT JUMPDEST POP PUSH2 0x407 PUSH2 0x15C2 JUMP JUMPDEST STOP JUMPDEST CALLVALUE DUP1 ISZERO PUSH2 0x415 JUMPI PUSH1 0x0 DUP1 REVERT JUMPDEST POP PUSH2 0x41E PUSH2 0x187C JUMP JUMPDEST PUSH1 0x40 MLOAD PUSH2 0x42B SWAP2 SWAP1 PUSH2 0x4592 JUMP JUMPDEST PUSH1 0x40 MLOAD DUP1 SWAP2 SUB SWAP1 RETURN JUMPDEST CALLVALUE DUP1 ISZERO PUSH2 0x440 JUMPI PUSH1 0x0 DUP1 REVERT JUMPDEST POP PUSH2 0x45B PUSH1 0x4 DUP1 CALLDATASIZE SUB DUP2 ADD SWAP1 PUSH2 0x456 SWAP2 SWAP1 PUSH2 0x4444 JUMP JUMPDEST PUSH2 0x18A2 JUMP JUMPDEST PUSH1 0x40 MLOAD PUSH2 0x468 SWAP2 SWAP1 PUSH2 0x4568 JUMP JUMPDEST PUSH1 0x40 MLOAD DUP1 SWAP2 SUB SWAP1 RETURN JUMPDEST CALLVALUE DUP1 ISZERO PUSH2 0x47D JUMPI PUSH1 0x0 DUP1 REVERT JUMPDEST POP PUSH2 0x486 PUSH2 0x18C2 JUMP JUMPDEST STOP JUMPDEST CALLVALUE DUP1 ISZERO PUSH2 0x494 JUMPI PUSH1 0x0 DUP1 REVERT JUMPDEST POP PUSH2 0x4AF PUSH1 0x4 DUP1 CALLDATASIZE SUB DUP2 ADD SWAP1 PUSH2 0x4AA SWAP2 SWAP1 PUSH2 0x4444 JUMP JUMPDEST PUSH2 0x18D6 JUMP JUMPDEST STOP JUMPDEST CALLVALUE DUP1 ISZERO PUSH2 0x4BD JUMPI PUSH1 0x0 DUP1 REVERT JUMPDEST POP PUSH2 0x4C6 PUSH2 0x1AF9 JUMP JUMPDEST STOP JUMPDEST CALLVALUE DUP1 ISZERO PUSH2 0x4D4 JUMPI PUSH1 0x0 DUP1 REVERT JUMPDEST POP PUSH2 0x4DD PUSH2 0x1B6F JUMP JUMPDEST PUSH1 0x40 MLOAD PUSH2 0x4EA SWAP2 SWAP1 PUSH2 0x4480 JUMP JUMPDEST PUSH1 0x40 MLOAD DUP1 SWAP2 SUB SWAP1 RETURN JUMPDEST CALLVALUE DUP1 ISZERO PUSH2 0x4FF JUMPI PUSH1 0x0 DUP1 REVERT JUMPDEST POP PUSH2 0x51A PUSH1 0x4 DUP1 CALLDATASIZE SUB DUP2 ADD SWAP1 PUSH2 0x515 SWAP2 SWAP1 PUSH2 0x45AD JUMP JUMPDEST PUSH2 0x1B75 JUMP JUMPDEST PUSH1 0x40 MLOAD PUSH2 0x527 SWAP2 SWAP1 PUSH2 0x45E9 JUMP JUMPDEST PUSH1 0x40 MLOAD DUP1 SWAP2 SUB SWAP1 RETURN JUMPDEST CALLVALUE DUP1 ISZERO PUSH2 0x53C JUMPI PUSH1 0x0 DUP1 REVERT JUMPDEST POP PUSH2 0x545 PUSH2 0x1E7C JUMP JUMPDEST STOP JUMPDEST CALLVALUE DUP1 ISZERO PUSH2 0x553 JUMPI PUSH1 0x0 DUP1 REVERT JUMPDEST POP PUSH2 0x56E PUSH1 0x4 DUP1 CALLDATASIZE SUB DUP2 ADD SWAP1 PUSH2 0x569 SWAP2 SWAP1 PUSH2 0x463D JUMP JUMPDEST PUSH2 0x2191 JUMP JUMPDEST PUSH1 0x40 MLOAD PUSH2 0x57B SWAP2 SWAP1 PUSH2 0x4480 JUMP JUMPDEST PUSH1 0x40 MLOAD DUP1 SWAP2 SUB SWAP1 RETURN JUMPDEST CALLVALUE DUP1 ISZERO PUSH2 0x590 JUMPI PUSH1 0x0 DUP1 REVERT JUMPDEST POP PUSH2 0x599 PUSH2 0x21DE JUMP JUMPDEST PUSH1 0x40 MLOAD PUSH2 0x5A6 SWAP2 SWAP1 PUSH2 0x4592 JUMP JUMPDEST PUSH1 0x40 MLOAD DUP1 SWAP2 SUB SWAP1 RETURN JUMPDEST CALLVALUE DUP1 ISZERO PUSH2 0x5BB JUMPI PUSH1 0x0 DUP1 REVERT JUMPDEST POP PUSH2 0x5D6 PUSH1 0x4 DUP1 CALLDATASIZE SUB DUP2 ADD SWAP1 PUSH2 0x5D1 SWAP2 SWAP1 PUSH2 0x4444 JUMP JUMPDEST PUSH2 0x2207 JUMP JUMPDEST PUSH1 0x40 MLOAD PUSH2 0x5E3 SWAP2 SWAP1 PUSH2 0x4480 JUMP JUMPDEST PUSH1 0x40 MLOAD DUP1 SWAP2 SUB SWAP1 RETURN JUMPDEST CALLVALUE DUP1 ISZERO PUSH2 0x5F8 JUMPI PUSH1 0x0 DUP1 REVERT JUMPDEST POP PUSH2 0x613 PUSH1 0x4 DUP1 CALLDATASIZE SUB DUP2 ADD SWAP1 PUSH2 0x60E SWAP2 SWAP1 PUSH2 0x45AD JUMP JUMPDEST PUSH2 0x228C JUMP JUMPDEST STOP JUMPDEST CALLVALUE DUP1 ISZERO PUSH2 0x621 JUMPI PUSH1 0x0 DUP1 REVERT JUMPDEST POP PUSH2 0x63C PUSH1 0x4 DUP1 CALLDATASIZE SUB DUP2 ADD SWAP1 PUSH2 0x637 SWAP2 SWAP1 PUSH2 0x4444 JUMP JUMPDEST PUSH2 0x2951 JUMP JUMPDEST PUSH1 0x40 MLOAD PUSH2 0x649 SWAP2 SWAP1 PUSH2 0x4728 JUMP JUMPDEST PUSH1 0x40 MLOAD DUP1 SWAP2 SUB SWAP1 RETURN JUMPDEST CALLVALUE DUP1 ISZERO PUSH2 0x65E JUMPI PUSH1 0x0 DUP1 REVERT JUMPDEST POP PUSH2 0x679 PUSH1 0x4 DUP1 CALLDATASIZE SUB DUP2 ADD SWAP1 PUSH2 0x674 SWAP2 SWAP1 PUSH2 0x45AD JUMP JUMPDEST PUSH2 0x2A24 JUMP JUMPDEST PUSH1 0x40 MLOAD PUSH2 0x68B SWAP7 SWAP6 SWAP5 SWAP4 SWAP3 SWAP2 SWAP1 PUSH2 0x4759 JUMP JUMPDEST PUSH1 0x40 MLOAD DUP1 SWAP2 SUB SWAP1 RETURN JUMPDEST CALLVALUE DUP1 ISZERO PUSH2 0x6A0 JUMPI PUSH1 0x0 DUP1 REVERT JUMPDEST POP PUSH2 0x6A9 PUSH2 0x2BF2 JUMP JUMPDEST PUSH1 0x40 MLOAD PUSH2 0x6B6 SWAP2 SWAP1 PUSH2 0x4480 JUMP JUMPDEST PUSH1 0x40 MLOAD DUP1 SWAP2 SUB SWAP1 RETURN JUMPDEST CALLVALUE DUP1 ISZERO PUSH2 0x6CB JUMPI PUSH1 0x0 DUP1 REVERT JUMPDEST POP PUSH2 0x6E6 PUSH1 0x4 DUP1 CALLDATASIZE SUB DUP2 ADD SWAP1 PUSH2 0x6E1 SWAP2 SWAP1 PUSH2 0x45AD JUMP JUMPDEST PUSH2 0x2BF8 JUMP JUMPDEST STOP JUMPDEST CALLVALUE DUP1 ISZERO PUSH2 0x6F4 JUMPI PUSH1 0x0 DUP1 REVERT JUMPDEST POP PUSH2 0x70F PUSH1 0x4 DUP1 CALLDATASIZE SUB DUP2 ADD SWAP1 PUSH2 0x70A SWAP2 SWAP1 PUSH2 0x47BA JUMP JUMPDEST PUSH2 0x2D29 JUMP JUMPDEST STOP JUMPDEST CALLVALUE DUP1 ISZERO PUSH2 0x71D JUMPI PUSH1 0x0 DUP1 REVERT JUMPDEST POP PUSH2 0x726 PUSH2 0x35DA JUMP JUMPDEST PUSH1 0x40 MLOAD PUSH2 0x738 SWAP7 SWAP6 SWAP5 SWAP4 SWAP3 SWAP2 SWAP1 PUSH2 0x4821 JUMP JUMPDEST PUSH1 0x40 MLOAD DUP1 SWAP2 SUB SWAP1 RETURN JUMPDEST CALLVALUE DUP1 ISZERO PUSH2 0x74D JUMPI PUSH1 0x0 DUP1 REVERT JUMPDEST POP PUSH2 0x768 PUSH1 0x4 DUP1 CALLDATASIZE SUB DUP2 ADD SWAP1 PUSH2 0x763 SWAP2 SWAP1 PUSH2 0x4444 JUMP JUMPDEST PUSH2 0x3643 JUMP JUMPDEST STOP JUMPDEST PUSH2 0x784 PUSH1 0x4 DUP1 CALLDATASIZE SUB DUP2 ADD SWAP1 PUSH2 0x77F SWAP2 SWAP1 PUSH2 0x4882 JUMP JUMPDEST PUSH2 0x36C9 JUMP JUMPDEST PUSH1 0x40 MLOAD PUSH2 0x791 SWAP2 SWAP1 PUSH2 0x4480 JUMP JUMPDEST PUSH1 0x40 MLOAD DUP1 SWAP2 SUB SWAP1 RETURN JUMPDEST CALLVALUE DUP1 ISZERO PUSH2 0x7A6 JUMPI PUSH1 0x0 DUP1 REVERT JUMPDEST POP PUSH2 0x7AF PUSH2 0x3C8B JUMP JUMPDEST PUSH1 0x40 MLOAD PUSH2 0x7BC SWAP2 SWAP1 PUSH2 0x4480 JUMP JUMPDEST PUSH1 0x40 MLOAD DUP1 SWAP2 SUB SWAP1 RETURN JUMPDEST CALLVALUE DUP1 ISZERO PUSH2 0x7D1 JUMPI PUSH1 0x0 DUP1 REVERT JUMPDEST POP PUSH2 0x7EC PUSH1 0x4 DUP1 CALLDATASIZE SUB DUP2 ADD SWAP1 PUSH2 0x7E7 SWAP2 SWAP1 PUSH2 0x4444 JUMP JUMPDEST PUSH2 0x3C91 JUMP JUMPDEST STOP JUMPDEST CALLVALUE DUP1 ISZERO PUSH2 0x7FA JUMPI PUSH1 0x0 DUP1 REVERT JUMPDEST POP PUSH2 0x815 PUSH1 0x4 DUP1 CALLDATASIZE SUB DUP2 ADD SWAP1 PUSH2 0x810 SWAP2 SWAP1 PUSH2 0x45AD JUMP JUMPDEST PUSH2 0x3DAF JUMP JUMPDEST PUSH1 0x40 MLOAD PUSH2 0x822 SWAP2 SWAP1 PUSH2 0x4568 JUMP JUMPDEST PUSH1 0x40 MLOAD DUP1 SWAP2 SUB SWAP1 RETURN JUMPDEST POP JUMP JUMPDEST PUSH2 0x842 PUSH8 0x9D4F1FABF670D7E2 PUSH1 0xC0 SHL PUSH2 0x82B JUMP JUMPDEST PUSH2 0x856 PUSH8 0x881E9C59CF40C316 PUSH1 0xC0 SHL PUSH2 0x82B JUMP JUMPDEST PUSH2 0x86A PUSH8 0xDB47DF048E66A3E0 PUSH1 0xC0 SHL PUSH2 0x82B JUMP JUMPDEST PUSH2 0x87E PUSH8 0x56BF901E130A42B1 PUSH1 0xC0 SHL PUSH2 0x82B JUMP JUMPDEST PUSH1 0xB PUSH1 0x0 CALLER PUSH20 0xFFFFFFFFFFFFFFFFFFFFFFFFFFFFFFFFFFFFFFFF AND PUSH20 0xFFFFFFFFFFFFFFFFFFFFFFFFFFFFFFFFFFFFFFFF AND DUP2 MSTORE PUSH1 0x20 ADD SWAP1 DUP2 MSTORE PUSH1 0x20 ADD PUSH1 0x0 KECCAK256 PUSH1 0x0 SWAP1 SLOAD SWAP1 PUSH2 0x100 EXP SWAP1 DIV PUSH1 0xFF AND DUP1 PUSH2 0x908 JUMPI POP PUSH2 0x8D9 PUSH2 0x21DE JUMP JUMPDEST PUSH20 0xFFFFFFFFFFFFFFFFFFFFFFFFFFFFFFFFFFFFFFFF AND CALLER PUSH20 0xFFFFFFFFFFFFFFFFFFFFFFFFFFFFFFFFFFFFFFFF AND EQ JUMPDEST PUSH2 0x952 JUMPI PUSH2 0x920 PUSH8 0xA369C595162D58EE PUSH1 0xC0 SHL PUSH2 0x82B JUMP JUMPDEST PUSH1 0x40 MLOAD PUSH32 0xEA8E4EB500000000000000000000000000000000000000000000000000000000 DUP2 MSTORE PUSH1 0x4 ADD PUSH1 0x40 MLOAD DUP1 SWAP2 SUB SWAP1 REVERT JUMPDEST PUSH2 0x966 PUSH8 0x7A2C53AAA89E1204 PUSH1 0xC0 SHL PUSH2 0x82B JUMP JUMPDEST PUSH2 0x97A PUSH8 0xB85052559E8FDB1B PUSH1 0xC0 SHL PUSH2 0x82B JUMP JUMPDEST PUSH2 0x98E PUSH8 0x844BFCD25E7337D0 PUSH1 0xC0 SHL PUSH2 0x82B JUMP JUMPDEST PUSH2 0x9A2 PUSH8 0x9187204ACC7E8496 PUSH1 0xC0 SHL PUSH2 0x82B JUMP JUMPDEST PUSH2 0x9AA PUSH2 0x3FDA JUMP JUMPDEST PUSH2 0x9BE PUSH8 0x2308F57F2DD43DDD PUSH1 0xC0 SHL PUSH2 0x82B JUMP JUMPDEST PUSH2 0x9D2 PUSH8 0x7190A04C7D1FCF37 PUSH1 0xC0 SHL PUSH2 0x82B JUMP JUMPDEST PUSH2 0x9E6 PUSH8 0xF0C9A841DD209465 PUSH1 0xC0 SHL PUSH2 0x82B JUMP JUMPDEST PUSH2 0x9FA PUSH8 0x892789381CE71C24 PUSH1 0xC0 SHL PUSH2 0x82B JUMP JUMPDEST PUSH1 0x0 DUP3 EQ DUP1 ISZERO PUSH2 0xA1A JUMPI POP PUSH2 0xA19 PUSH8 0xB0F94E6A7ECD479C PUSH1 0xC0 SHL PUSH2 0x401B JUMP JUMPDEST JUMPDEST DUP1 PUSH2 0xA42 JUMPI POP PUSH1 0x3 SLOAD DUP3 GT DUP1 ISZERO PUSH2 0xA41 JUMPI POP PUSH2 0xA40 PUSH8 0x71CBD13C17B894BE PUSH1 0xC0 SHL PUSH2 0x401B JUMP JUMPDEST JUMPDEST JUMPDEST ISZERO PUSH2 0xA8D JUMPI PUSH2 0xA5B PUSH8 0x789CC131943E0E20 PUSH1 0xC0 SHL PUSH2 0x82B JUMP JUMPDEST PUSH1 0x40 MLOAD PUSH32 0xBA0514C000000000000000000000000000000000000000000000000000000000 DUP2 MSTORE PUSH1 0x4 ADD PUSH1 0x40 MLOAD DUP1 SWAP2 SUB SWAP1 REVERT JUMPDEST PUSH2 0xAA1 PUSH8 0x3874EC2C0DCBA2A1 PUSH1 0xC0 SHL PUSH2 0x82B JUMP JUMPDEST PUSH2 0xAB5 PUSH8 0x6C05761C35AE41B PUSH1 0xC0 SHL PUSH2 0x82B JUMP JUMPDEST PUSH2 0xAC9 PUSH8 0x7D7615E94BABD77C PUSH1 0xC0 SHL PUSH2 0x82B JUMP JUMPDEST PUSH1 0x0 PUSH1 0x9 PUSH1 0x0 DUP5 DUP2 MSTORE PUSH1 0x20 ADD SWAP1 DUP2 MSTORE PUSH1 0x20 ADD PUSH1 0x0 KECCAK256 SWAP1 POP PUSH2 0xAF4 PUSH8 0x993929818F3B620C PUSH1 0xC0 SHL PUSH2 0x82B JUMP JUMPDEST PUSH2 0xB08 PUSH8 0xD076900D2E1C35D PUSH1 0xC0 SHL PUSH2 0x82B JUMP JUMPDEST DUP1 PUSH1 0x0 ADD PUSH1 0x3 SWAP1 SLOAD SWAP1 PUSH2 0x100 EXP SWAP1 DIV PUSH1 0xFF AND DUP1 ISZERO PUSH2 0xB36 JUMPI POP PUSH2 0xB35 PUSH8 0x54E224BA14F72EB7 PUSH1 0xC0 SHL PUSH2 0x401B JUMP JUMPDEST JUMPDEST DUP1 PUSH2 0xB6B JUMPI POP DUP1 PUSH1 0x0 ADD PUSH1 0x4 SWAP1 SLOAD SWAP1 PUSH2 0x100 EXP SWAP1 DIV PUSH1 0xFF AND DUP1 ISZERO PUSH2 0xB6A JUMPI POP PUSH2 0xB69 PUSH8 0x659513FBB6526C4A PUSH1 0xC0 SHL PUSH2 0x401B JUMP JUMPDEST JUMPDEST JUMPDEST ISZERO PUSH2 0xBB6 JUMPI PUSH2 0xB84 PUSH8 0xE413673B6437E1D2 PUSH1 0xC0 SHL PUSH2 0x82B JUMP JUMPDEST PUSH1 0x40 MLOAD PUSH32 0x4A4117F900000000000000000000000000000000000000000000000000000000 DUP2 MSTORE PUSH1 0x4 ADD PUSH1 0x40 MLOAD DUP1 SWAP2 SUB SWAP1 REVERT JUMPDEST PUSH2 0xBCA PUSH8 0x99CFD1FAFA68CEC7 PUSH1 0xC0 SHL PUSH2 0x82B JUMP JUMPDEST PUSH2 0xBDE PUSH8 0x240CDA0EE36EFA9A PUSH1 0xC0 SHL PUSH2 0x82B JUMP JUMPDEST PUSH2 0xBF2 PUSH8 0x8C430A46DAC7810E PUSH1 0xC0 SHL PUSH2 0x82B JUMP JUMPDEST PUSH1 0x0 DUP1 SHL DUP2 PUSH1 0x4 ADD SLOAD EQ PUSH2 0xC46 JUMPI PUSH2 0xC14 PUSH8 0xD106857BF72C1EAE PUSH1 0xC0 SHL PUSH2 0x82B JUMP JUMPDEST PUSH1 0x40 MLOAD PUSH32 0x4A4117F900000000000000000000000000000000000000000000000000000000 DUP2 MSTORE PUSH1 0x4 ADD PUSH1 0x40 MLOAD DUP1 SWAP2 SUB SWAP1 REVERT JUMPDEST PUSH2 0xC5A PUSH8 0xA82E502246C702A6 PUSH1 0xC0 SHL PUSH2 0x82B JUMP JUMPDEST PUSH2 0xC6E PUSH8 0xA5D0F829E67CB7B1 PUSH1 0xC0 SHL PUSH2 0x82B JUMP JUMPDEST DUP2 DUP2 PUSH1 0x4 ADD DUP2 SWAP1 SSTORE POP POP POP POP JUMP JUMPDEST PUSH2 0xC90 PUSH8 0x990012C8FD5ACDD1 PUSH1 0xC0 SHL PUSH2 0x82B JUMP JUMPDEST PUSH2 0xC98 PUSH2 0x4026 JUMP JUMPDEST PUSH2 0xCAC PUSH8 0xC03C51FAA1828C94 PUSH1 0xC0 SHL PUSH2 0x82B JUMP JUMPDEST PUSH2 0xCC0 PUSH8 0x703FE4E2BA613C1F PUSH1 0xC0 SHL PUSH2 0x82B JUMP JUMPDEST PUSH2 0xCC8 PUSH2 0x40AD JUMP JUMPDEST PUSH2 0xCDC PUSH8 0x43F08C9E7C3D31A5 PUSH1 0xC0 SHL PUSH2 0x82B JUMP JUMPDEST PUSH2 0xCF0 PUSH8 0x8F4E26A943A0ED45 PUSH1 0xC0 SHL PUSH2 0x82B JUMP JUMPDEST PUSH2 0xD04 PUSH8 0x5C6AC7652EBFEB8C PUSH1 0xC0 SHL PUSH2 0x82B JUMP JUMPDEST PUSH2 0xD18 PUSH8 0xBD15343AF0077675 PUSH1 0xC0 SHL PUSH2 0x82B JUMP JUMPDEST PUSH1 0x0 PUSH1 0x6 SLOAD SWAP1 POP PUSH2 0xD33 PUSH8 0x5997977326FF331A PUSH1 0xC0 SHL PUSH2 0x82B JUMP JUMPDEST PUSH2 0xD47 PUSH8 0x90D7A893600C4084 PUSH1 0xC0 SHL PUSH2 0x82B JUMP JUMPDEST PUSH1 0x0 DUP2 SUB PUSH2 0xD95 JUMPI PUSH2 0xD63 PUSH8 0x172E71FD7DA8CC4 PUSH1 0xC0 SHL PUSH2 0x82B JUMP JUMPDEST PUSH1 0x40 MLOAD PUSH32 0xE22DD6400000000000000000000000000000000000000000000000000000000 DUP2 MSTORE PUSH1 0x4 ADD PUSH1 0x40 MLOAD DUP1 SWAP2 SUB SWAP1 REVERT JUMPDEST PUSH2 0xDA9 PUSH8 0xC72EB478AB3CE5CC PUSH1 0xC0 SHL PUSH2 0x82B JUMP JUMPDEST PUSH2 0xDBD PUSH8 0x964A9E1FE94C6782 PUSH1 0xC0 SHL PUSH2 0x82B JUMP JUMPDEST PUSH1 0x0 PUSH1 0x6 DUP2 SWAP1 SSTORE POP PUSH2 0xDD9 PUSH8 0x8EE516C9259F579A PUSH1 0xC0 SHL PUSH2 0x82B JUMP JUMPDEST PUSH2 0xDED PUSH8 0x517758B5C2431773 PUSH1 0xC0 SHL PUSH2 0x82B JUMP JUMPDEST PUSH1 0x0 PUSH1 0x8 PUSH1 0x0 SWAP1 SLOAD SWAP1 PUSH2 0x100 EXP SWAP1 DIV PUSH20 0xFFFFFFFFFFFFFFFFFFFFFFFFFFFFFFFFFFFFFFFF AND PUSH20 0xFFFFFFFFFFFFFFFFFFFFFFFFFFFFFFFFFFFFFFFF AND DUP3 PUSH1 0x40 MLOAD PUSH2 0xE35 SWAP1 PUSH2 0x48F3 JUMP JUMPDEST PUSH1 0x0 PUSH1 0x40 MLOAD DUP1 DUP4 SUB DUP2 DUP6 DUP8 GAS CALL SWAP3 POP POP POP RETURNDATASIZE DUP1 PUSH1 0x0 DUP2 EQ PUSH2 0xE72 JUMPI PUSH1 0x40 MLOAD SWAP2 POP PUSH1 0x1F NOT PUSH1 0x3F RETURNDATASIZE ADD AND DUP3 ADD PUSH1 0x40 MSTORE RETURNDATASIZE DUP3 MSTORE RETURNDATASIZE PUSH1 0x0 PUSH1 0x20 DUP5 ADD RETURNDATACOPY PUSH2 0xE77 JUMP JUMPDEST PUSH1 0x60 SWAP2 POP JUMPDEST POP POP SWAP1 POP PUSH2 0xE8F PUSH8 0x2E17AC97DA6B7A15 PUSH1 0xC0 SHL PUSH2 0x82B JUMP JUMPDEST PUSH2 0xEA3 PUSH8 0x6DFC62AE79BB64B6 PUSH1 0xC0 SHL PUSH2 0x82B JUMP JUMPDEST DUP1 PUSH2 0xEEE JUMPI PUSH2 0xEBC PUSH8 0x76B1D6CDE901D51F PUSH1 0xC0 SHL PUSH2 0x82B JUMP JUMPDEST PUSH1 0x40 MLOAD PUSH32 0x90B8EC1800000000000000000000000000000000000000000000000000000000 DUP2 MSTORE PUSH1 0x4 ADD PUSH1 0x40 MLOAD DUP1 SWAP2 SUB SWAP1 REVERT JUMPDEST PUSH2 0xF02 PUSH8 0xEB47E058E3803F19 PUSH1 0xC0 SHL PUSH2 0x82B JUMP JUMPDEST PUSH2 0xF16 PUSH8 0x1DA20CADDD44967 PUSH1 0xC0 SHL PUSH2 0x82B JUMP JUMPDEST PUSH2 0xF2A PUSH8 0x3C8CA905A306E377 PUSH1 0xC0 SHL PUSH2 0x82B JUMP JUMPDEST PUSH32 0x8A6C78A01514E727AD67EC87D74138B9E0D0A82A6C2536101087AB38C1E5D805 DUP3 PUSH1 0x8 PUSH1 0x0 SWAP1 SLOAD SWAP1 PUSH2 0x100 EXP SWAP1 DIV PUSH20 0xFFFFFFFFFFFFFFFFFFFFFFFFFFFFFFFFFFFFFFFF AND PUSH1 0x40 MLOAD PUSH2 0xF7D SWAP3 SWAP2 SWAP1 PUSH2 0x4908 JUMP JUMPDEST PUSH1 0x40 MLOAD DUP1 SWAP2 SUB SWAP1 LOG1 POP POP PUSH2 0xF8F PUSH2 0x40F3 JUMP JUMPDEST JUMP JUMPDEST PUSH2 0xFA5 PUSH8 0x97A774D4B0161DE6 PUSH1 0xC0 SHL PUSH2 0x82B JUMP JUMPDEST PUSH2 0xFAD PUSH2 0x4026 JUMP JUMPDEST PUSH2 0xFC1 PUSH8 0x9330C331A73991D7 PUSH1 0xC0 SHL PUSH2 0x82B JUMP JUMPDEST PUSH2 0xFD5 PUSH8 0x9F39CEDB7482D02C PUSH1 0xC0 SHL PUSH2 0x82B JUMP JUMPDEST PUSH2 0xFE9 PUSH8 0x4142B0DA424CA35E PUSH1 0xC0 SHL PUSH2 0x82B JUMP JUMPDEST PUSH2 0xFFD PUSH8 0x9E2455605D5EF039 PUSH1 0xC0 SHL PUSH2 0x82B JUMP JUMPDEST PUSH1 0x0 PUSH20 0xFFFFFFFFFFFFFFFFFFFFFFFFFFFFFFFFFFFFFFFF AND DUP2 PUSH20 0xFFFFFFFFFFFFFFFFFFFFFFFFFFFFFFFFFFFFFFFF AND SUB PUSH2 0x1077 JUMPI PUSH2 0x1045 PUSH8 0xC806B1A6FD484F61 PUSH1 0xC0 SHL PUSH2 0x82B JUMP JUMPDEST PUSH1 0x40 MLOAD PUSH32 0xE6C4247B00000000000000000000000000000000000000000000000000000000 DUP2 MSTORE PUSH1 0x4 ADD PUSH1 0x40 MLOAD DUP1 SWAP2 SUB SWAP1 REVERT JUMPDEST PUSH2 0x108B PUSH8 0xF1D85BE809BE3BD6 PUSH1 0xC0 SHL PUSH2 0x82B JUMP JUMPDEST PUSH2 0x109F PUSH8 0x37CBAFCD5FB50361 PUSH1 0xC0 SHL PUSH2 0x82B JUMP JUMPDEST PUSH1 0x1 PUSH1 0xB PUSH1 0x0 DUP4 PUSH20 0xFFFFFFFFFFFFFFFFFFFFFFFFFFFFFFFFFFFFFFFF AND PUSH20 0xFFFFFFFFFFFFFFFFFFFFFFFFFFFFFFFFFFFFFFFF AND DUP2 MSTORE PUSH1 0x20 ADD SWAP1 DUP2 MSTORE PUSH1 0x20 ADD PUSH1 0x0 KECCAK256 PUSH1 0x0 PUSH2 0x100 EXP DUP2 SLOAD DUP2 PUSH1 0xFF MUL NOT AND SWAP1 DUP4 ISZERO ISZERO MUL OR SWAP1 SSTORE POP PUSH2 0x110B PUSH8 0xA074685EE2A48C4B PUSH1 0xC0 SHL PUSH2 0x82B JUMP JUMPDEST PUSH2 0x111F PUSH8 0x691579ADD15831AA PUSH1 0xC0 SHL PUSH2 0x82B JUMP JUMPDEST DUP1 PUSH20 0xFFFFFFFFFFFFFFFFFFFFFFFFFFFFFFFFFFFFFFFF AND PUSH32 0x4D30243D3DD420952FE6994A84EF13D7EDA0EB94F3DA88F506D050B518BFA3CE PUSH1 0x40 MLOAD PUSH1 0x40 MLOAD DUP1 SWAP2 SUB SWAP1 LOG2 POP JUMP JUMPDEST PUSH1 0x6 SLOAD DUP2 JUMP JUMPDEST PUSH2 0x117F PUSH8 0xE208CD39BB6B9C4F PUSH1 0xC0 SHL PUSH2 0x82B JUMP JUMPDEST PUSH2 0x1187 PUSH2 0x4026 JUMP JUMPDEST PUSH2 0x119B PUSH8 0xB804997D1F62433A PUSH1 0xC0 SHL PUSH2 0x82B JUMP JUMPDEST PUSH2 0x11AF PUSH8 0xA09E16C64345326 PUSH1 0xC0 SHL PUSH2 0x82B JUMP JUMPDEST PUSH2 0x11B7 PUSH2 0x40AD JUMP JUMPDEST PUSH2 0x11CB PUSH8 0x696B2E9264EBCCF9 PUSH1 0xC0 SHL PUSH2 0x82B JUMP JUMPDEST PUSH2 0x11DF PUSH8 0x2BAA1675F2703101 PUSH1 0xC0 SHL PUSH2 0x82B JUMP JUMPDEST PUSH2 0x11F3 PUSH8 0x40902E84CC7A30B2 PUSH1 0xC0 SHL PUSH2 0x82B JUMP JUMPDEST PUSH2 0x1207 PUSH8 0xE2AC498A5D3DDC50 PUSH1 0xC0 SHL PUSH2 0x82B JUMP JUMPDEST PUSH1 0x0 DUP3 DUP3 SWAP1 POP SWAP1 POP PUSH2 0x1223 PUSH8 0x78601624C4FB65AF PUSH1 0xC0 SHL PUSH2 0x82B JUMP JUMPDEST PUSH2 0x1237 PUSH8 0x9967474DCB24FC4B PUSH1 0xC0 SHL PUSH2 0x82B JUMP JUMPDEST PUSH1 0x0 JUMPDEST DUP2 DUP2 LT ISZERO PUSH2 0x1511 JUMPI PUSH2 0x1256 PUSH8 0xA5D4F405F91902C PUSH1 0xC0 SHL PUSH2 0x82B JUMP JUMPDEST PUSH2 0x126A PUSH8 0x36A78C02C2AA25B8 PUSH1 0xC0 SHL PUSH2 0x82B JUMP JUMPDEST PUSH1 0x0 DUP5 DUP5 DUP4 DUP2 DUP2 LT PUSH2 0x127F JUMPI PUSH2 0x127E PUSH2 0x4931 JUMP JUMPDEST JUMPDEST SWAP1 POP PUSH1 0x20 MUL ADD PUSH1 0x20 DUP2 ADD SWAP1 PUSH2 0x1294 SWAP2 SWAP1 PUSH2 0x4444 JUMP JUMPDEST SWAP1 POP PUSH2 0x12AA PUSH8 0x97D96596D666E5B6 PUSH1 0xC0 SHL PUSH2 0x82B JUMP JUMPDEST PUSH2 0x12BE PUSH8 0x734E7AC90C38C5EE PUSH1 0xC0 SHL PUSH2 0x82B JUMP JUMPDEST PUSH1 0x0 PUSH1 0xC PUSH1 0x0 DUP4 PUSH20 0xFFFFFFFFFFFFFFFFFFFFFFFFFFFFFFFFFFFFFFFF AND PUSH20 0xFFFFFFFFFFFFFFFFFFFFFFFFFFFFFFFFFFFFFFFF AND DUP2 MSTORE PUSH1 0x20 ADD SWAP1 DUP2 MSTORE PUSH1 0x20 ADD PUSH1 0x0 KECCAK256 SLOAD SWAP1 POP PUSH2 0x1316 PUSH8 0xA3B2C2CF44DEB832 PUSH1 0xC0 SHL PUSH2 0x82B JUMP JUMPDEST PUSH2 0x132A PUSH8 0xAD76198271554332 PUSH1 0xC0 SHL PUSH2 0x82B JUMP JUMPDEST PUSH1 0x0 DUP2 GT ISZERO PUSH2 0x14ED JUMPI PUSH2 0x1347 PUSH8 0xB60737195EDBBC5 PUSH1 0xC0 SHL PUSH2 0x82B JUMP JUMPDEST PUSH2 0x135B PUSH8 0xBD9DDD558393994C PUSH1 0xC0 SHL PUSH2 0x82B JUMP JUMPDEST PUSH1 0x0 PUSH1 0xC PUSH1 0x0 DUP5 PUSH20 0xFFFFFFFFFFFFFFFFFFFFFFFFFFFFFFFFFFFFFFFF AND PUSH20 0xFFFFFFFFFFFFFFFFFFFFFFFFFFFFFFFFFFFFFFFF AND DUP2 MSTORE PUSH1 0x20 ADD SWAP1 DUP2 MSTORE PUSH1 0x20 ADD PUSH1 0x0 KECCAK256 DUP2 SWAP1 SSTORE POP PUSH2 0x13B4 PUSH8 0x9F333116491CA18 PUSH1 0xC0 SHL PUSH2 0x82B JUMP JUMPDEST PUSH2 0x13C8 PUSH8 0x1DBF7AC0C8925F8B PUSH1 0xC0 SHL PUSH2 0x82B JUMP JUMPDEST PUSH1 0x0 DUP3 PUSH20 0xFFFFFFFFFFFFFFFFFFFFFFFFFFFFFFFFFFFFFFFF AND DUP3 PUSH1 0x40 MLOAD PUSH2 0x13EE SWAP1 PUSH2 0x48F3 JUMP JUMPDEST PUSH1 0x0 PUSH1 0x40 MLOAD DUP1 DUP4 SUB DUP2 DUP6 DUP8 GAS CALL SWAP3 POP POP POP RETURNDATASIZE DUP1 PUSH1 0x0 DUP2 EQ PUSH2 0x142B JUMPI PUSH1 0x40 MLOAD SWAP2 POP PUSH1 0x1F NOT PUSH1 0x3F RETURNDATASIZE ADD AND DUP3 ADD PUSH1 0x40 MSTORE RETURNDATASIZE DUP3 MSTORE RETURNDATASIZE PUSH1 0x0 PUSH1 0x20 DUP5 ADD RETURNDATACOPY PUSH2 0x1430 JUMP JUMPDEST PUSH1 0x60 SWAP2 POP JUMPDEST POP POP SWAP1 POP PUSH2 0x1448 PUSH8 0x73DB37F1BCA09E5F PUSH1 0xC0 SHL PUSH2 0x82B JUMP JUMPDEST PUSH2 0x145C PUSH8 0x91E990F5F74FE80D PUSH1 0xC0 SHL PUSH2 0x82B JUMP JUMPDEST DUP1 PUSH2 0x14D2 JUMPI PUSH2 0x1475 PUSH8 0x2E4C965B547C6BB1 PUSH1 0xC0 SHL PUSH2 0x82B JUMP JUMPDEST PUSH2 0x1489 PUSH8 0x6D98657698760333 PUSH1 0xC0 SHL PUSH2 0x82B JUMP JUMPDEST DUP2 PUSH1 0xC PUSH1 0x0 DUP6 PUSH20 0xFFFFFFFFFFFFFFFFFFFFFFFFFFFFFFFFFFFFFFFF AND PUSH20 0xFFFFFFFFFFFFFFFFFFFFFFFFFFFFFFFFFFFFFFFF AND DUP2 MSTORE PUSH1 0x20 ADD SWAP1 DUP2 MSTORE PUSH1 0x20 ADD PUSH1 0x0 KECCAK256 DUP2 SWAP1 SSTORE POP PUSH2 0x14E7 JUMP JUMPDEST PUSH2 0x14E6 PUSH8 0x36F50A250E08C7E4 PUSH1 0xC0 SHL PUSH2 0x82B JUMP JUMPDEST JUMPDEST POP PUSH2 0x1502 JUMP JUMPDEST PUSH2 0x1501 PUSH8 0x57A0FF9E446D74F PUSH1 0xC0 SHL PUSH2 0x82B JUMP JUMPDEST JUMPDEST POP POP DUP1 DUP1 PUSH1 0x1 ADD SWAP2 POP POP PUSH2 0x123A JUMP JUMPDEST POP POP PUSH2 0x151B PUSH2 0x40F3 JUMP JUMPDEST POP POP JUMP JUMPDEST PUSH2 0x1533 PUSH8 0xE69320CD79BD5A88 PUSH1 0xC0 SHL PUSH2 0x82B JUMP JUMPDEST PUSH2 0x153B PUSH2 0x4026 JUMP JUMPDEST PUSH2 0x154F PUSH8 0xDC9048DE94456FD PUSH1 0xC0 SHL PUSH2 0x82B JUMP JUMPDEST PUSH2 0x1563 PUSH8 0xA9114E2FF4EBD68C PUSH1 0xC0 SHL PUSH2 0x82B JUMP JUMPDEST PUSH2 0x1577 PUSH8 0x6A366AC471B631C PUSH1 0xC0 SHL PUSH2 0x82B JUMP JUMPDEST PUSH2 0x158B PUSH8 0x36859014961D3CCE PUSH1 0xC0 SHL PUSH2 0x82B JUMP JUMPDEST PUSH2 0x1593 PUSH2 0x40FC JUMP JUMPDEST JUMP JUMPDEST PUSH7 0x110D9316EC000 DUP2 JUMP JUMPDEST PUSH1 0x5 SLOAD DUP2 JUMP JUMPDEST PUSH1 0x3 SLOAD DUP2 JUMP JUMPDEST PUSH1 0x0 DUP1 PUSH1 0x14 SWAP1 SLOAD SWAP1 PUSH2 0x100 EXP SWAP1 DIV PUSH1 0xFF AND SWAP1 POP SWAP1 JUMP JUMPDEST PUSH2 0x15D6 PUSH8 0x31B323A62E59B090 PUSH1 0xC0 SHL PUSH2 0x82B JUMP JUMPDEST PUSH2 0x15DE PUSH2 0x40AD JUMP JUMPDEST PUSH2 0x15F2 PUSH8 0xDB97F1F4EE67797C PUSH1 0xC0 SHL PUSH2 0x82B JUMP JUMPDEST PUSH2 0x1606 PUSH8 0xA83E85B244EDD03E PUSH1 0xC0 SHL PUSH2 0x82B JUMP JUMPDEST PUSH2 0x161A PUSH8 0x2F7E496C908F94D2 PUSH1 0xC0 SHL PUSH2 0x82B JUMP JUMPDEST PUSH2 0x162E PUSH8 0x130DE8DCE4E93134 PUSH1 0xC0 SHL PUSH2 0x82B JUMP JUMPDEST PUSH1 0x0 PUSH1 0xC PUSH1 0x0 CALLER PUSH20 0xFFFFFFFFFFFFFFFFFFFFFFFFFFFFFFFFFFFFFFFF AND PUSH20 0xFFFFFFFFFFFFFFFFFFFFFFFFFFFFFFFFFFFFFFFF AND DUP2 MSTORE PUSH1 0x20 ADD SWAP1 DUP2 MSTORE PUSH1 0x20 ADD PUSH1 0x0 KECCAK256 SLOAD SWAP1 POP PUSH2 0x1686 PUSH8 0xF5FD52BD1FA49750 PUSH1 0xC0 SHL PUSH2 0x82B JUMP JUMPDEST PUSH2 0x169A PUSH8 0xE7E970C61C53253F PUSH1 0xC0 SHL PUSH2 0x82B JUMP JUMPDEST PUSH1 0x0 DUP2 SUB PUSH2 0x16E8 JUMPI PUSH2 0x16B6 PUSH8 0xCB50C1B9B83F1DCD PUSH1 0xC0 SHL PUSH2 0x82B JUMP JUMPDEST PUSH1 0x40 MLOAD PUSH32 0xE22DD6400000000000000000000000000000000000000000000000000000000 DUP2 MSTORE PUSH1 0x4 ADD PUSH1 0x40 MLOAD DUP1 SWAP2 SUB SWAP1 REVERT JUMPDEST PUSH2 0x16FC PUSH8 0xA19D658709D2DAED PUSH1 0xC0 SHL PUSH2 0x82B JUMP JUMPDEST PUSH2 0x1710 PUSH8 0xB80CA5E26F192EBF PUSH1 0xC0 SHL PUSH2 0x82B JUMP JUMPDEST PUSH1 0x0 PUSH1 0xC PUSH1 0x0 CALLER PUSH20 0xFFFFFFFFFFFFFFFFFFFFFFFFFFFFFFFFFFFFFFFF AND PUSH20 0xFFFFFFFFFFFFFFFFFFFFFFFFFFFFFFFFFFFFFFFF AND DUP2 MSTORE PUSH1 0x20 ADD SWAP1 DUP2 MSTORE PUSH1 0x20 ADD PUSH1 0x0 KECCAK256 DUP2 SWAP1 SSTORE POP PUSH2 0x1769 PUSH8 0x14109F29A9944BB4 PUSH1 0xC0 SHL PUSH2 0x82B JUMP JUMPDEST PUSH2 0x177D PUSH8 0x48FE53ED9905A498 PUSH1 0xC0 SHL PUSH2 0x82B JUMP JUMPDEST PUSH1 0x0 CALLER PUSH20 0xFFFFFFFFFFFFFFFFFFFFFFFFFFFFFFFFFFFFFFFF AND DUP3 PUSH1 0x40 MLOAD PUSH2 0x17A3 SWAP1 PUSH2 0x48F3 JUMP JUMPDEST PUSH1 0x0 PUSH1 0x40 MLOAD DUP1 DUP4 SUB DUP2 DUP6 DUP8 GAS CALL SWAP3 POP POP POP RETURNDATASIZE DUP1 PUSH1 0x0 DUP2 EQ PUSH2 0x17E0 JUMPI PUSH1 0x40 MLOAD SWAP2 POP PUSH1 0x1F NOT PUSH1 0x3F RETURNDATASIZE ADD AND DUP3 ADD PUSH1 0x40 MSTORE RETURNDATASIZE DUP3 MSTORE RETURNDATASIZE PUSH1 0x0 PUSH1 0x20 DUP5 ADD RETURNDATACOPY PUSH2 0x17E5 JUMP JUMPDEST PUSH1 0x60 SWAP2 POP JUMPDEST POP POP SWAP1 POP PUSH2 0x17FD PUSH8 0x198490E72D861655 PUSH1 0xC0 SHL PUSH2 0x82B JUMP JUMPDEST PUSH2 0x1811 PUSH8 0x73C0D3A6E3E93E73 PUSH1 0xC0 SHL PUSH2 0x82B JUMP JUMPDEST DUP1 PUSH2 0x185C JUMPI PUSH2 0x182A PUSH8 0x4942A51A21093875 PUSH1 0xC0 SHL PUSH2 0x82B JUMP JUMPDEST PUSH1 0x40 MLOAD PUSH32 0x90B8EC1800000000000000000000000000000000000000000000000000000000 DUP2 MSTORE PUSH1 0x4 ADD PUSH1 0x40 MLOAD DUP1 SWAP2 SUB SWAP1 REVERT JUMPDEST PUSH2 0x1870 PUSH8 0x51AA78AAE237FCDB PUSH1 0xC0 SHL PUSH2 0x82B JUMP JUMPDEST POP POP PUSH2 0x187A PUSH2 0x40F3 JUMP JUMPDEST JUMP JUMPDEST PUSH1 0x8 PUSH1 0x0 SWAP1 SLOAD SWAP1 PUSH2 0x100 EXP SWAP1 DIV PUSH20 0xFFFFFFFFFFFFFFFFFFFFFFFFFFFFFFFFFFFFFFFF AND DUP2 JUMP JUMPDEST PUSH1 0xB PUSH1 0x20 MSTORE DUP1 PUSH1 0x0 MSTORE PUSH1 0x40 PUSH1 0x0 KECCAK256 PUSH1 0x0 SWAP2 POP SLOAD SWAP1 PUSH2 0x100 EXP SWAP1 DIV PUSH1 0xFF AND DUP2 JUMP JUMPDEST PUSH2 0x18CA PUSH2 0x4026 JUMP JUMPDEST PUSH2 0x18D4 PUSH1 0x0 PUSH2 0x415E JUMP JUMPDEST JUMP JUMPDEST PUSH2 0x18EA PUSH8 0x9E5EDFFB9E910073 PUSH1 0xC0 SHL PUSH2 0x82B JUMP JUMPDEST PUSH2 0x18F2 PUSH2 0x4026 JUMP JUMPDEST PUSH2 0x1906 PUSH8 0xB9BDA6F042265C9A PUSH1 0xC0 SHL PUSH2 0x82B JUMP JUMPDEST PUSH2 0x191A PUSH8 0xD92BD80762F9DCFB PUSH1 0xC0 SHL PUSH2 0x82B JUMP JUMPDEST PUSH2 0x192E PUSH8 0xAF54B8E20C2276F8 PUSH1 0xC0 SHL PUSH2 0x82B JUMP JUMPDEST PUSH2 0x1942 PUSH8 0x94437FE7B175B819 PUSH1 0xC0 SHL PUSH2 0x82B JUMP JUMPDEST PUSH1 0x0 PUSH20 0xFFFFFFFFFFFFFFFFFFFFFFFFFFFFFFFFFFFFFFFF AND DUP2 PUSH20 0xFFFFFFFFFFFFFFFFFFFFFFFFFFFFFFFFFFFFFFFF AND SUB PUSH2 0x19BC JUMPI PUSH2 0x198A PUSH8 0xB86889FF6DD6118E PUSH1 0xC0 SHL PUSH2 0x82B JUMP JUMPDEST PUSH1 0x40 MLOAD PUSH32 0xE6C4247B00000000000000000000000000000000000000000000000000000000 DUP2 MSTORE PUSH1 0x4 ADD PUSH1 0x40 MLOAD DUP1 SWAP2 SUB SWAP1 REVERT JUMPDEST PUSH2 0x19D0 PUSH8 0x4BE82B2DF08E25AC PUSH1 0xC0 SHL PUSH2 0x82B JUMP JUMPDEST PUSH2 0x19E4 PUSH8 0x8F0A0B7D52446FB6 PUSH1 0xC0 SHL PUSH2 0x82B JUMP JUMPDEST PUSH2 0x19F8 PUSH8 0x869FBC30A62795A PUSH1 0xC0 SHL PUSH2 0x82B JUMP JUMPDEST PUSH1 0x0 PUSH1 0x8 PUSH1 0x0 SWAP1 SLOAD SWAP1 PUSH2 0x100 EXP SWAP1 DIV PUSH20 0xFFFFFFFFFFFFFFFFFFFFFFFFFFFFFFFFFFFFFFFF AND SWAP1 POP PUSH2 0x1A33 PUSH8 0x8DCBE4135BDEA44B PUSH1 0xC0 SHL PUSH2 0x82B JUMP JUMPDEST DUP2 PUSH1 0x8 PUSH1 0x0 PUSH2 0x100 EXP DUP2 SLOAD DUP2 PUSH20 0xFFFFFFFFFFFFFFFFFFFFFFFFFFFFFFFFFFFFFFFF MUL NOT AND SWAP1 DUP4 PUSH20 0xFFFFFFFFFFFFFFFFFFFFFFFFFFFFFFFFFFFFFFFF AND MUL OR SWAP1 SSTORE POP PUSH2 0x1A87 PUSH7 0x906216DE7B889A PUSH1 0xC0 SHL PUSH2 0x82B JUMP JUMPDEST PUSH2 0x1A9B PUSH8 0xD80B433899798C47 PUSH1 0xC0 SHL PUSH2 0x82B JUMP JUMPDEST DUP2 PUSH20 0xFFFFFFFFFFFFFFFFFFFFFFFFFFFFFFFFFFFFFFFF AND DUP2 PUSH20 0xFFFFFFFFFFFFFFFFFFFFFFFFFFFFFFFFFFFFFFFF AND PUSH32 0x4AB5BE82436D353E61CA18726E984E561F5C1CC7C6D38B29D2553C790434705A PUSH1 0x40 MLOAD PUSH1 0x40 MLOAD DUP1 SWAP2 SUB SWAP1 LOG3 POP POP JUMP JUMPDEST PUSH2 0x1B0D PUSH8 0xDFEE9EC57C7E6F11 PUSH1 0xC0 SHL PUSH2 0x82B JUMP JUMPDEST PUSH2 0x1B15 PUSH2 0x4026 JUMP JUMPDEST PUSH2 0x1B29 PUSH8 0x6C116CD925298DE7 PUSH1 0xC0 SHL PUSH2 0x82B JUMP JUMPDEST PUSH2 0x1B3D PUSH8 0x28BC85ADDE0F6AE1 PUSH1 0xC0 SHL PUSH2 0x82B JUMP JUMPDEST PUSH2 0x1B51 PUSH8 0x8909CF69C069ADA7 PUSH1 0xC0 SHL PUSH2 0x82B JUMP JUMPDEST PUSH2 0x1B65 PUSH8 0x3CF4B5D78D1271B2 PUSH1 0xC0 SHL PUSH2 0x82B JUMP JUMPDEST PUSH2 0x1B6D PUSH2 0x4222 JUMP JUMPDEST JUMP JUMPDEST PUSH1 0x7 SLOAD DUP2 JUMP JUMPDEST PUSH1 0x0 PUSH2 0x1B8B PUSH8 0xF78BD573CDDFA8B5 PUSH1 0xC0 SHL PUSH2 0x82B JUMP JUMPDEST PUSH2 0x1B9F PUSH8 0x308D4C634E7BEDCC PUSH1 0xC0 SHL PUSH2 0x82B JUMP JUMPDEST PUSH2 0x1BB3 PUSH8 0x4F76E000E852B116 PUSH1 0xC0 SHL PUSH2 0x82B JUMP JUMPDEST PUSH1 0x0 DUP3 EQ DUP1 ISZERO PUSH2 0x1BD3 JUMPI POP PUSH2 0x1BD2 PUSH8 0x3C0C65B0244773CA PUSH1 0xC0 SHL PUSH2 0x401B JUMP JUMPDEST JUMPDEST DUP1 PUSH2 0x1BFB JUMPI POP PUSH1 0x3 SLOAD DUP3 GT DUP1 ISZERO PUSH2 0x1BFA JUMPI POP PUSH2 0x1BF9 PUSH8 0xF9A4C57DE2A7863F PUSH1 0xC0 SHL PUSH2 0x401B JUMP JUMPDEST JUMPDEST JUMPDEST ISZERO PUSH2 0x1C46 JUMPI PUSH2 0x1C14 PUSH8 0xF6D17C771E1E2922 PUSH1 0xC0 SHL PUSH2 0x82B JUMP JUMPDEST PUSH1 0x40 MLOAD PUSH32 0xBA0514C000000000000000000000000000000000000000000000000000000000 DUP2 MSTORE PUSH1 0x4 ADD PUSH1 0x40 MLOAD DUP1 SWAP2 SUB SWAP1 REVERT JUMPDEST PUSH2 0x1C5A PUSH8 0x44AA42B02AAF3F17 PUSH1 0xC0 SHL PUSH2 0x82B JUMP JUMPDEST PUSH2 0x1C6E PUSH8 0x5E32A9C859353315 PUSH1 0xC0 SHL PUSH2 0x82B JUMP JUMPDEST PUSH2 0x1C82 PUSH8 0xC0C875AD06AFB777 PUSH1 0xC0 SHL PUSH2 0x82B JUMP JUMPDEST PUSH1 0x0 PUSH1 0x9 PUSH1 0x0 DUP5 DUP2 MSTORE PUSH1 0x20 ADD SWAP1 DUP2 MSTORE PUSH1 0x20 ADD PUSH1 0x0 KECCAK256 SWAP1 POP PUSH2 0x1CAD PUSH8 0x4C393A019426F0AA PUSH1 0xC0 SHL PUSH2 0x82B JUMP JUMPDEST PUSH2 0x1CC1 PUSH8 0xDEFA43A0C05EEF6 PUSH1 0xC0 SHL PUSH2 0x82B JUMP JUMPDEST DUP1 PUSH1 0x0 ADD PUSH1 0x3 SWAP1 SLOAD SWAP1 PUSH2 0x100 EXP SWAP1 DIV PUSH1 0xFF AND PUSH2 0x1D1D JUMPI PUSH2 0x1CEB PUSH8 0xFB78D48978323E93 PUSH1 0xC0 SHL PUSH2 0x82B JUMP JUMPDEST PUSH1 0x40 MLOAD PUSH32 0x7BC6C3E00000000000000000000000000000000000000000000000000000000 DUP2 MSTORE PUSH1 0x4 ADD PUSH1 0x40 MLOAD DUP1 SWAP2 SUB SWAP1 REVERT JUMPDEST PUSH2 0x1D31 PUSH8 0xCEFE3B5E9BB7EA6D PUSH1 0xC0 SHL PUSH2 0x82B JUMP JUMPDEST PUSH2 0x1D45 PUSH8 0x7218B3AB12FD921E PUSH1 0xC0 SHL PUSH2 0x82B JUMP JUMPDEST PUSH2 0x1D59 PUSH8 0x8AB43ED58E19E35A PUSH1 0xC0 SHL PUSH2 0x82B JUMP JUMPDEST CALLER PUSH20 0xFFFFFFFFFFFFFFFFFFFFFFFFFFFFFFFFFFFFFFFF AND DUP2 PUSH1 0x0 ADD PUSH1 0x5 SWAP1 SLOAD SWAP1 PUSH2 0x100 EXP SWAP1 DIV PUSH20 0xFFFFFFFFFFFFFFFFFFFFFFFFFFFFFFFFFFFFFFFF AND PUSH20 0xFFFFFFFFFFFFFFFFFFFFFFFFFFFFFFFFFFFFFFFF AND EQ DUP1 PUSH2 0x1DE9 JUMPI POP PUSH2 0x1DBA PUSH2 0x21DE JUMP JUMPDEST PUSH20 0xFFFFFFFFFFFFFFFFFFFFFFFFFFFFFFFFFFFFFFFF AND CALLER PUSH20 0xFFFFFFFFFFFFFFFFFFFFFFFFFFFFFFFFFFFFFFFF AND EQ JUMPDEST PUSH2 0x1E33 JUMPI PUSH2 0x1E01 PUSH8 0xE5154855AE0CFD2E PUSH1 0xC0 SHL PUSH2 0x82B JUMP JUMPDEST PUSH1 0x40 MLOAD PUSH32 0xEA8E4EB500000000000000000000000000000000000000000000000000000000 DUP2 MSTORE PUSH1 0x4 ADD PUSH1 0x40 MLOAD DUP1 SWAP2 SUB SWAP1 REVERT JUMPDEST PUSH2 0x1E47 PUSH8 0xC840A48303D7AE9A PUSH1 0xC0 SHL PUSH2 0x82B JUMP JUMPDEST PUSH2 0x1E5B PUSH8 0x7331FD3FA5110959 PUSH1 0xC0 SHL PUSH2 0x82B JUMP JUMPDEST PUSH2 0x1E6F PUSH8 0x1A5EFAD98AF1EF4D PUSH1 0xC0 SHL PUSH2 0x82B JUMP JUMPDEST DUP1 PUSH1 0x5 ADD SLOAD SWAP2 POP POP SWAP2 SWAP1 POP JUMP JUMPDEST PUSH2 0x1E90 PUSH8 0x14EF289706A560F5 PUSH1 0xC0 SHL PUSH2 0x82B JUMP JUMPDEST PUSH2 0x1E98 PUSH2 0x4026 JUMP JUMPDEST PUSH2 0x1EAC PUSH8 0xFBFD14956CEE0C6D PUSH1 0xC0 SHL PUSH2 0x82B JUMP JUMPDEST PUSH2 0x1EC0 PUSH8 0x4E54735218FA6D4 PUSH1 0xC0 SHL PUSH2 0x82B JUMP JUMPDEST PUSH2 0x1EC8 PUSH2 0x40AD JUMP JUMPDEST PUSH2 0x1EDC PUSH8 0xCE081C7E3FC8977D PUSH1 0xC0 SHL PUSH2 0x82B JUMP JUMPDEST PUSH2 0x1EF0 PUSH8 0x6AF4067EFB721A9F PUSH1 0xC0 SHL PUSH2 0x82B JUMP JUMPDEST PUSH2 0x1F04 PUSH8 0xD57C646E893456D4 PUSH1 0xC0 SHL PUSH2 0x82B JUMP JUMPDEST PUSH2 0x1F18 PUSH8 0x6D766BC90724274 PUSH1 0xC0 SHL PUSH2 0x82B JUMP JUMPDEST PUSH1 0x0 PUSH1 0x7 SLOAD SWAP1 POP PUSH2 0x1F33 PUSH8 0x2FF917471E3B7D04 PUSH1 0xC0 SHL PUSH2 0x82B JUMP JUMPDEST PUSH2 0x1F47 PUSH8 0xFFFAB99F461080D5 PUSH1 0xC0 SHL PUSH2 0x82B JUMP JUMPDEST PUSH1 0x0 DUP2 SUB PUSH2 0x1F95 JUMPI PUSH2 0x1F63 PUSH8 0xED1E3730B823FA2D PUSH1 0xC0 SHL PUSH2 0x82B JUMP JUMPDEST PUSH1 0x40 MLOAD PUSH32 0xE22DD6400000000000000000000000000000000000000000000000000000000 DUP2 MSTORE PUSH1 0x4 ADD PUSH1 0x40 MLOAD DUP1 SWAP2 SUB SWAP1 REVERT JUMPDEST PUSH2 0x1FA9 PUSH8 0x3CD8473C1FF838B1 PUSH1 0xC0 SHL PUSH2 0x82B JUMP JUMPDEST PUSH2 0x1FBD PUSH8 0x32C2E6CE65FDBF6 PUSH1 0xC0 SHL PUSH2 0x82B JUMP JUMPDEST PUSH1 0x0 PUSH1 0x7 DUP2 SWAP1 SSTORE POP PUSH2 0x1FD9 PUSH8 0x82E4FD2B1E1834FA PUSH1 0xC0 SHL PUSH2 0x82B JUMP JUMPDEST PUSH2 0x1FED PUSH8 0xAA9F53CBB31228A1 PUSH1 0xC0 SHL PUSH2 0x82B JUMP JUMPDEST PUSH1 0x0 PUSH1 0x8 PUSH1 0x0 SWAP1 SLOAD SWAP1 PUSH2 0x100 EXP SWAP1 DIV PUSH20 0xFFFFFFFFFFFFFFFFFFFFFFFFFFFFFFFFFFFFFFFF AND PUSH20 0xFFFFFFFFFFFFFFFFFFFFFFFFFFFFFFFFFFFFFFFF AND DUP3 PUSH1 0x40 MLOAD PUSH2 0x2035 SWAP1 PUSH2 0x48F3 JUMP JUMPDEST PUSH1 0x0 PUSH1 0x40 MLOAD DUP1 DUP4 SUB DUP2 DUP6 DUP8 GAS CALL SWAP3 POP POP POP RETURNDATASIZE DUP1 PUSH1 0x0 DUP2 EQ PUSH2 0x2072 JUMPI PUSH1 0x40 MLOAD SWAP2 POP PUSH1 0x1F NOT PUSH1 0x3F RETURNDATASIZE ADD AND DUP3 ADD PUSH1 0x40 MSTORE RETURNDATASIZE DUP3 MSTORE RETURNDATASIZE PUSH1 0x0 PUSH1 0x20 DUP5 ADD RETURNDATACOPY PUSH2 0x2077 JUMP JUMPDEST PUSH1 0x60 SWAP2 POP JUMPDEST POP POP SWAP1 POP PUSH2 0x208F PUSH8 0xFE27FBABA068B60E PUSH1 0xC0 SHL PUSH2 0x82B JUMP JUMPDEST PUSH2 0x20A3 PUSH8 0x9C13C5C757E96792 PUSH1 0xC0 SHL PUSH2 0x82B JUMP JUMPDEST DUP1 PUSH2 0x20EE JUMPI PUSH2 0x20BC PUSH8 0xF3927A21B21C7064 PUSH1 0xC0 SHL PUSH2 0x82B JUMP JUMPDEST PUSH1 0x40 MLOAD PUSH32 0x90B8EC1800000000000000000000000000000000000000000000000000000000 DUP2 MSTORE PUSH1 0x4 ADD PUSH1 0x40 MLOAD DUP1 SWAP2 SUB SWAP1 REVERT JUMPDEST PUSH2 0x2102 PUSH8 0xF8B24154AF11E8E PUSH1 0xC0 SHL PUSH2 0x82B JUMP JUMPDEST PUSH2 0x2116 PUSH8 0x1599191E6A409D13 PUSH1 0xC0 SHL PUSH2 0x82B JUMP JUMPDEST PUSH2 0x212A PUSH8 0xF0D5CDC68616ED55 PUSH1 0xC0 SHL PUSH2 0x82B JUMP JUMPDEST PUSH32 0x8A6C78A01514E727AD67EC87D74138B9E0D0A82A6C2536101087AB38C1E5D805 DUP3 PUSH1 0x8 PUSH1 0x0 SWAP1 SLOAD SWAP1 PUSH2 0x100 EXP SWAP1 DIV PUSH20 0xFFFFFFFFFFFFFFFFFFFFFFFFFFFFFFFFFFFFFFFF AND PUSH1 0x40 MLOAD PUSH2 0x217D SWAP3 SWAP2 SWAP1 PUSH2 0x4908 JUMP JUMPDEST PUSH1 0x40 MLOAD DUP1 SWAP2 SUB SWAP1 LOG1 POP POP PUSH2 0x218F PUSH2 0x40F3 JUMP JUMPDEST JUMP JUMPDEST PUSH1 0x0 PUSH2 0x21A7 PUSH8 0x571A6518108B9F7A PUSH1 0xC0 SHL PUSH2 0x82B JUMP JUMPDEST PUSH2 0x21BB PUSH8 0x3DD358E4A6F05F8F PUSH1 0xC0 SHL PUSH2 0x82B JUMP JUMPDEST PUSH2 0x21CF PUSH8 0xB2DB26EB52234437 PUSH1 0xC0 SHL PUSH2 0x82B JUMP JUMPDEST PUSH7 0x110D9316EC000 SWAP1 POP SWAP2 SWAP1 POP JUMP JUMPDEST PUSH1 0x0 DUP1 PUSH1 0x0 SWAP1 SLOAD SWAP1 PUSH2 0x100 EXP SWAP1 DIV PUSH20 0xFFFFFFFFFFFFFFFFFFFFFFFFFFFFFFFFFFFFFFFF AND SWAP1 POP SWAP1 JUMP JUMPDEST PUSH1 0x0 PUSH2 0x221D PUSH8 0xA75247766393971B PUSH1 0xC0 SHL PUSH2 0x82B JUMP JUMPDEST PUSH2 0x2231 PUSH8 0x2073D08D94AB4632 PUSH1 0xC0 SHL PUSH2 0x82B JUMP JUMPDEST PUSH2 0x2245 PUSH8 0x6A72B81BA3873C43 PUSH1 0xC0 SHL PUSH2 0x82B JUMP JUMPDEST PUSH1 0xC PUSH1 0x0 DUP4 PUSH20 0xFFFFFFFFFFFFFFFFFFFFFFFFFFFFFFFFFFFFFFFF AND PUSH20 0xFFFFFFFFFFFFFFFFFFFFFFFFFFFFFFFFFFFFFFFF AND DUP2 MSTORE PUSH1 0x20 ADD SWAP1 DUP2 MSTORE PUSH1 0x20 ADD PUSH1 0x0 KECCAK256 SLOAD SWAP1 POP SWAP2 SWAP1 POP JUMP JUMPDEST PUSH2 0x22A0 PUSH8 0x94B5AB792CE4E654 PUSH1 0xC0 SHL PUSH2 0x82B JUMP JUMPDEST PUSH2 0x22A8 PUSH2 0x3FDA JUMP JUMPDEST PUSH2 0x22BC PUSH8 0x37ECD48F5AD7CEE8 PUSH1 0xC0 SHL PUSH2 0x82B JUMP JUMPDEST PUSH2 0x22D0 PUSH8 0x6CA4F6361C09404F PUSH1 0xC0 SHL PUSH2 0x82B JUMP JUMPDEST PUSH2 0x22D8 PUSH2 0x40AD JUMP JUMPDEST PUSH2 0x22EC PUSH8 0x6FAB258B0C43293C PUSH1 0xC0 SHL PUSH2 0x82B JUMP JUMPDEST PUSH2 0x2300 PUSH8 0xCEB4585BFAF0B28 PUSH1 0xC0 SHL PUSH2 0x82B JUMP JUMPDEST PUSH2 0x2314 PUSH8 0xC3FE3D69066EA460 PUSH1 0xC0 SHL PUSH2 0x82B JUMP JUMPDEST PUSH2 0x2328 PUSH8 0xDB500F3D6BD4773F PUSH1 0xC0 SHL PUSH2 0x82B JUMP JUMPDEST PUSH1 0x0 DUP2 EQ DUP1 ISZERO PUSH2 0x2348 JUMPI POP PUSH2 0x2347 PUSH8 0x6781703EAEDF574F PUSH1 0xC0 SHL PUSH2 0x401B JUMP JUMPDEST JUMPDEST DUP1 PUSH2 0x2370 JUMPI POP PUSH1 0x3 SLOAD DUP2 GT DUP1 ISZERO PUSH2 0x236F JUMPI POP PUSH2 0x236E PUSH8 0xEE7C69A5BA7CE204 PUSH1 0xC0 SHL PUSH2 0x401B JUMP JUMPDEST JUMPDEST JUMPDEST ISZERO PUSH2 0x23BB JUMPI PUSH2 0x2389 PUSH8 0xD1CF1E932A1A14D5 PUSH1 0xC0 SHL PUSH2 0x82B JUMP JUMPDEST PUSH1 0x40 MLOAD PUSH32 0xBA0514C000000000000000000000000000000000000000000000000000000000 DUP2 MSTORE PUSH1 0x4 ADD PUSH1 0x40 MLOAD DUP1 SWAP2 SUB SWAP1 REVERT JUMPDEST PUSH2 0x23CF PUSH8 0x429F864A9D60A523 PUSH1 0xC0 SHL PUSH2 0x82B JUMP JUMPDEST PUSH2 0x23E3 PUSH8 0xF462C97F627BABF2 PUSH1 0xC0 SHL PUSH2 0x82B JUMP JUMPDEST PUSH2 0x23F7 PUSH8 0xFBD58D74F6D262C1 PUSH1 0xC0 SHL PUSH2 0x82B JUMP JUMPDEST PUSH1 0x0 PUSH1 0x9 PUSH1 0x0 DUP4 DUP2 MSTORE PUSH1 0x20 ADD SWAP1 DUP2 MSTORE PUSH1 0x20 ADD PUSH1 0x0 KECCAK256 SWAP1 POP PUSH2 0x2422 PUSH8 0x30E0F4884007C22 PUSH1 0xC0 SHL PUSH2 0x82B JUMP JUMPDEST PUSH2 0x2436 PUSH8 0xB1B0CDAC7F736B55 PUSH1 0xC0 SHL PUSH2 0x82B JUMP JUMPDEST CALLER PUSH20 0xFFFFFFFFFFFFFFFFFFFFFFFFFFFFFFFFFFFFFFFF AND DUP2 PUSH1 0x0 ADD PUSH1 0x5 SWAP1 SLOAD SWAP1 PUSH2 0x100 EXP SWAP1 DIV PUSH20 0xFFFFFFFFFFFFFFFFFFFFFFFFFFFFFFFFFFFFFFFF AND PUSH20 0xFFFFFFFFFFFFFFFFFFFFFFFFFFFFFFFFFFFFFFFF AND EQ PUSH2 0x24D3 JUMPI PUSH2 0x24A1 PUSH8 0xC8E325117660CD6C PUSH1 0xC0 SHL PUSH2 0x82B JUMP JUMPDEST PUSH1 0x40 MLOAD PUSH32 0xEA8E4EB500000000000000000000000000000000000000000000000000000000 DUP2 MSTORE PUSH1 0x4 ADD PUSH1 0x40 MLOAD DUP1 SWAP2 SUB SWAP1 REVERT JUMPDEST PUSH2 0x24E7 PUSH8 0x712696C8E3C75E33 PUSH1 0xC0 SHL PUSH2 0x82B JUMP JUMPDEST PUSH2 0x24FB PUSH8 0xAFCC8ADA0E00454D PUSH1 0xC0 SHL PUSH2 0x82B JUMP JUMPDEST PUSH2 0x250F PUSH8 0xAC7568A07AF33C58 PUSH1 0xC0 SHL PUSH2 0x82B JUMP JUMPDEST DUP1 PUSH1 0x0 ADD PUSH1 0x3 SWAP1 SLOAD SWAP1 PUSH2 0x100 EXP SWAP1 DIV PUSH1 0xFF AND ISZERO PUSH2 0x256C JUMPI PUSH2 0x253A PUSH8 0x6689E7277EF4B711 PUSH1 0xC0 SHL PUSH2 0x82B JUMP JUMPDEST PUSH1 0x40 MLOAD PUSH32 0x4A4117F900000000000000000000000000000000000000000000000000000000 DUP2 MSTORE PUSH1 0x4 ADD PUSH1 0x40 MLOAD DUP1 SWAP2 SUB SWAP1 REVERT JUMPDEST PUSH2 0x2580 PUSH8 0x1EE4D10BFCBBEAEB PUSH1 0xC0 SHL PUSH2 0x82B JUMP JUMPDEST PUSH2 0x2594 PUSH8 0x16CF606BD5AAE9B2 PUSH1 0xC0 SHL PUSH2 0x82B JUMP JUMPDEST PUSH2 0x25A8 PUSH8 0x7C6853D8FA018B8E PUSH1 0xC0 SHL PUSH2 0x82B JUMP JUMPDEST DUP1 PUSH1 0x0 ADD PUSH1 0x4 SWAP1 SLOAD SWAP1 PUSH2 0x100 EXP SWAP1 DIV PUSH1 0xFF AND ISZERO PUSH2 0x2605 JUMPI PUSH2 0x25D3 PUSH8 0x508A92E1949EA105 PUSH1 0xC0 SHL PUSH2 0x82B JUMP JUMPDEST PUSH1 0x40 MLOAD PUSH32 0xA85E6F1A00000000000000000000000000000000000000000000000000000000 DUP2 MSTORE PUSH1 0x4 ADD PUSH1 0x40 MLOAD DUP1 SWAP2 SUB SWAP1 REVERT JUMPDEST PUSH2 0x2619 PUSH8 0xA4B14C587D89607B PUSH1 0xC0 SHL PUSH2 0x82B JUMP JUMPDEST PUSH2 0x262D PUSH8 0x547B9A2F2EB8C46E PUSH1 0xC0 SHL PUSH2 0x82B JUMP JUMPDEST PUSH2 0x2641 PUSH8 0x214CF305D8B00088 PUSH1 0xC0 SHL PUSH2 0x82B JUMP JUMPDEST PUSH1 0x2 SLOAD DUP2 PUSH1 0x1 ADD SLOAD PUSH2 0x2653 SWAP2 SWAP1 PUSH2 0x4306 JUMP JUMPDEST TIMESTAMP LT ISZERO PUSH2 0x26A0 JUMPI PUSH2 0x266E PUSH8 0xF84F1AEAA5CA1AB8 PUSH1 0xC0 SHL PUSH2 0x82B JUMP JUMPDEST PUSH1 0x40 MLOAD PUSH32 0x9B0056AC00000000000000000000000000000000000000000000000000000000 DUP2 MSTORE PUSH1 0x4 ADD PUSH1 0x40 MLOAD DUP1 SWAP2 SUB SWAP1 REVERT JUMPDEST PUSH2 0x26B4 PUSH8 0xB8A371CE8C7A3BBD PUSH1 0xC0 SHL PUSH2 0x82B JUMP JUMPDEST PUSH2 0x26C8 PUSH8 0xFADB02A42A4F3DA1 PUSH1 0xC0 SHL PUSH2 0x82B JUMP JUMPDEST PUSH1 0x1 DUP2 PUSH1 0x0 ADD PUSH1 0x4 PUSH2 0x100 EXP DUP2 SLOAD DUP2 PUSH1 0xFF MUL NOT AND SWAP1 DUP4 ISZERO ISZERO MUL OR SWAP1 SSTORE POP PUSH2 0x26F9 PUSH8 0x9490C8828360619B PUSH1 0xC0 SHL PUSH2 0x82B JUMP JUMPDEST PUSH2 0x270D PUSH8 0xF4542415A8FBFDBA PUSH1 0xC0 SHL PUSH2 0x82B JUMP JUMPDEST PUSH1 0x0 DUP2 PUSH1 0x6 ADD SLOAD SWAP1 POP PUSH2 0x272A PUSH8 0xC801EC9F8E78F365 PUSH1 0xC0 SHL PUSH2 0x82B JUMP JUMPDEST PUSH2 0x273E PUSH8 0x776684FA127D0269 PUSH1 0xC0 SHL PUSH2 0x82B JUMP JUMPDEST PUSH1 0x0 DUP2 GT ISZERO PUSH2 0x28A9 JUMPI PUSH2 0x275B PUSH8 0x2E600EE9CE22551B PUSH1 0xC0 SHL PUSH2 0x82B JUMP JUMPDEST PUSH2 0x276F PUSH8 0x9B52F5A15A5FB28D PUSH1 0xC0 SHL PUSH2 0x82B JUMP JUMPDEST DUP1 PUSH1 0x5 PUSH1 0x0 DUP3 DUP3 SLOAD PUSH2 0x2781 SWAP2 SWAP1 PUSH2 0x4960 JUMP JUMPDEST SWAP3 POP POP DUP2 SWAP1 SSTORE POP PUSH2 0x279C PUSH8 0x1D11EFB0732FA950 PUSH1 0xC0 SHL PUSH2 0x82B JUMP JUMPDEST PUSH2 0x27B0 PUSH8 0xA65D031DBF2B270B PUSH1 0xC0 SHL PUSH2 0x82B JUMP JUMPDEST PUSH1 0x0 CALLER PUSH20 0xFFFFFFFFFFFFFFFFFFFFFFFFFFFFFFFFFFFFFFFF AND DUP3 PUSH1 0x40 MLOAD PUSH2 0x27D6 SWAP1 PUSH2 0x48F3 JUMP JUMPDEST PUSH1 0x0 PUSH1 0x40 MLOAD DUP1 DUP4 SUB DUP2 DUP6 DUP8 GAS CALL SWAP3 POP POP POP RETURNDATASIZE DUP1 PUSH1 0x0 DUP2 EQ PUSH2 0x2813 JUMPI PUSH1 0x40 MLOAD SWAP2 POP PUSH1 0x1F NOT PUSH1 0x3F RETURNDATASIZE ADD AND DUP3 ADD PUSH1 0x40 MSTORE RETURNDATASIZE DUP3 MSTORE RETURNDATASIZE PUSH1 0x0 PUSH1 0x20 DUP5 ADD RETURNDATACOPY PUSH2 0x2818 JUMP JUMPDEST PUSH1 0x60 SWAP2 POP JUMPDEST POP POP SWAP1 POP PUSH2 0x2830 PUSH8 0x43F7857BFCA61B94 PUSH1 0xC0 SHL PUSH2 0x82B JUMP JUMPDEST PUSH2 0x2844 PUSH8 0x116E09123B1DA7E9 PUSH1 0xC0 SHL PUSH2 0x82B JUMP JUMPDEST DUP1 PUSH2 0x288F JUMPI PUSH2 0x285D PUSH8 0x69B4C0D64C82FFBA PUSH1 0xC0 SHL PUSH2 0x82B JUMP JUMPDEST PUSH1 0x40 MLOAD PUSH32 0x90B8EC1800000000000000000000000000000000000000000000000000000000 DUP2 MSTORE PUSH1 0x4 ADD PUSH1 0x40 MLOAD DUP1 SWAP2 SUB SWAP1 REVERT JUMPDEST PUSH2 0x28A3 PUSH8 0xAC78DF2032889C2C PUSH1 0xC0 SHL PUSH2 0x82B JUMP JUMPDEST POP PUSH2 0x28BE JUMP JUMPDEST PUSH2 0x28BD PUSH8 0x7121F70EE91480C0 PUSH1 0xC0 SHL PUSH2 0x82B JUMP JUMPDEST JUMPDEST PUSH2 0x28D2 PUSH8 0x2EDE3C20654A2FD8 PUSH1 0xC0 SHL PUSH2 0x82B JUMP JUMPDEST PUSH2 0x28E6 PUSH8 0xAD2031AEC02F4A17 PUSH1 0xC0 SHL PUSH2 0x82B JUMP JUMPDEST DUP3 PUSH32 0x7A482FDEB6BC9A1376F597068A214A7A39472BB2EFF1B8CAD21BA04F49DDCA1B DUP4 PUSH1 0x0 ADD PUSH1 0x5 SWAP1 SLOAD SWAP1 PUSH2 0x100 EXP SWAP1 DIV PUSH20 0xFFFFFFFFFFFFFFFFFFFFFFFFFFFFFFFFFFFFFFFF AND DUP4 PUSH1 0x40 MLOAD PUSH2 0x293C SWAP3 SWAP2 SWAP1 PUSH2 0x4994 JUMP JUMPDEST PUSH1 0x40 MLOAD DUP1 SWAP2 SUB SWAP1 LOG2 POP POP PUSH2 0x294E PUSH2 0x40F3 JUMP JUMPDEST POP JUMP JUMPDEST PUSH1 0x60 PUSH2 0x2967 PUSH8 0xC755D4A647471A44 PUSH1 0xC0 SHL PUSH2 0x82B JUMP JUMPDEST PUSH2 0x297B PUSH8 0x457DF8B3777BBDED PUSH1 0xC0 SHL PUSH2 0x82B JUMP JUMPDEST PUSH2 0x298F PUSH8 0x54ED0A5B24B62FE PUSH1 0xC0 SHL PUSH2 0x82B JUMP JUMPDEST PUSH1 0xA PUSH1 0x0 DUP4 PUSH20 0xFFFFFFFFFFFFFFFFFFFFFFFFFFFFFFFFFFFFFFFF AND PUSH20 0xFFFFFFFFFFFFFFFFFFFFFFFFFFFFFFFFFFFFFFFF AND DUP2 MSTORE PUSH1 0x20 ADD SWAP1 DUP2 MSTORE PUSH1 0x20 ADD PUSH1 0x0 KECCAK256 DUP1 SLOAD DUP1 PUSH1 0x20 MUL PUSH1 0x20 ADD PUSH1 0x40 MLOAD SWAP1 DUP2 ADD PUSH1 0x40 MSTORE DUP1 SWAP3 SWAP2 SWAP1 DUP2 DUP2 MSTORE PUSH1 0x20 ADD DUP3 DUP1 SLOAD DUP1 ISZERO PUSH2 0x2A18 JUMPI PUSH1 0x20 MUL DUP3 ADD SWAP2 SWAP1 PUSH1 0x0 MSTORE PUSH1 0x20 PUSH1 0x0 KECCAK256 SWAP1 JUMPDEST DUP2 SLOAD DUP2 MSTORE PUSH1 0x20 ADD SWAP1 PUSH1 0x1 ADD SWAP1 DUP1 DUP4 GT PUSH2 0x2A04 JUMPI JUMPDEST POP POP POP POP POP SWAP1 POP SWAP2 SWAP1 POP JUMP JUMPDEST PUSH1 0x0 DUP1 PUSH1 0x0 DUP1 PUSH1 0x0 DUP1 PUSH2 0x2A41 PUSH8 0x49D2A4CE4BB19040 PUSH1 0xC0 SHL PUSH2 0x82B JUMP JUMPDEST PUSH2 0x2A55 PUSH8 0x53D0386EB77B1D22 PUSH1 0xC0 SHL PUSH2 0x82B JUMP JUMPDEST PUSH2 0x2A69 PUSH8 0xFE1064155F2267C6 PUSH1 0xC0 SHL PUSH2 0x82B JUMP JUMPDEST PUSH1 0x0 DUP8 EQ DUP1 ISZERO PUSH2 0x2A89 JUMPI POP PUSH2 0x2A88 PUSH8 0x262A6345C4BDDEF1 PUSH1 0xC0 SHL PUSH2 0x401B JUMP JUMPDEST JUMPDEST DUP1 PUSH2 0x2AB1 JUMPI POP PUSH1 0x3 SLOAD DUP8 GT DUP1 ISZERO PUSH2 0x2AB0 JUMPI POP PUSH2 0x2AAF PUSH8 0xFA7A12B5E1CC1258 PUSH1 0xC0 SHL PUSH2 0x401B JUMP JUMPDEST JUMPDEST JUMPDEST ISZERO PUSH2 0x2AFC JUMPI PUSH2 0x2ACA PUSH8 0x402FD01D548D65A1 PUSH1 0xC0 SHL PUSH2 0x82B JUMP JUMPDEST PUSH1 0x40 MLOAD PUSH32 0xBA0514C000000000000000000000000000000000000000000000000000000000 DUP2 MSTORE PUSH1 0x4 ADD PUSH1 0x40 MLOAD DUP1 SWAP2 SUB SWAP1 REVERT JUMPDEST PUSH2 0x2B10 PUSH8 0x89D3D5B009F4FC86 PUSH1 0xC0 SHL PUSH2 0x82B JUMP JUMPDEST PUSH2 0x2B24 PUSH8 0xAF000F1F98450965 PUSH1 0xC0 SHL PUSH2 0x82B JUMP JUMPDEST PUSH2 0x2B38 PUSH8 0xFBA161AA4BF54A1A PUSH1 0xC0 SHL PUSH2 0x82B JUMP JUMPDEST PUSH1 0x0 PUSH1 0x9 PUSH1 0x0 DUP10 DUP2 MSTORE PUSH1 0x20 ADD SWAP1 DUP2 MSTORE PUSH1 0x20 ADD PUSH1 0x0 KECCAK256 SWAP1 POP PUSH2 0x2B63 PUSH8 0xA21F0C095C2CF3DD PUSH1 0xC0 SHL PUSH2 0x82B JUMP JUMPDEST PUSH2 0x2B77 PUSH8 0xC8E08F2003D6F174 PUSH1 0xC0 SHL PUSH2 0x82B JUMP JUMPDEST DUP1 PUSH1 0x0 ADD PUSH1 0x5 SWAP1 SLOAD SWAP1 PUSH2 0x100 EXP SWAP1 DIV PUSH20 0xFFFFFFFFFFFFFFFFFFFFFFFFFFFFFFFFFFFFFFFF AND DUP2 PUSH1 0x1 ADD SLOAD DUP3 PUSH1 0x0 ADD PUSH1 0x0 SWAP1 SLOAD SWAP1 PUSH2 0x100 EXP SWAP1 DIV PUSH1 0xFF AND DUP4 PUSH1 0x0 ADD PUSH1 0x3 SWAP1 SLOAD SWAP1 PUSH2 0x100 EXP SWAP1 DIV PUSH1 0xFF AND DUP5 PUSH1 0x0 ADD PUSH1 0x4 SWAP1 SLOAD SWAP1 PUSH2 0x100 EXP SWAP1 DIV PUSH1 0xFF AND DUP6 PUSH1 0x6 ADD SLOAD SWAP7 POP SWAP7 POP SWAP7 POP SWAP7 POP SWAP7 POP SWAP7 POP POP SWAP2 SWAP4 SWAP6 POP SWAP2 SWAP4 SWAP6 JUMP JUMPDEST PUSH1 0x4 SLOAD DUP2 JUMP JUMPDEST PUSH2 0x2C0C PUSH8 0x9FEAC3A150698335 PUSH1 0xC0 SHL PUSH2 0x82B JUMP JUMPDEST PUSH2 0x2C14 PUSH2 0x4026 JUMP JUMPDEST PUSH2 0x2C28 PUSH8 0x64447FF3AAC37BFA PUSH1 0xC0 SHL PUSH2 0x82B JUMP JUMPDEST PUSH2 0x2C3C PUSH8 0xA323125F54F72C60 PUSH1 0xC0 SHL PUSH2 0x82B JUMP JUMPDEST PUSH2 0x2C50 PUSH8 0x8EF39D2555A254F3 PUSH1 0xC0 SHL PUSH2 0x82B JUMP JUMPDEST PUSH2 0x2C64 PUSH8 0xD7E3787AACF5CC04 PUSH1 0xC0 SHL PUSH2 0x82B JUMP JUMPDEST PUSH1 0xA DUP2 LT DUP1 ISZERO PUSH2 0x2C84 JUMPI POP PUSH2 0x2C83 PUSH8 0x4D299ADB96A33370 PUSH1 0xC0 SHL PUSH2 0x401B JUMP JUMPDEST JUMPDEST DUP1 PUSH2 0x2CAC JUMPI POP PUSH2 0xE10 DUP2 GT DUP1 ISZERO PUSH2 0x2CAB JUMPI POP PUSH2 0x2CAA PUSH8 0xF4ED4DFF48E83196 PUSH1 0xC0 SHL PUSH2 0x401B JUMP JUMPDEST JUMPDEST JUMPDEST ISZERO PUSH2 0x2CF7 JUMPI PUSH2 0x2CC5 PUSH8 0xA4430343A6506A7A PUSH1 0xC0 SHL PUSH2 0x82B JUMP JUMPDEST PUSH1 0x40 MLOAD PUSH32 0x7FEE1BC400000000000000000000000000000000000000000000000000000000 DUP2 MSTORE PUSH1 0x4 ADD PUSH1 0x40 MLOAD DUP1 SWAP2 SUB SWAP1 REVERT JUMPDEST PUSH2 0x2D0B PUSH8 0x59086226B4F48FAE PUSH1 0xC0 SHL PUSH2 0x82B JUMP JUMPDEST PUSH2 0x2D1F PUSH8 0x286B9218A71F6BE3 PUSH1 0xC0 SHL PUSH2 0x82B JUMP JUMPDEST DUP1 PUSH1 0x2 DUP2 SWAP1 SSTORE POP POP JUMP JUMPDEST PUSH2 0x2D3D PUSH8 0xD946D66838C948FF PUSH1 0xC0 SHL PUSH2 0x82B JUMP JUMPDEST PUSH2 0x2D51 PUSH8 0x881E9C59CF40C316 PUSH1 0xC0 SHL PUSH2 0x82B JUMP JUMPDEST PUSH2 0x2D65 PUSH8 0xDB47DF048E66A3E0 PUSH1 0xC0 SHL PUSH2 0x82B JUMP JUMPDEST PUSH2 0x2D79 PUSH8 0x56BF901E130A42B1 PUSH1 0xC0 SHL PUSH2 0x82B JUMP JUMPDEST PUSH1 0xB PUSH1 0x0 CALLER PUSH20 0xFFFFFFFFFFFFFFFFFFFFFFFFFFFFFFFFFFFFFFFF AND PUSH20 0xFFFFFFFFFFFFFFFFFFFFFFFFFFFFFFFFFFFFFFFF AND DUP2 MSTORE PUSH1 0x20 ADD SWAP1 DUP2 MSTORE PUSH1 0x20 ADD PUSH1 0x0 KECCAK256 PUSH1 0x0 SWAP1 SLOAD SWAP1 PUSH2 0x100 EXP SWAP1 DIV PUSH1 0xFF AND DUP1 PUSH2 0x2E03 JUMPI POP PUSH2 0x2DD4 PUSH2 0x21DE JUMP JUMPDEST PUSH20 0xFFFFFFFFFFFFFFFFFFFFFFFFFFFFFFFFFFFFFFFF AND CALLER PUSH20 0xFFFFFFFFFFFFFFFFFFFFFFFFFFFFFFFFFFFFFFFF AND EQ JUMPDEST PUSH2 0x2E4D JUMPI PUSH2 0x2E1B PUSH8 0xA369C595162D58EE PUSH1 0xC0 SHL PUSH2 0x82B JUMP JUMPDEST PUSH1 0x40 MLOAD PUSH32 0xEA8E4EB500000000000000000000000000000000000000000000000000000000 DUP2 MSTORE PUSH1 0x4 ADD PUSH1 0x40 MLOAD DUP1 SWAP2 SUB SWAP1 REVERT JUMPDEST PUSH2 0x2E61 PUSH8 0x7A2C53AAA89E1204 PUSH1 0xC0 SHL PUSH2 0x82B JUMP JUMPDEST PUSH2 0x2E75 PUSH8 0xB85052559E8FDB1B PUSH1 0xC0 SHL PUSH2 0x82B JUMP JUMPDEST PUSH2 0x2E89 PUSH8 0x945C33ED36DFCB85 PUSH1 0xC0 SHL PUSH2 0x82B JUMP JUMPDEST PUSH2 0x2E9D PUSH8 0xE2F1181FE7929FF6 PUSH1 0xC0 SHL PUSH2 0x82B JUMP JUMPDEST PUSH2 0x2EA5 PUSH2 0x40AD JUMP JUMPDEST PUSH2 0x2EB9 PUSH8 0x1ED7734050797C3F PUSH1 0xC0 SHL PUSH2 0x82B JUMP JUMPDEST PUSH2 0x2ECD PUSH8 0xCD5EB81942AE0337 PUSH1 0xC0 SHL PUSH2 0x82B JUMP JUMPDEST PUSH2 0x2EE1 PUSH8 0xD0AC3C8F84962297 PUSH1 0xC0 SHL PUSH2 0x82B JUMP JUMPDEST PUSH2 0x2EF5 PUSH8 0x2FEE4A615A74A8D3 PUSH1 0xC0 SHL PUSH2 0x82B JUMP JUMPDEST PUSH1 0x0 DUP5 EQ DUP1 ISZERO PUSH2 0x2F15 JUMPI POP PUSH2 0x2F14 PUSH8 0x324EFB5067AAB942 PUSH1 0xC0 SHL PUSH2 0x401B JUMP JUMPDEST JUMPDEST DUP1 PUSH2 0x2F3D JUMPI POP PUSH1 0x3 SLOAD DUP5 GT DUP1 ISZERO PUSH2 0x2F3C JUMPI POP PUSH2 0x2F3B PUSH8 0xE4D19CEB9B9D4F7E PUSH1 0xC0 SHL PUSH2 0x401B JUMP JUMPDEST JUMPDEST JUMPDEST ISZERO PUSH2 0x2F88 JUMPI PUSH2 0x2F56 PUSH8 0xC1EE05124C2E45A4 PUSH1 0xC0 SHL PUSH2 0x82B JUMP JUMPDEST PUSH1 0x40 MLOAD PUSH32 0xBA0514C000000000000000000000000000000000000000000000000000000000 DUP2 MSTORE PUSH1 0x4 ADD PUSH1 0x40 MLOAD DUP1 SWAP2 SUB SWAP1 REVERT JUMPDEST PUSH2 0x2F9C PUSH8 0xDC882CF6653DF662 PUSH1 0xC0 SHL PUSH2 0x82B JUMP JUMPDEST PUSH2 0x2FB0 PUSH8 0xD999181132DFB287 PUSH1 0xC0 SHL PUSH2 0x82B JUMP JUMPDEST PUSH2 0x2FC4 PUSH8 0xD5B070290601C14F PUSH1 0xC0 SHL PUSH2 0x82B JUMP JUMPDEST PUSH1 0x0 PUSH1 0x9 PUSH1 0x0 DUP7 DUP2 MSTORE PUSH1 0x20 ADD SWAP1 DUP2 MSTORE PUSH1 0x20 ADD PUSH1 0x0 KECCAK256 SWAP1 POP PUSH2 0x2FEF PUSH8 0xED266AACC10F9664 PUSH1 0xC0 SHL PUSH2 0x82B JUMP JUMPDEST PUSH2 0x3003 PUSH8 0xA2C665C89E01B1CC PUSH1 0xC0 SHL PUSH2 0x82B JUMP JUMPDEST DUP1 PUSH1 0x0 ADD PUSH1 0x3 SWAP1 SLOAD SWAP1 PUSH2 0x100 EXP SWAP1 DIV PUSH1 0xFF AND ISZERO PUSH2 0x3060 JUMPI PUSH2 0x302E PUSH8 0x4BB64B2C0CECC2E0 PUSH1 0xC0 SHL PUSH2 0x82B JUMP JUMPDEST PUSH1 0x40 MLOAD PUSH32 0x4A4117F900000000000000000000000000000000000000000000000000000000 DUP2 MSTORE PUSH1 0x4 ADD PUSH1 0x40 MLOAD DUP1 SWAP2 SUB SWAP1 REVERT JUMPDEST PUSH2 0x3074 PUSH8 0xBDACFBA23ABE1425 PUSH1 0xC0 SHL PUSH2 0x82B JUMP JUMPDEST PUSH2 0x3088 PUSH8 0x165FF1E7FEB6631E PUSH1 0xC0 SHL PUSH2 0x82B JUMP JUMPDEST PUSH2 0x309C PUSH8 0xE047877BB8870CB1 PUSH1 0xC0 SHL PUSH2 0x82B JUMP JUMPDEST DUP1 PUSH1 0x0 ADD PUSH1 0x4 SWAP1 SLOAD SWAP1 PUSH2 0x100 EXP SWAP1 DIV PUSH1 0xFF AND ISZERO PUSH2 0x30F9 JUMPI PUSH2 0x30C7 PUSH8 0x37B7C9C4F9026A76 PUSH1 0xC0 SHL PUSH2 0x82B JUMP JUMPDEST PUSH1 0x40 MLOAD PUSH32 0xA85E6F1A00000000000000000000000000000000000000000000000000000000 DUP2 MSTORE PUSH1 0x4 ADD PUSH1 0x40 MLOAD DUP1 SWAP2 SUB SWAP1 REVERT JUMPDEST PUSH2 0x310D PUSH8 0x238B327E0C84855D PUSH1 0xC0 SHL PUSH2 0x82B JUMP JUMPDEST PUSH2 0x3121 PUSH8 0xBB7FD1BE8C3F0176 PUSH1 0xC0 SHL PUSH2 0x82B JUMP JUMPDEST PUSH2 0x3135 PUSH8 0x9C40B4095F5137C0 PUSH1 0xC0 SHL PUSH2 0x82B JUMP JUMPDEST PUSH2 0x2710 DUP3 GT ISZERO PUSH2 0x3185 JUMPI PUSH2 0x3153 PUSH8 0x494EA533AFFE41B9 PUSH1 0xC0 SHL PUSH2 0x82B JUMP JUMPDEST PUSH1 0x40 MLOAD PUSH32 0xC8CC901300000000000000000000000000000000000000000000000000000000 DUP2 MSTORE PUSH1 0x4 ADD PUSH1 0x40 MLOAD DUP1 SWAP2 SUB SWAP1 REVERT JUMPDEST PUSH2 0x3199 PUSH8 0x9D4349187BE640E2 PUSH1 0xC0 SHL PUSH2 0x82B JUMP JUMPDEST PUSH2 0x31AD PUSH8 0xC58ED3CCF18F811E PUSH1 0xC0 SHL PUSH2 0x82B JUMP JUMPDEST PUSH2 0x31C1 PUSH8 0x40F93A2A0E694430 PUSH1 0xC0 SHL PUSH2 0x82B JUMP JUMPDEST PUSH1 0x0 DUP5 PUSH1 0x40 MLOAD PUSH1 0x20 ADD PUSH2 0x31D4 SWAP2 SWAP1 PUSH2 0x49DE JUMP JUMPDEST PUSH1 0x40 MLOAD PUSH1 0x20 DUP2 DUP4 SUB SUB DUP2 MSTORE SWAP1 PUSH1 0x40 MSTORE DUP1 MLOAD SWAP1 PUSH1 0x20 ADD KECCAK256 SWAP1 POP PUSH2 0x3200 PUSH8 0x429351EE7D0B196D PUSH1 0xC0 SHL PUSH2 0x82B JUMP JUMPDEST PUSH2 0x3214 PUSH8 0x447C61E9349AE61B PUSH1 0xC0 SHL PUSH2 0x82B JUMP JUMPDEST PUSH1 0x0 DUP5 PUSH1 0x40 MLOAD PUSH1 0x20 ADD PUSH2 0x3227 SWAP2 SWAP1 PUSH2 0x49DE JUMP JUMPDEST PUSH1 0x40 MLOAD PUSH1 0x20 DUP2 DUP4 SUB SUB DUP2 MSTORE SWAP1 PUSH1 0x40 MSTORE DUP1 MLOAD SWAP1 PUSH1 0x20 ADD KECCAK256 SWAP1 POP PUSH2 0x3253 PUSH8 0x382F2862B0AAE69C PUSH1 0xC0 SHL PUSH2 0x82B JUMP JUMPDEST PUSH2 0x3267 PUSH8 0x5EE81B0F0390CD16 PUSH1 0xC0 SHL PUSH2 0x82B JUMP JUMPDEST PUSH1 0x0 DUP1 SHL DUP4 PUSH1 0x3 ADD SLOAD EQ ISZERO DUP1 ISZERO PUSH2 0x3282 JUMPI POP DUP3 PUSH1 0x3 ADD SLOAD DUP3 EQ ISZERO JUMPDEST ISZERO PUSH2 0x32CD JUMPI PUSH2 0x329B PUSH8 0x1BE9BFC8EE77D382 PUSH1 0xC0 SHL PUSH2 0x82B JUMP JUMPDEST PUSH1 0x40 MLOAD PUSH32 0x6F43BB6300000000000000000000000000000000000000000000000000000000 DUP2 MSTORE PUSH1 0x4 ADD PUSH1 0x40 MLOAD DUP1 SWAP2 SUB SWAP1 REVERT JUMPDEST PUSH2 0x32E1 PUSH8 0x6F51B66E48E1C8EA PUSH1 0xC0 SHL PUSH2 0x82B JUMP JUMPDEST PUSH2 0x32F5 PUSH8 0x2AF8B648A941AC3B PUSH1 0xC0 SHL PUSH2 0x82B JUMP JUMPDEST PUSH2 0x3309 PUSH8 0x341DDF1EF722E45E PUSH1 0xC0 SHL PUSH2 0x82B JUMP JUMPDEST DUP3 PUSH1 0x4 ADD SLOAD DUP2 EQ PUSH2 0x335A JUMPI PUSH2 0x3328 PUSH8 0x237D8199C89DEBB8 PUSH1 0xC0 SHL PUSH2 0x82B JUMP JUMPDEST PUSH1 0x40 MLOAD PUSH32 0x6F43BB6300000000000000000000000000000000000000000000000000000000 DUP2 MSTORE PUSH1 0x4 ADD PUSH1 0x40 MLOAD DUP1 SWAP2 SUB SWAP1 REVERT JUMPDEST PUSH2 0x336E PUSH8 0x6D31288F9334F92F PUSH1 0xC0 SHL PUSH2 0x82B JUMP JUMPDEST PUSH2 0x3382 PUSH8 0x4288E5AD94AC9067 PUSH1 0xC0 SHL PUSH2 0x82B JUMP JUMPDEST DUP6 DUP6 PUSH1 0x40 MLOAD PUSH1 0x20 ADD PUSH2 0x3395 SWAP3 SWAP2 SWAP1 PUSH2 0x49F9 JUMP JUMPDEST PUSH1 0x40 MLOAD PUSH1 0x20 DUP2 DUP4 SUB SUB DUP2 MSTORE SWAP1 PUSH1 0x40 MSTORE DUP1 MLOAD SWAP1 PUSH1 0x20 ADD KECCAK256 DUP4 PUSH1 0x5 ADD DUP2 SWAP1 SSTORE POP PUSH2 0x33C7 PUSH8 0x3C5FA957478C8AAB PUSH1 0xC0 SHL PUSH2 0x82B JUMP JUMPDEST PUSH1 0x1 DUP4 PUSH1 0x0 ADD PUSH1 0x3 PUSH2 0x100 EXP DUP2 SLOAD DUP2 PUSH1 0xFF MUL NOT AND SWAP1 DUP4 ISZERO ISZERO MUL OR SWAP1 SSTORE POP PUSH2 0x33F8 PUSH8 0xA49CCB805AD5FF25 PUSH1 0xC0 SHL PUSH2 0x82B JUMP JUMPDEST DUP4 DUP4 PUSH1 0x0 ADD PUSH1 0x1 PUSH2 0x100 EXP DUP2 SLOAD DUP2 PUSH2 0xFFFF MUL NOT AND SWAP1 DUP4 PUSH2 0xFFFF AND MUL OR SWAP1 SSTORE POP PUSH2 0x342B PUSH8 0xB92D08EC8EF0F620 PUSH1 0xC0 SHL PUSH2 0x82B JUMP JUMPDEST TIMESTAMP DUP4 PUSH1 0x2 ADD DUP2 SWAP1 SSTORE POP PUSH2 0x3448 PUSH8 0xF7275FE9C89E8AB1 PUSH1 0xC0 SHL PUSH2 0x82B JUMP JUMPDEST PUSH1 0x1 PUSH1 0x4 PUSH1 0x0 DUP3 DUP3 SLOAD PUSH2 0x345B SWAP2 SWAP1 PUSH2 0x4306 JUMP JUMPDEST SWAP3 POP POP DUP2 SWAP1 SSTORE POP PUSH2 0x3476 PUSH8 0x7B793D3182F0ED3F PUSH1 0xC0 SHL PUSH2 0x82B JUMP JUMPDEST PUSH2 0x348A PUSH8 0x85C552ADEAE8DE54 PUSH1 0xC0 SHL PUSH2 0x82B JUMP JUMPDEST PUSH1 0x0 DUP4 PUSH1 0x6 ADD SLOAD SWAP1 POP PUSH2 0x34A7 PUSH8 0x4DB9862190B2E584 PUSH1 0xC0 SHL PUSH2 0x82B JUMP JUMPDEST PUSH2 0x34BB PUSH8 0xDB5EFFC13566AAE6 PUSH1 0xC0 SHL PUSH2 0x82B JUMP JUMPDEST PUSH1 0x0 DUP2 GT ISZERO PUSH2 0x3537 JUMPI PUSH2 0x34D8 PUSH8 0xB1EB190C8F44D5EE PUSH1 0xC0 SHL PUSH2 0x82B JUMP JUMPDEST PUSH2 0x34EC PUSH8 0xA4771986758AFDF8 PUSH1 0xC0 SHL PUSH2 0x82B JUMP JUMPDEST DUP1 PUSH1 0x5 PUSH1 0x0 DUP3 DUP3 SLOAD PUSH2 0x34FE SWAP2 SWAP1 PUSH2 0x4960 JUMP JUMPDEST SWAP3 POP POP DUP2 SWAP1 SSTORE POP PUSH2 0x3519 PUSH8 0xA837FE14C3454D15 PUSH1 0xC0 SHL PUSH2 0x82B JUMP JUMPDEST DUP1 PUSH1 0x6 PUSH1 0x0 DUP3 DUP3 SLOAD PUSH2 0x352B SWAP2 SWAP1 PUSH2 0x4306 JUMP JUMPDEST SWAP3 POP POP DUP2 SWAP1 SSTORE POP PUSH2 0x354C JUMP JUMPDEST PUSH2 0x354B PUSH8 0xB828459592CF27E2 PUSH1 0xC0 SHL PUSH2 0x82B JUMP JUMPDEST JUMPDEST PUSH2 0x3560 PUSH8 0x41A8673FACCEDF70 PUSH1 0xC0 SHL PUSH2 0x82B JUMP JUMPDEST PUSH2 0x3574 PUSH8 0x984CE018725F24D9 PUSH1 0xC0 SHL PUSH2 0x82B JUMP JUMPDEST DUP4 PUSH1 0x5 ADD SLOAD CALLER PUSH20 0xFFFFFFFFFFFFFFFFFFFFFFFFFFFFFFFFFFFFFFFF AND DUP10 PUSH32 0xCEA07AD5D3A8E3289656DD4F7E6B1CB58A8C4DBE65A743A6E5EDBBD9DCC716F1 DUP9 PUSH1 0x40 MLOAD PUSH2 0x35C0 SWAP2 SWAP1 PUSH2 0x4480 JUMP JUMPDEST PUSH1 0x40 MLOAD DUP1 SWAP2 SUB SWAP1 LOG4 POP POP POP POP PUSH2 0x35D4 PUSH2 0x40F3 JUMP JUMPDEST POP POP POP POP JUMP JUMPDEST PUSH1 0x0 DUP1 PUSH1 0x0 DUP1 PUSH1 0x0 DUP1 PUSH2 0x35F7 PUSH8 0x50DDA3E2672C7DE8 PUSH1 0xC0 SHL PUSH2 0x82B JUMP JUMPDEST PUSH2 0x360B PUSH8 0xF6DA44AB14B31475 PUSH1 0xC0 SHL PUSH2 0x82B JUMP JUMPDEST PUSH2 0x361F PUSH8 0x8B56E323D4BC6122 PUSH1 0xC0 SHL PUSH2 0x82B JUMP JUMPDEST PUSH1 0x3 SLOAD PUSH1 0x4 SLOAD SELFBALANCE PUSH1 0x5 SLOAD PUSH1 0x6 SLOAD PUSH1 0x7 SLOAD SWAP6 POP SWAP6 POP SWAP6 POP SWAP6 POP SWAP6 POP SWAP6 POP SWAP1 SWAP2 SWAP3 SWAP4 SWAP5 SWAP6 JUMP JUMPDEST PUSH2 0x364B PUSH2 0x4026 JUMP JUMPDEST PUSH1 0x0 PUSH20 0xFFFFFFFFFFFFFFFFFFFFFFFFFFFFFFFFFFFFFFFF AND DUP2 PUSH20 0xFFFFFFFFFFFFFFFFFFFFFFFFFFFFFFFFFFFFFFFF AND SUB PUSH2 0x36BD JUMPI PUSH1 0x0 PUSH1 0x40 MLOAD PUSH32 0x1E4FBDF700000000000000000000000000000000000000000000000000000000 DUP2 MSTORE PUSH1 0x4 ADD PUSH2 0x36B4 SWAP2 SWAP1 PUSH2 0x4592 JUMP JUMPDEST PUSH1 0x40 MLOAD DUP1 SWAP2 SUB SWAP1 REVERT JUMPDEST PUSH2 0x36C6 DUP2 PUSH2 0x415E JUMP JUMPDEST POP JUMP JUMPDEST PUSH1 0x0 PUSH2 0x36DF PUSH8 0xA88BE615C841A07B PUSH1 0xC0 SHL PUSH2 0x82B JUMP JUMPDEST PUSH2 0x36E7 PUSH2 0x3FDA JUMP JUMPDEST PUSH2 0x36FB PUSH8 0x56C805416ED467E7 PUSH1 0xC0 SHL PUSH2 0x82B JUMP JUMPDEST PUSH2 0x370F PUSH8 0x214662BB994FBCCA PUSH1 0xC0 SHL PUSH2 0x82B JUMP JUMPDEST PUSH2 0x3717 PUSH2 0x40AD JUMP JUMPDEST PUSH2 0x372B PUSH8 0x46429D76A7FE0B67 PUSH1 0xC0 SHL PUSH2 0x82B JUMP JUMPDEST PUSH2 0x373F PUSH8 0x102FB85972B384CA PUSH1 0xC0 SHL PUSH2 0x82B JUMP JUMPDEST PUSH2 0x3753 PUSH8 0x2555CFE7DF0C7646 PUSH1 0xC0 SHL PUSH2 0x82B JUMP JUMPDEST PUSH2 0x3767 PUSH8 0x41AEEB48708CC052 PUSH1 0xC0 SHL PUSH2 0x82B JUMP JUMPDEST PUSH1 0x1 DUP4 PUSH1 0xFF AND LT DUP1 ISZERO PUSH2 0x378A JUMPI POP PUSH2 0x3789 PUSH8 0x4894075FF965C45A PUSH1 0xC0 SHL PUSH2 0x401B JUMP JUMPDEST JUMPDEST DUP1 PUSH2 0x37B4 JUMPI POP PUSH1 0x3 DUP4 PUSH1 0xFF AND GT DUP1 ISZERO PUSH2 0x37B3 JUMPI POP PUSH2 0x37B2 PUSH8 0x3D44A8DA397DF421 PUSH1 0xC0 SHL PUSH2 0x401B JUMP JUMPDEST JUMPDEST JUMPDEST ISZERO PUSH2 0x37FF JUMPI PUSH2 0x37CD PUSH8 0xE65259DAEFE3BAFB PUSH1 0xC0 SHL PUSH2 0x82B JUMP JUMPDEST PUSH1 0x40 MLOAD PUSH32 0xE142361700000000000000000000000000000000000000000000000000000000 DUP2 MSTORE PUSH1 0x4 ADD PUSH1 0x40 MLOAD DUP1 SWAP2 SUB SWAP1 REVERT JUMPDEST PUSH2 0x3813 PUSH8 0x91F0BE7A910AEA4E PUSH1 0xC0 SHL PUSH2 0x82B JUMP JUMPDEST PUSH2 0x3827 PUSH8 0xDE3AF96993681C77 PUSH1 0xC0 SHL PUSH2 0x82B JUMP JUMPDEST PUSH2 0x383B PUSH8 0x820C03CD84F70F62 PUSH1 0xC0 SHL PUSH2 0x82B JUMP JUMPDEST PUSH7 0x110D9316EC000 CALLVALUE EQ PUSH2 0x388F JUMPI PUSH2 0x385D PUSH8 0x9F08794ECFF26A81 PUSH1 0xC0 SHL PUSH2 0x82B JUMP JUMPDEST PUSH1 0x40 MLOAD PUSH32 0x569E8C1100000000000000000000000000000000000000000000000000000000 DUP2 MSTORE PUSH1 0x4 ADD PUSH1 0x40 MLOAD DUP1 SWAP2 SUB SWAP1 REVERT JUMPDEST PUSH2 0x38A3 PUSH8 0xD957EC0D728EBC6B PUSH1 0xC0 SHL PUSH2 0x82B JUMP JUMPDEST PUSH2 0x38B7 PUSH8 0x42CDD2C4CBE0E771 PUSH1 0xC0 SHL PUSH2 0x82B JUMP JUMPDEST PUSH2 0x38CB PUSH8 0x2F7A7C073814D5E2 PUSH1 0xC0 SHL PUSH2 0x82B JUMP JUMPDEST PUSH1 0x0 DUP1 SHL DUP3 SUB PUSH2 0x391B JUMPI PUSH2 0x38E9 PUSH8 0x61A3E33FFF3FCBF9 PUSH1 0xC0 SHL PUSH2 0x82B JUMP JUMPDEST PUSH1 0x40 MLOAD PUSH32 0xC06789FA00000000000000000000000000000000000000000000000000000000 DUP2 MSTORE PUSH1 0x4 ADD PUSH1 0x40 MLOAD DUP1 SWAP2 SUB SWAP1 REVERT JUMPDEST PUSH2 0x392F PUSH8 0x51191851DE3CA22 PUSH1 0xC0 SHL PUSH2 0x82B JUMP JUMPDEST PUSH2 0x3943 PUSH8 0xA740079E543F0EAD PUSH1 0xC0 SHL PUSH2 0x82B JUMP JUMPDEST PUSH2 0x3957 PUSH8 0x247550324A74CF2A PUSH1 0xC0 SHL PUSH2 0x82B JUMP JUMPDEST PUSH1 0x0 PUSH1 0x3 PUSH1 0x0 DUP2 SLOAD PUSH2 0x3968 SWAP1 PUSH2 0x4A25 JUMP JUMPDEST SWAP2 SWAP1 POP DUP2 SWAP1 SSTORE SWAP1 POP PUSH2 0x3984 PUSH8 0xE5632BE2A5865BB PUSH1 0xC0 SHL PUSH2 0x82B JUMP JUMPDEST PUSH1 0x40 MLOAD DUP1 PUSH2 0x160 ADD PUSH1 0x40 MSTORE DUP1 DUP6 PUSH1 0xFF AND DUP2 MSTORE PUSH1 0x20 ADD PUSH1 0x0 PUSH2 0xFFFF AND DUP2 MSTORE PUSH1 0x20 ADD PUSH1 0x0 ISZERO ISZERO DUP2 MSTORE PUSH1 0x20 ADD PUSH1 0x0 ISZERO ISZERO DUP2 MSTORE PUSH1 0x20 ADD CALLER PUSH20 0xFFFFFFFFFFFFFFFFFFFFFFFFFFFFFFFFFFFFFFFF AND DUP2 MSTORE PUSH1 0x20 ADD TIMESTAMP DUP2 MSTORE PUSH1 0x20 ADD PUSH1 0x0 DUP2 MSTORE PUSH1 0x20 ADD DUP5 DUP2 MSTORE PUSH1 0x20 ADD PUSH1 0x0 DUP1 SHL DUP2 MSTORE PUSH1 0x20 ADD PUSH1 0x0 DUP1 SHL DUP2 MSTORE PUSH1 0x20 ADD CALLVALUE DUP2 MSTORE POP PUSH1 0x9 PUSH1 0x0 DUP4 DUP2 MSTORE PUSH1 0x20 ADD SWAP1 DUP2 MSTORE PUSH1 0x20 ADD PUSH1 0x0 KECCAK256 PUSH1 0x0 DUP3 ADD MLOAD DUP2 PUSH1 0x0 ADD PUSH1 0x0 PUSH2 0x100 EXP DUP2 SLOAD DUP2 PUSH1 0xFF MUL NOT AND SWAP1 DUP4 PUSH1 0xFF AND MUL OR SWAP1 SSTORE POP PUSH1 0x20 DUP3 ADD MLOAD DUP2 PUSH1 0x0 ADD PUSH1 0x1 PUSH2 0x100 EXP DUP2 SLOAD DUP2 PUSH2 0xFFFF MUL NOT AND SWAP1 DUP4 PUSH2 0xFFFF AND MUL OR SWAP1 SSTORE POP PUSH1 0x40 DUP3 ADD MLOAD DUP2 PUSH1 0x0 ADD PUSH1 0x3 PUSH2 0x100 EXP DUP2 SLOAD DUP2 PUSH1 0xFF MUL NOT AND SWAP1 DUP4 ISZERO ISZERO MUL OR SWAP1 SSTORE POP PUSH1 0x60 DUP3 ADD MLOAD DUP2 PUSH1 0x0 ADD PUSH1 0x4 PUSH2 0x100 EXP DUP2 SLOAD DUP2 PUSH1 0xFF MUL NOT AND SWAP1 DUP4 ISZERO ISZERO MUL OR SWAP1 SSTORE POP PUSH1 0x80 DUP3 ADD MLOAD DUP2 PUSH1 0x0 ADD PUSH1 0x5 PUSH2 0x100 EXP DUP2 SLOAD DUP2 PUSH20 0xFFFFFFFFFFFFFFFFFFFFFFFFFFFFFFFFFFFFFFFF MUL NOT AND SWAP1 DUP4 PUSH20 0xFFFFFFFFFFFFFFFFFFFFFFFFFFFFFFFFFFFFFFFF AND MUL OR SWAP1 SSTORE POP PUSH1 0xA0 DUP3 ADD MLOAD DUP2 PUSH1 0x1 ADD SSTORE PUSH1 0xC0 DUP3 ADD MLOAD DUP2 PUSH1 0x2 ADD SSTORE PUSH1 0xE0 DUP3 ADD MLOAD DUP2 PUSH1 0x3 ADD SSTORE PUSH2 0x100 DUP3 ADD MLOAD DUP2 PUSH1 0x4 ADD SSTORE PUSH2 0x120 DUP3 ADD MLOAD DUP2 PUSH1 0x5 ADD SSTORE PUSH2 0x140 DUP3 ADD MLOAD DUP2 PUSH1 0x6 ADD SSTORE SWAP1 POP POP PUSH2 0x3B2F PUSH8 0x8A7F3785C51FB6D9 PUSH1 0xC0 SHL PUSH2 0x82B JUMP JUMPDEST PUSH2 0x3B43 PUSH8 0x5F1BA195EF07BB31 PUSH1 0xC0 SHL PUSH2 0x82B JUMP JUMPDEST PUSH1 0xA PUSH1 0x0 CALLER PUSH20 0xFFFFFFFFFFFFFFFFFFFFFFFFFFFFFFFFFFFFFFFF AND PUSH20 0xFFFFFFFFFFFFFFFFFFFFFFFFFFFFFFFFFFFFFFFF AND DUP2 MSTORE PUSH1 0x20 ADD SWAP1 DUP2 MSTORE PUSH1 0x20 ADD PUSH1 0x0 KECCAK256 DUP2 SWAP1 DUP1 PUSH1 0x1 DUP2 SLOAD ADD DUP1 DUP3 SSTORE DUP1 SWAP2 POP POP PUSH1 0x1 SWAP1 SUB SWAP1 PUSH1 0x0 MSTORE PUSH1 0x20 PUSH1 0x0 KECCAK256 ADD PUSH1 0x0 SWAP1 SWAP2 SWAP1 SWAP2 SWAP1 SWAP2 POP SSTORE PUSH2 0x3BBD PUSH8 0x6B3BEDBE6F880CFE PUSH1 0xC0 SHL PUSH2 0x82B JUMP JUMPDEST CALLVALUE PUSH1 0x5 PUSH1 0x0 DUP3 DUP3 SLOAD PUSH2 0x3BCF SWAP2 SWAP1 PUSH2 0x4306 JUMP JUMPDEST SWAP3 POP POP DUP2 SWAP1 SSTORE POP PUSH2 0x3BEA PUSH8 0x975E4A0BBA659743 PUSH1 0xC0 SHL PUSH2 0x82B JUMP JUMPDEST PUSH2 0x3BFE PUSH8 0xD4A97688C627CC8F PUSH1 0xC0 SHL PUSH2 0x82B JUMP JUMPDEST CALLER PUSH20 0xFFFFFFFFFFFFFFFFFFFFFFFFFFFFFFFFFFFFFFFF AND DUP2 PUSH32 0x572BBC94E20D9CC206A294F4EC2C92781BDF0FF9D8A4D4202F7C045093628855 CALLVALUE DUP8 DUP8 PUSH1 0x40 MLOAD PUSH2 0x3C49 SWAP4 SWAP3 SWAP2 SWAP1 PUSH2 0x4A6D JUMP JUMPDEST PUSH1 0x40 MLOAD DUP1 SWAP2 SUB SWAP1 LOG3 PUSH2 0x3C65 PUSH8 0x4BAA21CF9D457F0D PUSH1 0xC0 SHL PUSH2 0x82B JUMP JUMPDEST PUSH2 0x3C79 PUSH8 0x4094A0C5541A3151 PUSH1 0xC0 SHL PUSH2 0x82B JUMP JUMPDEST DUP1 SWAP2 POP POP PUSH2 0x3C85 PUSH2 0x40F3 JUMP JUMPDEST SWAP3 SWAP2 POP POP JUMP JUMPDEST PUSH1 0x2 SLOAD DUP2 JUMP JUMPDEST PUSH2 0x3CA5 PUSH8 0xB2126E2203EA572D PUSH1 0xC0 SHL PUSH2 0x82B JUMP JUMPDEST PUSH2 0x3CAD PUSH2 0x4026 JUMP JUMPDEST PUSH2 0x3CC1 PUSH8 0x452A54AF108A68ED PUSH1 0xC0 SHL PUSH2 0x82B JUMP JUMPDEST PUSH2 0x3CD5 PUSH8 0x614282210CD75851 PUSH1 0xC0 SHL PUSH2 0x82B JUMP JUMPDEST PUSH2 0x3CE9 PUSH8 0x5CB6D9888DF6FA86 PUSH1 0xC0 SHL PUSH2 0x82B JUMP JUMPDEST PUSH1 0x0 PUSH1 0xB PUSH1 0x0 DUP4 PUSH20 0xFFFFFFFFFFFFFFFFFFFFFFFFFFFFFFFFFFFFFFFF AND PUSH20 0xFFFFFFFFFFFFFFFFFFFFFFFFFFFFFFFFFFFFFFFF AND DUP2 MSTORE PUSH1 0x20 ADD SWAP1 DUP2 MSTORE PUSH1 0x20 ADD PUSH1 0x0 KECCAK256 PUSH1 0x0 PUSH2 0x100 EXP DUP2 SLOAD DUP2 PUSH1 0xFF MUL NOT AND SWAP1 DUP4 ISZERO ISZERO MUL OR SWAP1 SSTORE POP PUSH2 0x3D55 PUSH8 0x96C437D4B96FDDE0 PUSH1 0xC0 SHL PUSH2 0x82B JUMP JUMPDEST PUSH2 0x3D69 PUSH8 0x47C933B78B8CCC29 PUSH1 0xC0 SHL PUSH2 0x82B JUMP JUMPDEST DUP1 PUSH20 0xFFFFFFFFFFFFFFFFFFFFFFFFFFFFFFFFFFFFFFFF AND PUSH32 0x8CC55EDD97B1681F7DB6157CF9DFEAB2ED6DFA3B3E5B7E287E136AC67CBC5445 PUSH1 0x40 MLOAD PUSH1 0x40 MLOAD DUP1 SWAP2 SUB SWAP1 LOG2 POP JUMP JUMPDEST PUSH1 0x0 PUSH2 0x3DC5 PUSH8 0xA131E317C0BB29D6 PUSH1 0xC0 SHL PUSH2 0x82B JUMP JUMPDEST PUSH2 0x3DD9 PUSH8 0xC3105294D3147285 PUSH1 0xC0 SHL PUSH2 0x82B JUMP JUMPDEST PUSH2 0x3DED PUSH8 0xD87773353669A808 PUSH1 0xC0 SHL PUSH2 0x82B JUMP JUMPDEST PUSH1 0x0 DUP3 EQ DUP1 ISZERO PUSH2 0x3E0D JUMPI POP PUSH2 0x3E0C PUSH8 0xD14D0F7B5E8BB560 PUSH1 0xC0 SHL PUSH2 0x401B JUMP JUMPDEST JUMPDEST DUP1 PUSH2 0x3E35 JUMPI POP PUSH1 0x3 SLOAD DUP3 GT DUP1 ISZERO PUSH2 0x3E34 JUMPI POP PUSH2 0x3E33 PUSH8 0x66E23DCD87B1CD7 PUSH1 0xC0 SHL PUSH2 0x401B JUMP JUMPDEST JUMPDEST JUMPDEST ISZERO PUSH2 0x3E6B JUMPI PUSH2 0x3E4E PUSH8 0x1A5413106DA3F645 PUSH1 0xC0 SHL PUSH2 0x82B JUMP JUMPDEST PUSH2 0x3E62 PUSH8 0xEF20901BAC341D25 PUSH1 0xC0 SHL PUSH2 0x82B JUMP JUMPDEST PUSH1 0x0 SWAP1 POP PUSH2 0x3FD5 JUMP JUMPDEST PUSH2 0x3E7F PUSH8 0x507B51C3377D5284 PUSH1 0xC0 SHL PUSH2 0x82B JUMP JUMPDEST PUSH2 0x3E93 PUSH8 0xC4F5670C91614C1E PUSH1 0xC0 SHL PUSH2 0x82B JUMP JUMPDEST PUSH2 0x3EA7 PUSH8 0x4854E12B989DFA5F PUSH1 0xC0 SHL PUSH2 0x82B JUMP JUMPDEST PUSH1 0x0 PUSH1 0x9 PUSH1 0x0 DUP5 DUP2 MSTORE PUSH1 0x20 ADD SWAP1 DUP2 MSTORE PUSH1 0x20 ADD PUSH1 0x0 KECCAK256 SWAP1 POP PUSH2 0x3ED2 PUSH8 0x1CFC98B0DEDA8347 PUSH1 0xC0 SHL PUSH2 0x82B JUMP JUMPDEST PUSH2 0x3EE6 PUSH8 0xA65FDC181B22B847 PUSH1 0xC0 SHL PUSH2 0x82B JUMP JUMPDEST DUP1 PUSH1 0x0 ADD PUSH1 0x3 SWAP1 SLOAD SWAP1 PUSH2 0x100 EXP SWAP1 DIV PUSH1 0xFF AND DUP1 ISZERO PUSH2 0x3F14 JUMPI POP PUSH2 0x3F13 PUSH8 0x3E1D3D720D997EA2 PUSH1 0xC0 SHL PUSH2 0x401B JUMP JUMPDEST JUMPDEST DUP1 PUSH2 0x3F49 JUMPI POP DUP1 PUSH1 0x0 ADD PUSH1 0x4 SWAP1 SLOAD SWAP1 PUSH2 0x100 EXP SWAP1 DIV PUSH1 0xFF AND DUP1 ISZERO PUSH2 0x3F48 JUMPI POP PUSH2 0x3F47 PUSH8 0xCEA42A5FC107E802 PUSH1 0xC0 SHL PUSH2 0x401B JUMP JUMPDEST JUMPDEST JUMPDEST ISZERO PUSH2 0x3F80 JUMPI PUSH2 0x3F62 PUSH8 0xF1A65E0D335753FC PUSH1 0xC0 SHL PUSH2 0x82B JUMP JUMPDEST PUSH2 0x3F76 PUSH8 0x8C829BF2743E09A9 PUSH1 0xC0 SHL PUSH2 0x82B JUMP JUMPDEST PUSH1 0x0 SWAP2 POP POP PUSH2 0x3FD5 JUMP JUMPDEST PUSH2 0x3F94 PUSH8 0x48255FA88F336D60 PUSH1 0xC0 SHL PUSH2 0x82B JUMP JUMPDEST PUSH2 0x3FA8 PUSH8 0x803623E5794161D5 PUSH1 0xC0 SHL PUSH2 0x82B JUMP JUMPDEST PUSH2 0x3FBC PUSH8 0xA08CC44D1E128D4D PUSH1 0xC0 SHL PUSH2 0x82B JUMP JUMPDEST PUSH1 0x2 SLOAD DUP2 PUSH1 0x1 ADD SLOAD PUSH2 0x3FCE SWAP2 SWAP1 PUSH2 0x4306 JUMP JUMPDEST TIMESTAMP LT ISZERO SWAP2 POP POP JUMPDEST SWAP2 SWAP1 POP JUMP JUMPDEST PUSH2 0x3FE2 PUSH2 0x15AC JUMP JUMPDEST ISZERO PUSH2 0x4019 JUMPI PUSH1 0x40 MLOAD PUSH32 0xD93C066500000000000000000000000000000000000000000000000000000000 DUP2 MSTORE PUSH1 0x4 ADD PUSH1 0x40 MLOAD DUP1 SWAP2 SUB SWAP1 REVERT JUMPDEST JUMP JUMPDEST PUSH1 0x0 PUSH1 0x1 SWAP1 POP SWAP2 SWAP1 POP JUMP JUMPDEST PUSH2 0x402E PUSH2 0x4285 JUMP JUMPDEST PUSH20 0xFFFFFFFFFFFFFFFFFFFFFFFFFFFFFFFFFFFFFFFF AND PUSH2 0x404C PUSH2 0x21DE JUMP JUMPDEST PUSH20 0xFFFFFFFFFFFFFFFFFFFFFFFFFFFFFFFFFFFFFFFF AND EQ PUSH2 0x40AB JUMPI PUSH2 0x406F PUSH2 0x4285 JUMP JUMPDEST PUSH1 0x40 MLOAD PUSH32 0x118CDAA700000000000000000000000000000000000000000000000000000000 DUP2 MSTORE PUSH1 0x4 ADD PUSH2 0x40A2 SWAP2 SWAP1 PUSH2 0x4592 JUMP JUMPDEST PUSH1 0x40 MLOAD DUP1 SWAP2 SUB SWAP1 REVERT JUMPDEST JUMP JUMPDEST PUSH1 0x2 PUSH1 0x1 SLOAD SUB PUSH2 0x40E9 JUMPI PUSH1 0x40 MLOAD PUSH32 0x3EE5AEB500000000000000000000000000000000000000000000000000000000 DUP2 MSTORE PUSH1 0x4 ADD PUSH1 0x40 MLOAD DUP1 SWAP2 SUB SWAP1 REVERT JUMPDEST PUSH1 0x2 PUSH1 0x1 DUP2 SWAP1 SSTORE POP JUMP JUMPDEST PUSH1 0x1 DUP1 DUP2 SWAP1 SSTORE POP JUMP JUMPDEST PUSH2 0x4104 PUSH2 0x428D JUMP JUMPDEST PUSH1 0x0 DUP1 PUSH1 0x14 PUSH2 0x100 EXP DUP2 SLOAD DUP2 PUSH1 0xFF MUL NOT AND SWAP1 DUP4 ISZERO ISZERO MUL OR SWAP1 SSTORE POP PUSH32 0x5DB9EE0A495BF2E6FF9C91A7834C1BA4FDD244A5E8AA4E537BD38AEAE4B073AA PUSH2 0x4147 PUSH2 0x4285 JUMP JUMPDEST PUSH1 0x40 MLOAD PUSH2 0x4154 SWAP2 SWAP1 PUSH2 0x4592 JUMP JUMPDEST PUSH1 0x40 MLOAD DUP1 SWAP2 SUB SWAP1 LOG1 JUMP JUMPDEST PUSH1 0x0 DUP1 PUSH1 0x0 SWAP1 SLOAD SWAP1 PUSH2 0x100 EXP SWAP1 DIV PUSH20 0xFFFFFFFFFFFFFFFFFFFFFFFFFFFFFFFFFFFFFFFF AND SWAP1 POP DUP2 PUSH1 0x0 DUP1 PUSH2 0x100 EXP DUP2 SLOAD DUP2 PUSH20 0xFFFFFFFFFFFFFFFFFFFFFFFFFFFFFFFFFFFFFFFF MUL NOT AND SWAP1 DUP4 PUSH20 0xFFFFFFFFFFFFFFFFFFFFFFFFFFFFFFFFFFFFFFFF AND MUL OR SWAP1 SSTORE POP DUP2 PUSH20 0xFFFFFFFFFFFFFFFFFFFFFFFFFFFFFFFFFFFFFFFF AND DUP2 PUSH20 0xFFFFFFFFFFFFFFFFFFFFFFFFFFFFFFFFFFFFFFFF AND PUSH32 0x8BE0079C531659141344CD1FD0A4F28419497F9722A3DAAFE3B4186F6B6457E0 PUSH1 0x40 MLOAD PUSH1 0x40 MLOAD DUP1 SWAP2 SUB SWAP1 LOG3 POP POP JUMP JUMPDEST PUSH2 0x422A PUSH2 0x3FDA JUMP JUMPDEST PUSH1 0x1 PUSH1 0x0 PUSH1 0x14 PUSH2 0x100 EXP DUP2 SLOAD DUP2 PUSH1 0xFF MUL NOT AND SWAP1 DUP4 ISZERO ISZERO MUL OR SWAP1 SSTORE POP PUSH32 0x62E78CEA01BEE320CD4E420270B5EA74000D11B0C9F74754EBDBFC544B05A258 PUSH2 0x426E PUSH2 0x4285 JUMP JUMPDEST PUSH1 0x40 MLOAD PUSH2 0x427B SWAP2 SWAP1 PUSH2 0x4592 JUMP JUMPDEST PUSH1 0x40 MLOAD DUP1 SWAP2 SUB SWAP1 LOG1 JUMP JUMPDEST PUSH1 0x0 CALLER SWAP1 POP SWAP1 JUMP JUMPDEST PUSH2 0x4295 PUSH2 0x15AC JUMP JUMPDEST PUSH2 0x42CB JUMPI PUSH1 0x40 MLOAD PUSH32 0x8DFC202B00000000000000000000000000000000000000000000000000000000 DUP2 MSTORE PUSH1 0x4 ADD PUSH1 0x40 MLOAD DUP1 SWAP2 SUB SWAP1 REVERT JUMPDEST JUMP JUMPDEST PUSH1 0x0 DUP2 SWAP1 POP SWAP2 SWAP1 POP JUMP JUMPDEST PUSH32 0x4E487B7100000000000000000000000000000000000000000000000000000000 PUSH1 0x0 MSTORE PUSH1 0x11 PUSH1 0x4 MSTORE PUSH1 0x24 PUSH1 0x0 REVERT JUMPDEST PUSH1 0x0 PUSH2 0x4311 DUP3 PUSH2 0x42CD JUMP JUMPDEST SWAP2 POP PUSH2 0x431C DUP4 PUSH2 0x42CD JUMP JUMPDEST SWAP3 POP DUP3 DUP3 ADD SWAP1 POP DUP1 DUP3 GT ISZERO PUSH2 0x4334 JUMPI PUSH2 0x4333 PUSH2 0x42D7 JUMP JUMPDEST JUMPDEST SWAP3 SWAP2 POP POP JUMP JUMPDEST PUSH1 0x0 DUP1 REVERT JUMPDEST PUSH1 0x0 DUP1 REVERT JUMPDEST PUSH2 0x434D DUP2 PUSH2 0x42CD JUMP JUMPDEST DUP2 EQ PUSH2 0x4358 JUMPI PUSH1 0x0 DUP1 REVERT JUMPDEST POP JUMP JUMPDEST PUSH1 0x0 DUP2 CALLDATALOAD SWAP1 POP PUSH2 0x436A DUP2 PUSH2 0x4344 JUMP JUMPDEST SWAP3 SWAP2 POP POP JUMP JUMPDEST PUSH1 0x0 DUP2 SWAP1 POP SWAP2 SWAP1 POP JUMP JUMPDEST PUSH2 0x4383 DUP2 PUSH2 0x4370 JUMP JUMPDEST DUP2 EQ PUSH2 0x438E JUMPI PUSH1 0x0 DUP1 REVERT JUMPDEST POP JUMP JUMPDEST PUSH1 0x0 DUP2 CALLDATALOAD SWAP1 POP PUSH2 0x43A0 DUP2 PUSH2 0x437A JUMP JUMPDEST SWAP3 SWAP2 POP POP JUMP JUMPDEST PUSH1 0x0 DUP1 PUSH1 0x40 DUP4 DUP6 SUB SLT ISZERO PUSH2 0x43BD JUMPI PUSH2 0x43BC PUSH2 0x433A JUMP JUMPDEST JUMPDEST PUSH1 0x0 PUSH2 0x43CB DUP6 DUP3 DUP7 ADD PUSH2 0x435B JUMP JUMPDEST SWAP3 POP POP PUSH1 0x20 PUSH2 0x43DC DUP6 DUP3 DUP7 ADD PUSH2 0x4391 JUMP JUMPDEST SWAP2 POP POP SWAP3 POP SWAP3 SWAP1 POP JUMP JUMPDEST PUSH1 0x0 PUSH20 0xFFFFFFFFFFFFFFFFFFFFFFFFFFFFFFFFFFFFFFFF DUP3 AND SWAP1 POP SWAP2 SWAP1 POP JUMP JUMPDEST PUSH1 0x0 PUSH2 0x4411 DUP3 PUSH2 0x43E6 JUMP JUMPDEST SWAP1 POP SWAP2 SWAP1 POP JUMP JUMPDEST PUSH2 0x4421 DUP2 PUSH2 0x4406 JUMP JUMPDEST DUP2 EQ PUSH2 0x442C JUMPI PUSH1 0x0 DUP1 REVERT JUMPDEST POP JUMP JUMPDEST PUSH1 0x0 DUP2 CALLDATALOAD SWAP1 POP PUSH2 0x443E DUP2 PUSH2 0x4418 JUMP JUMPDEST SWAP3 SWAP2 POP POP JUMP JUMPDEST PUSH1 0x0 PUSH1 0x20 DUP3 DUP5 SUB SLT ISZERO PUSH2 0x445A JUMPI PUSH2 0x4459 PUSH2 0x433A JUMP JUMPDEST JUMPDEST PUSH1 0x0 PUSH2 0x4468 DUP5 DUP3 DUP6 ADD PUSH2 0x442F JUMP JUMPDEST SWAP2 POP POP SWAP3 SWAP2 POP POP JUMP JUMPDEST PUSH2 0x447A DUP2 PUSH2 0x42CD JUMP JUMPDEST DUP3 MSTORE POP POP JUMP JUMPDEST PUSH1 0x0 PUSH1 0x20 DUP3 ADD SWAP1 POP PUSH2 0x4495 PUSH1 0x0 DUP4 ADD DUP5 PUSH2 0x4471 JUMP JUMPDEST SWAP3 SWAP2 POP POP JUMP JUMPDEST PUSH1 0x0 DUP1 REVERT JUMPDEST PUSH1 0x0 DUP1 REVERT JUMPDEST PUSH1 0x0 DUP1 REVERT JUMPDEST PUSH1 0x0 DUP1 DUP4 PUSH1 0x1F DUP5 ADD SLT PUSH2 0x44C0 JUMPI PUSH2 0x44BF PUSH2 0x449B JUMP JUMPDEST JUMPDEST DUP3 CALLDATALOAD SWAP1 POP PUSH8 0xFFFFFFFFFFFFFFFF DUP2 GT ISZERO PUSH2 0x44DD JUMPI PUSH2 0x44DC PUSH2 0x44A0 JUMP JUMPDEST JUMPDEST PUSH1 0x20 DUP4 ADD SWAP2 POP DUP4 PUSH1 0x20 DUP3 MUL DUP4 ADD GT ISZERO PUSH2 0x44F9 JUMPI PUSH2 0x44F8 PUSH2 0x44A5 JUMP JUMPDEST JUMPDEST SWAP3 POP SWAP3 SWAP1 POP JUMP JUMPDEST PUSH1 0x0 DUP1 PUSH1 0x20 DUP4 DUP6 SUB SLT ISZERO PUSH2 0x4517 JUMPI PUSH2 0x4516 PUSH2 0x433A JUMP JUMPDEST JUMPDEST PUSH1 0x0 DUP4 ADD CALLDATALOAD PUSH8 0xFFFFFFFFFFFFFFFF DUP2 GT ISZERO PUSH2 0x4535 JUMPI PUSH2 0x4534 PUSH2 0x433F JUMP JUMPDEST JUMPDEST PUSH2 0x4541 DUP6 DUP3 DUP7 ADD PUSH2 0x44AA JUMP JUMPDEST SWAP3 POP SWAP3 POP POP SWAP3 POP SWAP3 SWAP1 POP JUMP JUMPDEST PUSH1 0x0 DUP2 ISZERO ISZERO SWAP1 POP SWAP2 SWAP1 POP JUMP JUMPDEST PUSH2 0x4562 DUP2 PUSH2 0x454D JUMP JUMPDEST DUP3 MSTORE POP POP JUMP JUMPDEST PUSH1 0x0 PUSH1 0x20 DUP3 ADD SWAP1 POP PUSH2 0x457D PUSH1 0x0 DUP4 ADD DUP5 PUSH2 0x4559 JUMP JUMPDEST SWAP3 SWAP2 POP POP JUMP JUMPDEST PUSH2 0x458C DUP2 PUSH2 0x4406 JUMP JUMPDEST DUP3 MSTORE POP POP JUMP JUMPDEST PUSH1 0x0 PUSH1 0x20 DUP3 ADD SWAP1 POP PUSH2 0x45A7 PUSH1 0x0 DUP4 ADD DUP5 PUSH2 0x4583 JUMP JUMPDEST SWAP3 SWAP2 POP POP JUMP JUMPDEST PUSH1 0x0 PUSH1 0x20 DUP3 DUP5 SUB SLT ISZERO PUSH2 0x45C3 JUMPI PUSH2 0x45C2 PUSH2 0x433A JUMP JUMPDEST JUMPDEST PUSH1 0x0 PUSH2 0x45D1 DUP5 DUP3 DUP6 ADD PUSH2 0x435B JUMP JUMPDEST SWAP2 POP POP SWAP3 SWAP2 POP POP JUMP JUMPDEST PUSH2 0x45E3 DUP2 PUSH2 0x4370 JUMP JUMPDEST DUP3 MSTORE POP POP JUMP JUMPDEST PUSH1 0x0 PUSH1 0x20 DUP3 ADD SWAP1 POP PUSH2 0x45FE PUSH1 0x0 DUP4 ADD DUP5 PUSH2 0x45DA JUMP JUMPDEST SWAP3 SWAP2 POP POP JUMP JUMPDEST PUSH1 0x0 PUSH1 0xFF DUP3 AND SWAP1 POP SWAP2 SWAP1 POP JUMP JUMPDEST PUSH2 0x461A DUP2 PUSH2 0x4604 JUMP JUMPDEST DUP2 EQ PUSH2 0x4625 JUMPI PUSH1 0x0 DUP1 REVERT JUMPDEST POP JUMP JUMPDEST PUSH1 0x0 DUP2 CALLDATALOAD SWAP1 POP PUSH2 0x4637 DUP2 PUSH2 0x4611 JUMP JUMPDEST SWAP3 SWAP2 POP POP JUMP JUMPDEST PUSH1 0x0 PUSH1 0x20 DUP3 DUP5 SUB SLT ISZERO PUSH2 0x4653 JUMPI PUSH2 0x4652 PUSH2 0x433A JUMP JUMPDEST JUMPDEST PUSH1 0x0 PUSH2 0x4661 DUP5 DUP3 DUP6 ADD PUSH2 0x4628 JUMP JUMPDEST SWAP2 POP POP SWAP3 SWAP2 POP POP JUMP JUMPDEST PUSH1 0x0 DUP2 MLOAD SWAP1 POP SWAP2 SWAP1 POP JUMP JUMPDEST PUSH1 0x0 DUP3 DUP3 MSTORE PUSH1 0x20 DUP3 ADD SWAP1 POP SWAP3 SWAP2 POP POP JUMP JUMPDEST PUSH1 0x0 DUP2 SWAP1 POP PUSH1 0x20 DUP3 ADD SWAP1 POP SWAP2 SWAP1 POP JUMP JUMPDEST PUSH2 0x469F DUP2 PUSH2 0x42CD JUMP JUMPDEST DUP3 MSTORE POP POP JUMP JUMPDEST PUSH1 0x0 PUSH2 0x46B1 DUP4 DUP4 PUSH2 0x4696 JUMP JUMPDEST PUSH1 0x20 DUP4 ADD SWAP1 POP SWAP3 SWAP2 POP POP JUMP JUMPDEST PUSH1 0x0 PUSH1 0x20 DUP3 ADD SWAP1 POP SWAP2 SWAP1 POP JUMP JUMPDEST PUSH1 0x0 PUSH2 0x46D5 DUP3 PUSH2 0x466A JUMP JUMPDEST PUSH2 0x46DF DUP2 DUP6 PUSH2 0x4675 JUMP JUMPDEST SWAP4 POP PUSH2 0x46EA DUP4 PUSH2 0x4686 JUMP JUMPDEST DUP1 PUSH1 0x0 JUMPDEST DUP4 DUP2 LT ISZERO PUSH2 0x471B JUMPI DUP2 MLOAD PUSH2 0x4702 DUP9 DUP3 PUSH2 0x46A5 JUMP JUMPDEST SWAP8 POP PUSH2 0x470D DUP4 PUSH2 0x46BD JUMP JUMPDEST SWAP3 POP POP PUSH1 0x1 DUP2 ADD SWAP1 POP PUSH2 0x46EE JUMP JUMPDEST POP DUP6 SWAP4 POP POP POP POP SWAP3 SWAP2 POP POP JUMP JUMPDEST PUSH1 0x0 PUSH1 0x20 DUP3 ADD SWAP1 POP DUP2 DUP2 SUB PUSH1 0x0 DUP4 ADD MSTORE PUSH2 0x4742 DUP2 DUP5 PUSH2 0x46CA JUMP JUMPDEST SWAP1 POP SWAP3 SWAP2 POP POP JUMP JUMPDEST PUSH2 0x4753 DUP2 PUSH2 0x4604 JUMP JUMPDEST DUP3 MSTORE POP POP JUMP JUMPDEST PUSH1 0x0 PUSH1 0xC0 DUP3 ADD SWAP1 POP PUSH2 0x476E PUSH1 0x0 DUP4 ADD DUP10 PUSH2 0x4583 JUMP JUMPDEST PUSH2 0x477B PUSH1 0x20 DUP4 ADD DUP9 PUSH2 0x4471 JUMP JUMPDEST PUSH2 0x4788 PUSH1 0x40 DUP4 ADD DUP8 PUSH2 0x474A JUMP JUMPDEST PUSH2 0x4795 PUSH1 0x60 DUP4 ADD DUP7 PUSH2 0x4559 JUMP JUMPDEST PUSH2 0x47A2 PUSH1 0x80 DUP4 ADD DUP6 PUSH2 0x4559 JUMP JUMPDEST PUSH2 0x47AF PUSH1 0xA0 DUP4 ADD DUP5 PUSH2 0x4471 JUMP JUMPDEST SWAP8 SWAP7 POP POP POP POP POP POP POP JUMP JUMPDEST PUSH1 0x0 DUP1 PUSH1 0x0 DUP1 PUSH1 0x80 DUP6 DUP8 SUB SLT ISZERO PUSH2 0x47D4 JUMPI PUSH2 0x47D3 PUSH2 0x433A JUMP JUMPDEST JUMPDEST PUSH1 0x0 PUSH2 0x47E2 DUP8 DUP3 DUP9 ADD PUSH2 0x435B JUMP JUMPDEST SWAP5 POP POP PUSH1 0x20 PUSH2 0x47F3 DUP8 DUP3 DUP9 ADD PUSH2 0x4391 JUMP JUMPDEST SWAP4 POP POP PUSH1 0x40 PUSH2 0x4804 DUP8 DUP3 DUP9 ADD PUSH2 0x4391 JUMP JUMPDEST SWAP3 POP POP PUSH1 0x60 PUSH2 0x4815 DUP8 DUP3 DUP9 ADD PUSH2 0x435B JUMP JUMPDEST SWAP2 POP POP SWAP3 SWAP6 SWAP2 SWAP5 POP SWAP3 POP JUMP JUMPDEST PUSH1 0x0 PUSH1 0xC0 DUP3 ADD SWAP1 POP PUSH2 0x4836 PUSH1 0x0 DUP4 ADD DUP10 PUSH2 0x4471 JUMP JUMPDEST PUSH2 0x4843 PUSH1 0x20 DUP4 ADD DUP9 PUSH2 0x4471 JUMP JUMPDEST PUSH2 0x4850 PUSH1 0x40 DUP4 ADD DUP8 PUSH2 0x4471 JUMP JUMPDEST PUSH2 0x485D PUSH1 0x60 DUP4 ADD DUP7 PUSH2 0x4471 JUMP JUMPDEST PUSH2 0x486A PUSH1 0x80 DUP4 ADD DUP6 PUSH2 0x4471 JUMP JUMPDEST PUSH2 0x4877 PUSH1 0xA0 DUP4 ADD DUP5 PUSH2 0x4471 JUMP JUMPDEST SWAP8 SWAP7 POP POP POP POP POP POP POP JUMP JUMPDEST PUSH1 0x0 DUP1 PUSH1 0x40 DUP4 DUP6 SUB SLT ISZERO PUSH2 0x4899 JUMPI PUSH2 0x4898 PUSH2 0x433A JUMP JUMPDEST JUMPDEST PUSH1 0x0 PUSH2 0x48A7 DUP6 DUP3 DUP7 ADD PUSH2 0x4628 JUMP JUMPDEST SWAP3 POP POP PUSH1 0x20 PUSH2 0x48B8 DUP6 DUP3 DUP7 ADD PUSH2 0x4391 JUMP JUMPDEST SWAP2 POP POP SWAP3 POP SWAP3 SWAP1 POP JUMP JUMPDEST PUSH1 0x0 DUP2 SWAP1 POP SWAP3 SWAP2 POP POP JUMP JUMPDEST POP JUMP JUMPDEST PUSH1 0x0 PUSH2 0x48DD PUSH1 0x0 DUP4 PUSH2 0x48C2 JUMP JUMPDEST SWAP2 POP PUSH2 0x48E8 DUP3 PUSH2 0x48CD JUMP JUMPDEST PUSH1 0x0 DUP3 ADD SWAP1 POP SWAP2 SWAP1 POP JUMP JUMPDEST PUSH1 0x0 PUSH2 0x48FE DUP3 PUSH2 0x48D0 JUMP JUMPDEST SWAP2 POP DUP2 SWAP1 POP SWAP2 SWAP1 POP JUMP JUMPDEST PUSH1 0x0 PUSH1 0x40 DUP3 ADD SWAP1 POP PUSH2 0x491D PUSH1 0x0 DUP4 ADD DUP6 PUSH2 0x4471 JUMP JUMPDEST PUSH2 0x492A PUSH1 0x20 DUP4 ADD DUP5 PUSH2 0x4583 JUMP JUMPDEST SWAP4 SWAP3 POP POP POP JUMP JUMPDEST PUSH32 0x4E487B7100000000000000000000000000000000000000000000000000000000 PUSH1 0x0 MSTORE PUSH1 0x32 PUSH1 0x4 MSTORE PUSH1 0x24 PUSH1 0x0 REVERT JUMPDEST PUSH1 0x0 PUSH2 0x496B DUP3 PUSH2 0x42CD JUMP JUMPDEST SWAP2 POP PUSH2 0x4976 DUP4 PUSH2 0x42CD JUMP JUMPDEST SWAP3 POP DUP3 DUP3 SUB SWAP1 POP DUP2 DUP2 GT ISZERO PUSH2 0x498E JUMPI PUSH2 0x498D PUSH2 0x42D7 JUMP JUMPDEST JUMPDEST SWAP3 SWAP2 POP POP JUMP JUMPDEST PUSH1 0x0 PUSH1 0x40 DUP3 ADD SWAP1 POP PUSH2 0x49A9 PUSH1 0x0 DUP4 ADD DUP6 PUSH2 0x4583 JUMP JUMPDEST PUSH2 0x49B6 PUSH1 0x20 DUP4 ADD DUP5 PUSH2 0x4471 JUMP JUMPDEST SWAP4 SWAP3 POP POP POP JUMP JUMPDEST PUSH1 0x0 DUP2 SWAP1 POP SWAP2 SWAP1 POP JUMP JUMPDEST PUSH2 0x49D8 PUSH2 0x49D3 DUP3 PUSH2 0x4370 JUMP JUMPDEST PUSH2 0x49BD JUMP JUMPDEST DUP3 MSTORE POP POP JUMP JUMPDEST PUSH1 0x0 PUSH2 0x49EA DUP3 DUP5 PUSH2 0x49C7 JUMP JUMPDEST PUSH1 0x20 DUP3 ADD SWAP2 POP DUP2 SWAP1 POP SWAP3 SWAP2 POP POP JUMP JUMPDEST PUSH1 0x0 PUSH2 0x4A05 DUP3 DUP6 PUSH2 0x49C7 JUMP JUMPDEST PUSH1 0x20 DUP3 ADD SWAP2 POP PUSH2 0x4A15 DUP3 DUP5 PUSH2 0x49C7 JUMP JUMPDEST PUSH1 0x20 DUP3 ADD SWAP2 POP DUP2 SWAP1 POP SWAP4 SWAP3 POP POP POP JUMP JUMPDEST PUSH1 0x0 PUSH2 0x4A30 DUP3 PUSH2 0x42CD JUMP JUMPDEST SWAP2 POP PUSH32 0xFFFFFFFFFFFFFFFFFFFFFFFFFFFFFFFFFFFFFFFFFFFFFFFFFFFFFFFFFFFFFFFF DUP3 SUB PUSH2 0x4A62 JUMPI PUSH2 0x4A61 PUSH2 0x42D7 JUMP JUMPDEST JUMPDEST PUSH1 0x1 DUP3 ADD SWAP1 POP SWAP2 SWAP1 POP JUMP JUMPDEST PUSH1 0x0 PUSH1 0x60 DUP3 ADD SWAP1 POP PUSH2 0x4A82 PUSH1 0x0 DUP4 ADD DUP7 PUSH2 0x4471 JUMP JUMPDEST PUSH2 0x4A8F PUSH1 0x20 DUP4 ADD DUP6 PUSH2 0x474A JUMP JUMPDEST PUSH2 0x4A9C PUSH1 0x40 DUP4 ADD DUP5 PUSH2 0x45DA JUMP JUMPDEST SWAP5 SWAP4 POP POP POP POP JUMP INVALID LOG2 PUSH5 0x6970667358 0x22 SLT KECCAK256 RETF PUSH32 0xB2B1E7E1AE9E4BFF896B9B000C9BEB07155900519EE0CB48A2E0B71E4EDA6473 PUSH16 0x6C634300081E00330000000000000000 "},"methodIdentifiers":{"FIXED_PAYMENT()":"4adf1d32","addAuthorizedFulfiller(address)":"246ce9f7","authorizedFulfillers(address)":"67a0b7bb","canRefund(uint256)":"fc8cc92b","escrowBalanceOf(address)":"987bf9a7","fulfilledCount()":"c5c28fd1","fulfillmentTimeout()":"f82719ca","getContractStats()":"dfe6b5d6","getEntropyCommitment(uint256)":"8bfee347","getRequestMeta(uint256)":"b4aedb54","getRequiredPayment(uint8)":"8d6daf81","getUserRequests(address)":"b337cf74","owner()":"8da5cb5b","pause()":"8456cb59","paused()":"5c975abb","pendingBalance()":"57b4d18e","postFulfillerCommit(uint256,bytes32)":"12792b61","releaseRefunds(address[])":"383ab8d6","removeAuthorizedFulfiller(address)":"fa48388f","renounceOwnership()":"715018a6","requestCount()":"5badbe4c","requestEntropy(uint8,bytes32)":"f58a4288","requestRefund(uint256)":"a4b2409e","revealAndFulfill(uint256,bytes32,bytes32,uint256)":"dd46c3f0","strayBalance()":"850f991d","sweepStray()":"8ceff157","transferOwnership(address)":"f2fde38b","treasury()":"61d027b3","treasuryBalance()":"313dab20","unpause()":"3f4ba83a","updateFulfillmentTimeout(uint256)":"cbcb345b","updateTreasury(address)":"7f51bb1f","withdrawPayments()":"6103d70b","withdrawTreasury()":"166bab95"}}}}}