{
  "_format": "hh-sol-artifact-1",
  "contractName": "BitcoinSprintEntropy",
  "sourceName": "contracts/ethereum/BitcoinSprintEntropy.sol",
  "abi": [
    {
      "inputs": [
        {
          "internalType": "address",
          "name": "_treasury",
          "type": "address"
        }
      ],
      "stateMutability": "nonpayable",
      "type": "constructor"
    },
    {
      "inputs": [],
      "name": "AlreadyFulfilled",
      "type": "error"
    },
    {
      "inputs": [],
      "name": "AlreadyRefunded",
      "type": "error"
    },
    {
      "inputs": [],
      "name": "EnforcedPause",
      "type": "error"
    },
    {
      "inputs": [],
      "name": "ExpectedPause",
      "type": "error"
    },
    {
      "inputs": [],
      "name": "IncorrectPayment",
      "type": "error"
    },
    {
      "inputs": [],
      "name": "InvalidAddress",
      "type": "error"
    },
    {
      "inputs": [],
      "name": "InvalidCommitment",
      "type": "error"
    },
    {
      "inputs": [],
      "name": "InvalidQualityScore",
      "type": "error"
    },
    {
      "inputs": [],
      "name": "InvalidRequestId",
      "type": "error"
    },
    {
      "inputs": [],
      "name": "InvalidTier",
      "type": "error"
    },
    {
      "inputs": [],
      "name": "InvalidTimeout",
      "type": "error"
    },
    {
      "inputs": [],
      "name": "InvalidTreasury",
      "type": "error"
    },
    {
      "inputs": [],
      "name": "NoPayments",
      "type": "error"
    },
    {
      "inputs": [],
      "name": "NotAuthorized",
      "type": "error"
    },
    {
      "inputs": [],
      "name": "NotFulfilled",
      "type": "error"
    },
    {
      "inputs": [
        {
          "internalType": "address",
          "name": "owner",
          "type": "address"
        }
      ],
      "name": "OwnableInvalidOwner",
      "type": "error"
    },
    {
      "inputs": [
        {
          "internalType": "address",
          "name": "account",
          "type": "address"
        }
      ],
      "name": "OwnableUnauthorizedAccount",
      "type": "error"
    },
    {
      "inputs": [],
      "name": "PreimageMismatch",
      "type": "error"
    },
    {
      "inputs": [],
      "name": "ReentrancyGuardReentrantCall",
      "type": "error"
    },
    {
      "inputs": [],
      "name": "TimeoutNotReached",
      "type": "error"
    },
    {
      "inputs": [],
      "name": "TransferFailed",
      "type": "error"
    },
    {
      "anonymous": false,
      "inputs": [
        {
          "indexed": true,
          "internalType": "address",
          "name": "fulfiller",
          "type": "address"
        }
      ],
      "name": "AuthorizedFulfillerAdded",
      "type": "event"
    },
    {
      "anonymous": false,
      "inputs": [
        {
          "indexed": true,
          "internalType": "address",
          "name": "fulfiller",
          "type": "address"
        }
      ],
      "name": "AuthorizedFulfillerRemoved",
      "type": "event"
    },
    {
      "anonymous": false,
      "inputs": [
        {
          "indexed": true,
          "internalType": "uint256",
          "name": "requestId",
          "type": "uint256"
        },
        {
          "indexed": true,
          "internalType": "address",
          "name": "fulfiller",
          "type": "address"
        },
        {
          "indexed": true,
          "internalType": "bytes32",
          "name": "finalEntropyHash",
          "type": "bytes32"
        },
        {
          "indexed": false,
          "internalType": "uint256",
          "name": "qualityScore",
          "type": "uint256"
        }
      ],
      "name": "EntropyFulfilled",
      "type": "event"
    },
    {
      "anonymous": false,
      "inputs": [
        {
          "indexed": true,
          "internalType": "uint256",
          "name": "requestId",
          "type": "uint256"
        },
        {
          "indexed": true,
          "internalType": "address",
          "name": "requester",
          "type": "address"
        },
        {
          "indexed": false,
          "internalType": "uint256",
          "name": "payment",
          "type": "uint256"
        },
        {
          "indexed": false,
          "internalType": "uint8",
          "name": "qualityTier",
          "type": "uint8"
        },
        {
          "indexed": false,
          "internalType": "bytes32",
          "name": "userCommit",
          "type": "bytes32"
        }
      ],
      "name": "EntropyRequested",
      "type": "event"
    },
    {
      "anonymous": false,
      "inputs": [
        {
          "indexed": true,
          "internalType": "address",
          "name": "previousOwner",
          "type": "address"
        },
        {
          "indexed": true,
          "internalType": "address",
          "name": "newOwner",
          "type": "address"
        }
      ],
      "name": "OwnershipTransferred",
      "type": "event"
    },
    {
      "anonymous": false,
      "inputs": [
        {
          "indexed": false,
          "internalType": "address",
          "name": "account",
          "type": "address"
        }
      ],
      "name": "Paused",
      "type": "event"
    },
    {
      "anonymous": false,
      "inputs": [
        {
          "indexed": true,
          "internalType": "uint256",
          "name": "requestId",
          "type": "uint256"
        },
        {
          "indexed": false,
          "internalType": "address",
          "name": "requester",
          "type": "address"
        },
        {
          "indexed": false,
          "internalType": "uint256",
          "name": "amount",
          "type": "uint256"
        }
      ],
      "name": "RefundIssued",
      "type": "event"
    },
    {
      "anonymous": false,
      "inputs": [
        {
          "indexed": true,
          "internalType": "address",
          "name": "oldTreasury",
          "type": "address"
        },
        {
          "indexed": true,
          "internalType": "address",
          "name": "newTreasury",
          "type": "address"
        }
      ],
      "name": "TreasuryUpdated",
      "type": "event"
    },
    {
      "anonymous": false,
      "inputs": [
        {
          "indexed": false,
          "internalType": "uint256",
          "name": "amount",
          "type": "uint256"
        },
        {
          "indexed": false,
          "internalType": "address",
          "name": "to",
          "type": "address"
        }
      ],
      "name": "TreasuryWithdrawn",
      "type": "event"
    },
    {
      "anonymous": false,
      "inputs": [
        {
          "indexed": false,
          "internalType": "address",
          "name": "account",
          "type": "address"
        }
      ],
      "name": "Unpaused",
      "type": "event"
    },
    {
      "stateMutability": "payable",
      "type": "fallback"
    },
    {
      "inputs": [],
      "name": "FIXED_PAYMENT",
      "outputs": [
        {
          "internalType": "uint256",
          "name": "",
          "type": "uint256"
        }
      ],
      "stateMutability": "view",
      "type": "function"
    },
    {
      "inputs": [
        {
          "internalType": "address",
          "name": "fulfiller",
          "type": "address"
        }
      ],
      "name": "addAuthorizedFulfiller",
      "outputs": [],
      "stateMutability": "nonpayable",
      "type": "function"
    },
    {
      "inputs": [
        {
          "internalType": "address",
          "name": "",
          "type": "address"
        }
      ],
      "name": "authorizedFulfillers",
      "outputs": [
        {
          "internalType": "bool",
          "name": "",
          "type": "bool"
        }
      ],
      "stateMutability": "view",
      "type": "function"
    },
    {
      "inputs": [
        {
          "internalType": "uint256",
          "name": "requestId",
          "type": "uint256"
        }
      ],
      "name": "canRefund",
      "outputs": [
        {
          "internalType": "bool",
          "name": "",
          "type": "bool"
        }
      ],
      "stateMutability": "view",
      "type": "function"
    },
    {
      "inputs": [
        {
          "internalType": "address",
          "name": "a",
          "type": "address"
        }
      ],
      "name": "escrowBalanceOf",
      "outputs": [
        {
          "internalType": "uint256",
          "name": "",
          "type": "uint256"
        }
      ],
      "stateMutability": "view",
      "type": "function"
    },
    {
      "inputs": [],
      "name": "fulfilledCount",
      "outputs": [
        {
          "internalType": "uint256",
          "name": "",
          "type": "uint256"
        }
      ],
      "stateMutability": "view",
      "type": "function"
    },
    {
      "inputs": [],
      "name": "fulfillmentTimeout",
      "outputs": [
        {
          "internalType": "uint256",
          "name": "",
          "type": "uint256"
        }
      ],
      "stateMutability": "view",
      "type": "function"
    },
    {
      "inputs": [],
      "name": "getContractStats",
      "outputs": [
        {
          "internalType": "uint256",
          "name": "totalRequests",
          "type": "uint256"
        },
        {
          "internalType": "uint256",
          "name": "totalFulfilled",
          "type": "uint256"
        },
        {
          "internalType": "uint256",
          "name": "contractBalance",
          "type": "uint256"
        },
        {
          "internalType": "uint256",
          "name": "pending",
          "type": "uint256"
        },
        {
          "internalType": "uint256",
          "name": "treasuryReserve",
          "type": "uint256"
        },
        {
          "internalType": "uint256",
          "name": "stray",
          "type": "uint256"
        }
      ],
      "stateMutability": "view",
      "type": "function"
    },
    {
      "inputs": [
        {
          "internalType": "uint256",
          "name": "requestId",
          "type": "uint256"
        }
      ],
      "name": "getEntropyCommitment",
      "outputs": [
        {
          "internalType": "bytes32",
          "name": "",
          "type": "bytes32"
        }
      ],
      "stateMutability": "view",
      "type": "function"
    },
    {
      "inputs": [
        {
          "internalType": "uint256",
          "name": "id",
          "type": "uint256"
        }
      ],
      "name": "getRequestMeta",
      "outputs": [
        {
          "internalType": "address",
          "name": "requester",
          "type": "address"
        },
        {
          "internalType": "uint256",
          "name": "timestamp",
          "type": "uint256"
        },
        {
          "internalType": "uint8",
          "name": "qualityTier",
          "type": "uint8"
        },
        {
          "internalType": "bool",
          "name": "fulfilled",
          "type": "bool"
        },
        {
          "internalType": "bool",
          "name": "refunded",
          "type": "bool"
        },
        {
          "internalType": "uint256",
          "name": "payment",
          "type": "uint256"
        }
      ],
      "stateMutability": "view",
      "type": "function"
    },
    {
      "inputs": [
        {
          "internalType": "uint8",
          "name": "",
          "type": "uint8"
        }
      ],
      "name": "getRequiredPayment",
      "outputs": [
        {
          "internalType": "uint256",
          "name": "",
          "type": "uint256"
        }
      ],
      "stateMutability": "pure",
      "type": "function"
    },
    {
      "inputs": [
        {
          "internalType": "address",
          "name": "user",
          "type": "address"
        }
      ],
      "name": "getUserRequests",
      "outputs": [
        {
          "internalType": "uint256[]",
          "name": "",
          "type": "uint256[]"
        }
      ],
      "stateMutability": "view",
      "type": "function"
    },
    {
      "inputs": [],
      "name": "owner",
      "outputs": [
        {
          "internalType": "address",
          "name": "",
          "type": "address"
        }
      ],
      "stateMutability": "view",
      "type": "function"
    },
    {
      "inputs": [],
      "name": "pause",
      "outputs": [],
      "stateMutability": "nonpayable",
      "type": "function"
    },
    {
      "inputs": [],
      "name": "paused",
      "outputs": [
        {
          "internalType": "bool",
          "name": "",
          "type": "bool"
        }
      ],
      "stateMutability": "view",
      "type": "function"
    },
    {
      "inputs": [],
      "name": "pendingBalance",
      "outputs": [
        {
          "internalType": "uint256",
          "name": "",
          "type": "uint256"
        }
      ],
      "stateMutability": "view",
      "type": "function"
    },
    {
      "inputs": [
        {
          "internalType": "uint256",
          "name": "requestId",
          "type": "uint256"
        },
        {
          "internalType": "bytes32",
          "name": "fulfillerCommit",
          "type": "bytes32"
        }
      ],
      "name": "postFulfillerCommit",
      "outputs": [],
      "stateMutability": "nonpayable",
      "type": "function"
    },
    {
      "inputs": [
        {
          "internalType": "address[]",
          "name": "payees",
          "type": "address[]"
        }
      ],
      "name": "releaseRefunds",
      "outputs": [],
      "stateMutability": "nonpayable",
      "type": "function"
    },
    {
      "inputs": [
        {
          "internalType": "address",
          "name": "fulfiller",
          "type": "address"
        }
      ],
      "name": "removeAuthorizedFulfiller",
      "outputs": [],
      "stateMutability": "nonpayable",
      "type": "function"
    },
    {
      "inputs": [],
      "name": "renounceOwnership",
      "outputs": [],
      "stateMutability": "nonpayable",
      "type": "function"
    },
    {
      "inputs": [],
      "name": "requestCount",
      "outputs": [
        {
          "internalType": "uint256",
          "name": "",
          "type": "uint256"
        }
      ],
      "stateMutability": "view",
      "type": "function"
    },
    {
      "inputs": [
        {
          "internalType": "uint8",
          "name": "qualityTier",
          "type": "uint8"
        },
        {
          "internalType": "bytes32",
          "name": "userCommit",
          "type": "bytes32"
        }
      ],
      "name": "requestEntropy",
      "outputs": [
        {
          "internalType": "uint256",
          "name": "",
          "type": "uint256"
        }
      ],
      "stateMutability": "payable",
      "type": "function"
    },
    {
      "inputs": [
        {
          "internalType": "uint256",
          "name": "requestId",
          "type": "uint256"
        }
      ],
      "name": "requestRefund",
      "outputs": [],
      "stateMutability": "nonpayable",
      "type": "function"
    },
    {
      "inputs": [
        {
          "internalType": "uint256",
          "name": "requestId",
          "type": "uint256"
        },
        {
          "internalType": "bytes32",
          "name": "userPreimage",
          "type": "bytes32"
        },
        {
          "internalType": "bytes32",
          "name": "fulfillerPreimage",
          "type": "bytes32"
        },
        {
          "internalType": "uint256",
          "name": "qualityScore",
          "type": "uint256"
        }
      ],
      "name": "revealAndFulfill",
      "outputs": [],
      "stateMutability": "nonpayable",
      "type": "function"
    },
    {
      "inputs": [],
      "name": "strayBalance",
      "outputs": [
        {
          "internalType": "uint256",
          "name": "",
          "type": "uint256"
        }
      ],
      "stateMutability": "view",
      "type": "function"
    },
    {
      "inputs": [],
      "name": "sweepStray",
      "outputs": [],
      "stateMutability": "nonpayable",
      "type": "function"
    },
    {
      "inputs": [
        {
          "internalType": "address",
          "name": "newOwner",
          "type": "address"
        }
      ],
      "name": "transferOwnership",
      "outputs": [],
      "stateMutability": "nonpayable",
      "type": "function"
    },
    {
      "inputs": [],
      "name": "treasury",
      "outputs": [
        {
          "internalType": "address",
          "name": "",
          "type": "address"
        }
      ],
      "stateMutability": "view",
      "type": "function"
    },
    {
      "inputs": [],
      "name": "treasuryBalance",
      "outputs": [
        {
          "internalType": "uint256",
          "name": "",
          "type": "uint256"
        }
      ],
      "stateMutability": "view",
      "type": "function"
    },
    {
      "inputs": [],
      "name": "unpause",
      "outputs": [],
      "stateMutability": "nonpayable",
      "type": "function"
    },
    {
      "inputs": [
        {
          "internalType": "uint256",
          "name": "newTimeout",
          "type": "uint256"
        }
      ],
      "name": "updateFulfillmentTimeout",
      "outputs": [],
      "stateMutability": "nonpayable",
      "type": "function"
    },
    {
      "inputs": [
        {
          "internalType": "address",
          "name": "newTreasury",
          "type": "address"
        }
      ],
      "name": "updateTreasury",
      "outputs": [],
      "stateMutability": "nonpayable",
      "type": "function"
    },
    {
      "inputs": [],
      "name": "withdrawPayments",
      "outputs": [],
      "stateMutability": "nonpayable",
      "type": "function"
    },
    {
      "inputs": [],
      "name": "withdrawTreasury",
      "outputs": [],
      "stateMutability": "nonpayable",
      "type": "function"
    },
    {
      "stateMutability": "payable",
      "type": "receive"
    }
  ],
  "bytecode": "0x6080604052601e60025534801561001557600080fd5b50604051614f5d380380614f5d8339818101604052810190610037919061041d565b33600073ffffffffffffffffffffffffffffffffffffffff168173ffffffffffffffffffffffffffffffffffffffff16036100aa5760006040517f1e4fbdf70000000000000000000000000000000000000000000000000000000081526004016100a19190610459565b60405180910390fd5b6100b9816102f360201b60201c565b50600180819055506100db67b401d13f1269055260c01b6103b760201b60201c565b6100f5670cdbfa772451f50060c01b6103b760201b60201c565b61010f67f39051cff911f07160c01b6103b760201b60201c565b600073ffffffffffffffffffffffffffffffffffffffff168173ffffffffffffffffffffffffffffffffffffffff160361018f5761015d67ed5921b66a6b315160c01b6103b760201b60201c565b6040517f14bcf5c800000000000000000000000000000000000000000000000000000000815260040160405180910390fd5b6101a967afc299342e8f2d6c60c01b6103b760201b60201c565b6101c367a9207d91c4e1a2af60c01b6103b760201b60201c565b80600860006101000a81548173ffffffffffffffffffffffffffffffffffffffff021916908373ffffffffffffffffffffffffffffffffffffffff16021790555061021e67c833b66352cb6bdd60c01b6103b760201b60201c565b6001600b60003373ffffffffffffffffffffffffffffffffffffffff1673ffffffffffffffffffffffffffffffffffffffff16815260200190815260200160002060006101000a81548160ff02191690831515021790555061029067438348ab2a919f1b60c01b6103b760201b60201c565b6102aa67e2a2aef00a64fcd160c01b6103b760201b60201c565b3373ffffffffffffffffffffffffffffffffffffffff167f4d30243d3dd420952fe6994a84ef13d7eda0eb94f3da88f506d050b518bfa3ce60405160405180910390a250610474565b60008060009054906101000a900473ffffffffffffffffffffffffffffffffffffffff169050816000806101000a81548173ffffffffffffffffffffffffffffffffffffffff021916908373ffffffffffffffffffffffffffffffffffffffff1602179055508173ffffffffffffffffffffffffffffffffffffffff168173ffffffffffffffffffffffffffffffffffffffff167f8be0079c531659141344cd1fd0a4f28419497f9722a3daafe3b4186f6b6457e060405160405180910390a35050565b50565b600080fd5b600073ffffffffffffffffffffffffffffffffffffffff82169050919050565b60006103ea826103bf565b9050919050565b6103fa816103df565b811461040557600080fd5b50565b600081519050610417816103f1565b92915050565b600060208284031215610433576104326103ba565b5b600061044184828501610408565b91505092915050565b610453816103df565b82525050565b600060208201905061046e600083018461044a565b92915050565b614ada806104836000396000f3fe6080604052600436106101fd5760003560e01c80638bfee3471161010d578063c5c28fd1116100a0578063f2fde38b1161006f578063f2fde38b14610741578063f58a42881461076a578063f82719ca1461079a578063fa48388f146107c5578063fc8cc92b146107ee57610230565b8063c5c28fd114610694578063cbcb345b146106bf578063dd46c3f0146106e8578063dfe6b5d61461071157610230565b8063987bf9a7116100dc578063987bf9a7146105af578063a4b2409e146105ec578063b337cf7414610615578063b4aedb541461065257610230565b80638bfee347146104f35780638ceff157146105305780638d6daf81146105475780638da5cb5b1461058457610230565b80635badbe4c1161019057806367a0b7bb1161015f57806367a0b7bb14610434578063715018a6146104715780637f51bb1f146104885780638456cb59146104b1578063850f991d146104c857610230565b80635badbe4c1461039c5780635c975abb146103c75780636103d70b146103f257806361d027b31461040957610230565b8063383ab8d6116101cc578063383ab8d6146103065780633f4ba83a1461032f5780634adf1d321461034657806357b4d18e1461037157610230565b806312792b6114610272578063166bab951461029b578063246ce9f7146102b2578063313dab20146102db57610230565b3661023057610216673084c8a95d073e8f60c01b61082b565b34600760008282546102289190614306565b925050819055005b61024467f35e0025bf09b28660c01b61082b565b61025867ba37e71b6c19132560c01b61082b565b346007600082825461026a9190614306565b925050819055005b34801561027e57600080fd5b50610299600480360381019061029491906143a6565b61082e565b005b3480156102a757600080fd5b506102b0610c7c565b005b3480156102be57600080fd5b506102d960048036038101906102d49190614444565b610f91565b005b3480156102e757600080fd5b506102f0611165565b6040516102fd9190614480565b60405180910390f35b34801561031257600080fd5b5061032d60048036038101906103289190614500565b61116b565b005b34801561033b57600080fd5b5061034461151f565b005b34801561035257600080fd5b5061035b611595565b6040516103689190614480565b60405180910390f35b34801561037d57600080fd5b506103866115a0565b6040516103939190614480565b60405180910390f35b3480156103a857600080fd5b506103b16115a6565b6040516103be9190614480565b60405180910390f35b3480156103d357600080fd5b506103dc6115ac565b6040516103e99190614568565b60405180910390f35b3480156103fe57600080fd5b506104076115c2565b005b34801561041557600080fd5b5061041e61187c565b60405161042b9190614592565b60405180910390f35b34801561044057600080fd5b5061045b60048036038101906104569190614444565b6118a2565b6040516104689190614568565b60405180910390f35b34801561047d57600080fd5b506104866118c2565b005b34801561049457600080fd5b506104af60048036038101906104aa9190614444565b6118d6565b005b3480156104bd57600080fd5b506104c6611af9565b005b3480156104d457600080fd5b506104dd611b6f565b6040516104ea9190614480565b60405180910390f35b3480156104ff57600080fd5b5061051a600480360381019061051591906145ad565b611b75565b60405161052791906145e9565b60405180910390f35b34801561053c57600080fd5b50610545611e7c565b005b34801561055357600080fd5b5061056e6004803603810190610569919061463d565b612191565b60405161057b9190614480565b60405180910390f35b34801561059057600080fd5b506105996121de565b6040516105a69190614592565b60405180910390f35b3480156105bb57600080fd5b506105d660048036038101906105d19190614444565b612207565b6040516105e39190614480565b60405180910390f35b3480156105f857600080fd5b50610613600480360381019061060e91906145ad565b61228c565b005b34801561062157600080fd5b5061063c60048036038101906106379190614444565b612951565b6040516106499190614728565b60405180910390f35b34801561065e57600080fd5b50610679600480360381019061067491906145ad565b612a24565b60405161068b96959493929190614759565b60405180910390f35b3480156106a057600080fd5b506106a9612bf2565b6040516106b69190614480565b60405180910390f35b3480156106cb57600080fd5b506106e660048036038101906106e191906145ad565b612bf8565b005b3480156106f457600080fd5b5061070f600480360381019061070a91906147ba565b612d29565b005b34801561071d57600080fd5b506107266135da565b60405161073896959493929190614821565b60405180910390f35b34801561074d57600080fd5b5061076860048036038101906107639190614444565b613643565b005b610784600480360381019061077f9190614882565b6136c9565b6040516107919190614480565b60405180910390f35b3480156107a657600080fd5b506107af613c8b565b6040516107bc9190614480565b60405180910390f35b3480156107d157600080fd5b506107ec60048036038101906107e79190614444565b613c91565b005b3480156107fa57600080fd5b50610815600480360381019061081091906145ad565b613daf565b6040516108229190614568565b60405180910390f35b50565b610842679d4f1fabf670d7e260c01b61082b565b61085667881e9c59cf40c31660c01b61082b565b61086a67db47df048e66a3e060c01b61082b565b61087e6756bf901e130a42b160c01b61082b565b600b60003373ffffffffffffffffffffffffffffffffffffffff1673ffffffffffffffffffffffffffffffffffffffff16815260200190815260200160002060009054906101000a900460ff168061090857506108d96121de565b73ffffffffffffffffffffffffffffffffffffffff163373ffffffffffffffffffffffffffffffffffffffff16145b6109525761092067a369c595162d58ee60c01b61082b565b6040517fea8e4eb500000000000000000000000000000000000000000000000000000000815260040160405180910390fd5b610966677a2c53aaa89e120460c01b61082b565b61097a67b85052559e8fdb1b60c01b61082b565b61098e67844bfcd25e7337d060c01b61082b565b6109a2679187204acc7e849660c01b61082b565b6109aa613fda565b6109be672308f57f2dd43ddd60c01b61082b565b6109d2677190a04c7d1fcf3760c01b61082b565b6109e667f0c9a841dd20946560c01b61082b565b6109fa67892789381ce71c2460c01b61082b565b600082148015610a1a5750610a1967b0f94e6a7ecd479c60c01b61401b565b5b80610a42575060035482118015610a415750610a406771cbd13c17b894be60c01b61401b565b5b5b15610a8d57610a5b67789cc131943e0e2060c01b61082b565b6040517fba0514c000000000000000000000000000000000000000000000000000000000815260040160405180910390fd5b610aa1673874ec2c0dcba2a160c01b61082b565b610ab56706c05761c35ae41b60c01b61082b565b610ac9677d7615e94babd77c60c01b61082b565b6000600960008481526020019081526020016000209050610af467993929818f3b620c60c01b61082b565b610b08670d076900d2e1c35d60c01b61082b565b8060000160039054906101000a900460ff168015610b365750610b356754e224ba14f72eb760c01b61401b565b5b80610b6b57508060000160049054906101000a900460ff168015610b6a5750610b6967659513fbb6526c4a60c01b61401b565b5b5b15610bb657610b8467e413673b6437e1d260c01b61082b565b6040517f4a4117f900000000000000000000000000000000000000000000000000000000815260040160405180910390fd5b610bca6799cfd1fafa68cec760c01b61082b565b610bde67240cda0ee36efa9a60c01b61082b565b610bf2678c430a46dac7810e60c01b61082b565b6000801b816004015414610c4657610c1467d106857bf72c1eae60c01b61082b565b6040517f4a4117f900000000000000000000000000000000000000000000000000000000815260040160405180910390fd5b610c5a67a82e502246c702a660c01b61082b565b610c6e67a5d0f829e67cb7b160c01b61082b565b818160040181905550505050565b610c9067990012c8fd5acdd160c01b61082b565b610c98614026565b610cac67c03c51faa1828c9460c01b61082b565b610cc067703fe4e2ba613c1f60c01b61082b565b610cc86140ad565b610cdc6743f08c9e7c3d31a560c01b61082b565b610cf0678f4e26a943a0ed4560c01b61082b565b610d04675c6ac7652ebfeb8c60c01b61082b565b610d1867bd15343af007767560c01b61082b565b60006006549050610d33675997977326ff331a60c01b61082b565b610d476790d7a893600c408460c01b61082b565b60008103610d9557610d63670172e71fd7da8cc460c01b61082b565b6040517f0e22dd6400000000000000000000000000000000000000000000000000000000815260040160405180910390fd5b610da967c72eb478ab3ce5cc60c01b61082b565b610dbd67964a9e1fe94c678260c01b61082b565b6000600681905550610dd9678ee516c9259f579a60c01b61082b565b610ded67517758b5c243177360c01b61082b565b6000600860009054906101000a900473ffffffffffffffffffffffffffffffffffffffff1673ffffffffffffffffffffffffffffffffffffffff1682604051610e35906148f3565b60006040518083038185875af1925050503d8060008114610e72576040519150601f19603f3d011682016040523d82523d6000602084013e610e77565b606091505b50509050610e8f672e17ac97da6b7a1560c01b61082b565b610ea3676dfc62ae79bb64b660c01b61082b565b80610eee57610ebc6776b1d6cde901d51f60c01b61082b565b6040517f90b8ec1800000000000000000000000000000000000000000000000000000000815260040160405180910390fd5b610f0267eb47e058e3803f1960c01b61082b565b610f166701da20caddd4496760c01b61082b565b610f2a673c8ca905a306e37760c01b61082b565b7f8a6c78a01514e727ad67ec87d74138b9e0d0a82a6c2536101087ab38c1e5d80582600860009054906101000a900473ffffffffffffffffffffffffffffffffffffffff16604051610f7d929190614908565b60405180910390a15050610f8f6140f3565b565b610fa56797a774d4b0161de660c01b61082b565b610fad614026565b610fc1679330c331a73991d760c01b61082b565b610fd5679f39cedb7482d02c60c01b61082b565b610fe9674142b0da424ca35e60c01b61082b565b610ffd679e2455605d5ef03960c01b61082b565b600073ffffffffffffffffffffffffffffffffffffffff168173ffffffffffffffffffffffffffffffffffffffff16036110775761104567c806b1a6fd484f6160c01b61082b565b6040517fe6c4247b00000000000000000000000000000000000000000000000000000000815260040160405180910390fd5b61108b67f1d85be809be3bd660c01b61082b565b61109f6737cbafcd5fb5036160c01b61082b565b6001600b60008373ffffffffffffffffffffffffffffffffffffffff1673ffffffffffffffffffffffffffffffffffffffff16815260200190815260200160002060006101000a81548160ff02191690831515021790555061110b67a074685ee2a48c4b60c01b61082b565b61111f67691579add15831aa60c01b61082b565b8073ffffffffffffffffffffffffffffffffffffffff167f4d30243d3dd420952fe6994a84ef13d7eda0eb94f3da88f506d050b518bfa3ce60405160405180910390a250565b60065481565b61117f67e208cd39bb6b9c4f60c01b61082b565b611187614026565b61119b67b804997d1f62433a60c01b61082b565b6111af670a09e16c6434532660c01b61082b565b6111b76140ad565b6111cb67696b2e9264ebccf960c01b61082b565b6111df672baa1675f270310160c01b61082b565b6111f36740902e84cc7a30b260c01b61082b565b61120767e2ac498a5d3ddc5060c01b61082b565b60008282905090506112236778601624c4fb65af60c01b61082b565b611237679967474dcb24fc4b60c01b61082b565b60005b8181101561151157611256670a5d4f405f91902c60c01b61082b565b61126a6736a78c02c2aa25b860c01b61082b565b600084848381811061127f5761127e614931565b5b90506020020160208101906112949190614444565b90506112aa6797d96596d666e5b660c01b61082b565b6112be67734e7ac90c38c5ee60c01b61082b565b6000600c60008373ffffffffffffffffffffffffffffffffffffffff1673ffffffffffffffffffffffffffffffffffffffff16815260200190815260200160002054905061131667a3b2c2cf44deb83260c01b61082b565b61132a67ad7619827155433260c01b61082b565b60008111156114ed57611347670b60737195edbbc560c01b61082b565b61135b67bd9ddd558393994c60c01b61082b565b6000600c60008473ffffffffffffffffffffffffffffffffffffffff1673ffffffffffffffffffffffffffffffffffffffff168152602001908152602001600020819055506113b46709f333116491ca1860c01b61082b565b6113c8671dbf7ac0c8925f8b60c01b61082b565b60008273ffffffffffffffffffffffffffffffffffffffff16826040516113ee906148f3565b60006040518083038185875af1925050503d806000811461142b576040519150601f19603f3d011682016040523d82523d6000602084013e611430565b606091505b505090506114486773db37f1bca09e5f60c01b61082b565b61145c6791e990f5f74fe80d60c01b61082b565b806114d257611475672e4c965b547c6bb160c01b61082b565b611489676d9865769876033360c01b61082b565b81600c60008573ffffffffffffffffffffffffffffffffffffffff1673ffffffffffffffffffffffffffffffffffffffff168152602001908152602001600020819055506114e7565b6114e66736f50a250e08c7e460c01b61082b565b5b50611502565b61150167057a0ff9e446d74f60c01b61082b565b5b5050808060010191505061123a565b505061151b6140f3565b5050565b61153367e69320cd79bd5a8860c01b61082b565b61153b614026565b61154f670dc9048de94456fd60c01b61082b565b61156367a9114e2ff4ebd68c60c01b61082b565b6115776706a366ac471b631c60c01b61082b565b61158b6736859014961d3cce60c01b61082b565b6115936140fc565b565b660110d9316ec00081565b60055481565b60035481565b60008060149054906101000a900460ff16905090565b6115d66731b323a62e59b09060c01b61082b565b6115de6140ad565b6115f267db97f1f4ee67797c60c01b61082b565b61160667a83e85b244edd03e60c01b61082b565b61161a672f7e496c908f94d260c01b61082b565b61162e67130de8dce4e9313460c01b61082b565b6000600c60003373ffffffffffffffffffffffffffffffffffffffff1673ffffffffffffffffffffffffffffffffffffffff16815260200190815260200160002054905061168667f5fd52bd1fa4975060c01b61082b565b61169a67e7e970c61c53253f60c01b61082b565b600081036116e8576116b667cb50c1b9b83f1dcd60c01b61082b565b6040517f0e22dd6400000000000000000000000000000000000000000000000000000000815260040160405180910390fd5b6116fc67a19d658709d2daed60c01b61082b565b61171067b80ca5e26f192ebf60c01b61082b565b6000600c60003373ffffffffffffffffffffffffffffffffffffffff1673ffffffffffffffffffffffffffffffffffffffff168152602001908152602001600020819055506117696714109f29a9944bb460c01b61082b565b61177d6748fe53ed9905a49860c01b61082b565b60003373ffffffffffffffffffffffffffffffffffffffff16826040516117a3906148f3565b60006040518083038185875af1925050503d80600081146117e0576040519150601f19603f3d011682016040523d82523d6000602084013e6117e5565b606091505b505090506117fd67198490e72d86165560c01b61082b565b6118116773c0d3a6e3e93e7360c01b61082b565b8061185c5761182a674942a51a2109387560c01b61082b565b6040517f90b8ec1800000000000000000000000000000000000000000000000000000000815260040160405180910390fd5b6118706751aa78aae237fcdb60c01b61082b565b505061187a6140f3565b565b600860009054906101000a900473ffffffffffffffffffffffffffffffffffffffff1681565b600b6020528060005260406000206000915054906101000a900460ff1681565b6118ca614026565b6118d4600061415e565b565b6118ea679e5edffb9e91007360c01b61082b565b6118f2614026565b61190667b9bda6f042265c9a60c01b61082b565b61191a67d92bd80762f9dcfb60c01b61082b565b61192e67af54b8e20c2276f860c01b61082b565b6119426794437fe7b175b81960c01b61082b565b600073ffffffffffffffffffffffffffffffffffffffff168173ffffffffffffffffffffffffffffffffffffffff16036119bc5761198a67b86889ff6dd6118e60c01b61082b565b6040517fe6c4247b00000000000000000000000000000000000000000000000000000000815260040160405180910390fd5b6119d0674be82b2df08e25ac60c01b61082b565b6119e4678f0a0b7d52446fb660c01b61082b565b6119f8670869fbc30a62795a60c01b61082b565b6000600860009054906101000a900473ffffffffffffffffffffffffffffffffffffffff169050611a33678dcbe4135bdea44b60c01b61082b565b81600860006101000a81548173ffffffffffffffffffffffffffffffffffffffff021916908373ffffffffffffffffffffffffffffffffffffffff160217905550611a8766906216de7b889a60c01b61082b565b611a9b67d80b433899798c4760c01b61082b565b8173ffffffffffffffffffffffffffffffffffffffff168173ffffffffffffffffffffffffffffffffffffffff167f4ab5be82436d353e61ca18726e984e561f5c1cc7c6d38b29d2553c790434705a60405160405180910390a35050565b611b0d67dfee9ec57c7e6f1160c01b61082b565b611b15614026565b611b29676c116cd925298de760c01b61082b565b611b3d6728bc85adde0f6ae160c01b61082b565b611b51678909cf69c069ada760c01b61082b565b611b65673cf4b5d78d1271b260c01b61082b565b611b6d614222565b565b60075481565b6000611b8b67f78bd573cddfa8b560c01b61082b565b611b9f67308d4c634e7bedcc60c01b61082b565b611bb3674f76e000e852b11660c01b61082b565b600082148015611bd35750611bd2673c0c65b0244773ca60c01b61401b565b5b80611bfb575060035482118015611bfa5750611bf967f9a4c57de2a7863f60c01b61401b565b5b5b15611c4657611c1467f6d17c771e1e292260c01b61082b565b6040517fba0514c000000000000000000000000000000000000000000000000000000000815260040160405180910390fd5b611c5a6744aa42b02aaf3f1760c01b61082b565b611c6e675e32a9c85935331560c01b61082b565b611c8267c0c875ad06afb77760c01b61082b565b6000600960008481526020019081526020016000209050611cad674c393a019426f0aa60c01b61082b565b611cc1670defa43a0c05eef660c01b61082b565b8060000160039054906101000a900460ff16611d1d57611ceb67fb78d48978323e9360c01b61082b565b6040517f07bc6c3e00000000000000000000000000000000000000000000000000000000815260040160405180910390fd5b611d3167cefe3b5e9bb7ea6d60c01b61082b565b611d45677218b3ab12fd921e60c01b61082b565b611d59678ab43ed58e19e35a60c01b61082b565b3373ffffffffffffffffffffffffffffffffffffffff168160000160059054906101000a900473ffffffffffffffffffffffffffffffffffffffff1673ffffffffffffffffffffffffffffffffffffffff161480611de95750611dba6121de565b73ffffffffffffffffffffffffffffffffffffffff163373ffffffffffffffffffffffffffffffffffffffff16145b611e3357611e0167e5154855ae0cfd2e60c01b61082b565b6040517fea8e4eb500000000000000000000000000000000000000000000000000000000815260040160405180910390fd5b611e4767c840a48303d7ae9a60c01b61082b565b611e5b677331fd3fa511095960c01b61082b565b611e6f671a5efad98af1ef4d60c01b61082b565b8060050154915050919050565b611e906714ef289706a560f560c01b61082b565b611e98614026565b611eac67fbfd14956cee0c6d60c01b61082b565b611ec06704e54735218fa6d460c01b61082b565b611ec86140ad565b611edc67ce081c7e3fc8977d60c01b61082b565b611ef0676af4067efb721a9f60c01b61082b565b611f0467d57c646e893456d460c01b61082b565b611f186706d766bc9072427460c01b61082b565b60006007549050611f33672ff917471e3b7d0460c01b61082b565b611f4767fffab99f461080d560c01b61082b565b60008103611f9557611f6367ed1e3730b823fa2d60c01b61082b565b6040517f0e22dd6400000000000000000000000000000000000000000000000000000000815260040160405180910390fd5b611fa9673cd8473c1ff838b160c01b61082b565b611fbd67032c2e6ce65fdbf660c01b61082b565b6000600781905550611fd96782e4fd2b1e1834fa60c01b61082b565b611fed67aa9f53cbb31228a160c01b61082b565b6000600860009054906101000a900473ffffffffffffffffffffffffffffffffffffffff1673ffffffffffffffffffffffffffffffffffffffff1682604051612035906148f3565b60006040518083038185875af1925050503d8060008114612072576040519150601f19603f3d011682016040523d82523d6000602084013e612077565b606091505b5050905061208f67fe27fbaba068b60e60c01b61082b565b6120a3679c13c5c757e9679260c01b61082b565b806120ee576120bc67f3927a21b21c706460c01b61082b565b6040517f90b8ec1800000000000000000000000000000000000000000000000000000000815260040160405180910390fd5b612102670f8b24154af11e8e60c01b61082b565b612116671599191e6a409d1360c01b61082b565b61212a67f0d5cdc68616ed5560c01b61082b565b7f8a6c78a01514e727ad67ec87d74138b9e0d0a82a6c2536101087ab38c1e5d80582600860009054906101000a900473ffffffffffffffffffffffffffffffffffffffff1660405161217d929190614908565b60405180910390a1505061218f6140f3565b565b60006121a767571a6518108b9f7a60c01b61082b565b6121bb673dd358e4a6f05f8f60c01b61082b565b6121cf67b2db26eb5223443760c01b61082b565b660110d9316ec0009050919050565b60008060009054906101000a900473ffffffffffffffffffffffffffffffffffffffff16905090565b600061221d67a75247766393971b60c01b61082b565b612231672073d08d94ab463260c01b61082b565b612245676a72b81ba3873c4360c01b61082b565b600c60008373ffffffffffffffffffffffffffffffffffffffff1673ffffffffffffffffffffffffffffffffffffffff168152602001908152602001600020549050919050565b6122a06794b5ab792ce4e65460c01b61082b565b6122a8613fda565b6122bc6737ecd48f5ad7cee860c01b61082b565b6122d0676ca4f6361c09404f60c01b61082b565b6122d86140ad565b6122ec676fab258b0c43293c60c01b61082b565b612300670ceb4585bfaf0b2860c01b61082b565b61231467c3fe3d69066ea46060c01b61082b565b61232867db500f3d6bd4773f60c01b61082b565b6000811480156123485750612347676781703eaedf574f60c01b61401b565b5b8061237057506003548111801561236f575061236e67ee7c69a5ba7ce20460c01b61401b565b5b5b156123bb5761238967d1cf1e932a1a14d560c01b61082b565b6040517fba0514c000000000000000000000000000000000000000000000000000000000815260040160405180910390fd5b6123cf67429f864a9d60a52360c01b61082b565b6123e367f462c97f627babf260c01b61082b565b6123f767fbd58d74f6d262c160c01b61082b565b600060096000838152602001908152602001600020905061242267030e0f4884007c2260c01b61082b565b61243667b1b0cdac7f736b5560c01b61082b565b3373ffffffffffffffffffffffffffffffffffffffff168160000160059054906101000a900473ffffffffffffffffffffffffffffffffffffffff1673ffffffffffffffffffffffffffffffffffffffff16146124d3576124a167c8e325117660cd6c60c01b61082b565b6040517fea8e4eb500000000000000000000000000000000000000000000000000000000815260040160405180910390fd5b6124e767712696c8e3c75e3360c01b61082b565b6124fb67afcc8ada0e00454d60c01b61082b565b61250f67ac7568a07af33c5860c01b61082b565b8060000160039054906101000a900460ff161561256c5761253a676689e7277ef4b71160c01b61082b565b6040517f4a4117f900000000000000000000000000000000000000000000000000000000815260040160405180910390fd5b612580671ee4d10bfcbbeaeb60c01b61082b565b6125946716cf606bd5aae9b260c01b61082b565b6125a8677c6853d8fa018b8e60c01b61082b565b8060000160049054906101000a900460ff1615612605576125d367508a92e1949ea10560c01b61082b565b6040517fa85e6f1a00000000000000000000000000000000000000000000000000000000815260040160405180910390fd5b61261967a4b14c587d89607b60c01b61082b565b61262d67547b9a2f2eb8c46e60c01b61082b565b61264167214cf305d8b0008860c01b61082b565b60025481600101546126539190614306565b4210156126a05761266e67f84f1aeaa5ca1ab860c01b61082b565b6040517f9b0056ac00000000000000000000000000000000000000000000000000000000815260040160405180910390fd5b6126b467b8a371ce8c7a3bbd60c01b61082b565b6126c867fadb02a42a4f3da160c01b61082b565b60018160000160046101000a81548160ff0219169083151502179055506126f9679490c8828360619b60c01b61082b565b61270d67f4542415a8fbfdba60c01b61082b565b60008160060154905061272a67c801ec9f8e78f36560c01b61082b565b61273e67776684fa127d026960c01b61082b565b60008111156128a95761275b672e600ee9ce22551b60c01b61082b565b61276f679b52f5a15a5fb28d60c01b61082b565b80600560008282546127819190614960565b9250508190555061279c671d11efb0732fa95060c01b61082b565b6127b067a65d031dbf2b270b60c01b61082b565b60003373ffffffffffffffffffffffffffffffffffffffff16826040516127d6906148f3565b60006040518083038185875af1925050503d8060008114612813576040519150601f19603f3d011682016040523d82523d6000602084013e612818565b606091505b505090506128306743f7857bfca61b9460c01b61082b565b61284467116e09123b1da7e960c01b61082b565b8061288f5761285d6769b4c0d64c82ffba60c01b61082b565b6040517f90b8ec1800000000000000000000000000000000000000000000000000000000815260040160405180910390fd5b6128a367ac78df2032889c2c60c01b61082b565b506128be565b6128bd677121f70ee91480c060c01b61082b565b5b6128d2672ede3c20654a2fd860c01b61082b565b6128e667ad2031aec02f4a1760c01b61082b565b827f7a482fdeb6bc9a1376f597068a214a7a39472bb2eff1b8cad21ba04f49ddca1b8360000160059054906101000a900473ffffffffffffffffffffffffffffffffffffffff168360405161293c929190614994565b60405180910390a2505061294e6140f3565b50565b606061296767c755d4a647471a4460c01b61082b565b61297b67457df8b3777bbded60c01b61082b565b61298f67054ed0a5b24b62fe60c01b61082b565b600a60008373ffffffffffffffffffffffffffffffffffffffff1673ffffffffffffffffffffffffffffffffffffffff168152602001908152602001600020805480602002602001604051908101604052809291908181526020018280548015612a1857602002820191906000526020600020905b815481526020019060010190808311612a04575b50505050509050919050565b600080600080600080612a416749d2a4ce4bb1904060c01b61082b565b612a556753d0386eb77b1d2260c01b61082b565b612a6967fe1064155f2267c660c01b61082b565b600087148015612a895750612a8867262a6345c4bddef160c01b61401b565b5b80612ab1575060035487118015612ab05750612aaf67fa7a12b5e1cc125860c01b61401b565b5b5b15612afc57612aca67402fd01d548d65a160c01b61082b565b6040517fba0514c000000000000000000000000000000000000000000000000000000000815260040160405180910390fd5b612b106789d3d5b009f4fc8660c01b61082b565b612b2467af000f1f9845096560c01b61082b565b612b3867fba161aa4bf54a1a60c01b61082b565b6000600960008981526020019081526020016000209050612b6367a21f0c095c2cf3dd60c01b61082b565b612b7767c8e08f2003d6f17460c01b61082b565b8060000160059054906101000a900473ffffffffffffffffffffffffffffffffffffffff1681600101548260000160009054906101000a900460ff168360000160039054906101000a900460ff168460000160049054906101000a900460ff1685600601549650965096509650965096505091939550919395565b60045481565b612c0c679feac3a15069833560c01b61082b565b612c14614026565b612c286764447ff3aac37bfa60c01b61082b565b612c3c67a323125f54f72c6060c01b61082b565b612c50678ef39d2555a254f360c01b61082b565b612c6467d7e3787aacf5cc0460c01b61082b565b600a81108015612c845750612c83674d299adb96a3337060c01b61401b565b5b80612cac5750610e1081118015612cab5750612caa67f4ed4dff48e8319660c01b61401b565b5b5b15612cf757612cc567a4430343a6506a7a60c01b61082b565b6040517f7fee1bc400000000000000000000000000000000000000000000000000000000815260040160405180910390fd5b612d0b6759086226b4f48fae60c01b61082b565b612d1f67286b9218a71f6be360c01b61082b565b8060028190555050565b612d3d67d946d66838c948ff60c01b61082b565b612d5167881e9c59cf40c31660c01b61082b565b612d6567db47df048e66a3e060c01b61082b565b612d796756bf901e130a42b160c01b61082b565b600b60003373ffffffffffffffffffffffffffffffffffffffff1673ffffffffffffffffffffffffffffffffffffffff16815260200190815260200160002060009054906101000a900460ff1680612e035750612dd46121de565b73ffffffffffffffffffffffffffffffffffffffff163373ffffffffffffffffffffffffffffffffffffffff16145b612e4d57612e1b67a369c595162d58ee60c01b61082b565b6040517fea8e4eb500000000000000000000000000000000000000000000000000000000815260040160405180910390fd5b612e61677a2c53aaa89e120460c01b61082b565b612e7567b85052559e8fdb1b60c01b61082b565b612e8967945c33ed36dfcb8560c01b61082b565b612e9d67e2f1181fe7929ff660c01b61082b565b612ea56140ad565b612eb9671ed7734050797c3f60c01b61082b565b612ecd67cd5eb81942ae033760c01b61082b565b612ee167d0ac3c8f8496229760c01b61082b565b612ef5672fee4a615a74a8d360c01b61082b565b600084148015612f155750612f1467324efb5067aab94260c01b61401b565b5b80612f3d575060035484118015612f3c5750612f3b67e4d19ceb9b9d4f7e60c01b61401b565b5b5b15612f8857612f5667c1ee05124c2e45a460c01b61082b565b6040517fba0514c000000000000000000000000000000000000000000000000000000000815260040160405180910390fd5b612f9c67dc882cf6653df66260c01b61082b565b612fb067d999181132dfb28760c01b61082b565b612fc467d5b070290601c14f60c01b61082b565b6000600960008681526020019081526020016000209050612fef67ed266aacc10f966460c01b61082b565b61300367a2c665c89e01b1cc60c01b61082b565b8060000160039054906101000a900460ff16156130605761302e674bb64b2c0cecc2e060c01b61082b565b6040517f4a4117f900000000000000000000000000000000000000000000000000000000815260040160405180910390fd5b61307467bdacfba23abe142560c01b61082b565b61308867165ff1e7feb6631e60c01b61082b565b61309c67e047877bb8870cb160c01b61082b565b8060000160049054906101000a900460ff16156130f9576130c76737b7c9c4f9026a7660c01b61082b565b6040517fa85e6f1a00000000000000000000000000000000000000000000000000000000815260040160405180910390fd5b61310d67238b327e0c84855d60c01b61082b565b61312167bb7fd1be8c3f017660c01b61082b565b613135679c40b4095f5137c060c01b61082b565b6127108211156131855761315367494ea533affe41b960c01b61082b565b6040517fc8cc901300000000000000000000000000000000000000000000000000000000815260040160405180910390fd5b613199679d4349187be640e260c01b61082b565b6131ad67c58ed3ccf18f811e60c01b61082b565b6131c16740f93a2a0e69443060c01b61082b565b6000846040516020016131d491906149de565b60405160208183030381529060405280519060200120905061320067429351ee7d0b196d60c01b61082b565b61321467447c61e9349ae61b60c01b61082b565b60008460405160200161322791906149de565b60405160208183030381529060405280519060200120905061325367382f2862b0aae69c60c01b61082b565b613267675ee81b0f0390cd1660c01b61082b565b6000801b836003015414158015613282575082600301548214155b156132cd5761329b671be9bfc8ee77d38260c01b61082b565b6040517f6f43bb6300000000000000000000000000000000000000000000000000000000815260040160405180910390fd5b6132e1676f51b66e48e1c8ea60c01b61082b565b6132f5672af8b648a941ac3b60c01b61082b565b61330967341ddf1ef722e45e60c01b61082b565b8260040154811461335a5761332867237d8199c89debb860c01b61082b565b6040517f6f43bb6300000000000000000000000000000000000000000000000000000000815260040160405180910390fd5b61336e676d31288f9334f92f60c01b61082b565b613382674288e5ad94ac906760c01b61082b565b85856040516020016133959291906149f9565b6040516020818303038152906040528051906020012083600501819055506133c7673c5fa957478c8aab60c01b61082b565b60018360000160036101000a81548160ff0219169083151502179055506133f867a49ccb805ad5ff2560c01b61082b565b838360000160016101000a81548161ffff021916908361ffff16021790555061342b67b92d08ec8ef0f62060c01b61082b565b42836002018190555061344867f7275fe9c89e8ab160c01b61082b565b60016004600082825461345b9190614306565b92505081905550613476677b793d3182f0ed3f60c01b61082b565b61348a6785c552adeae8de5460c01b61082b565b6000836006015490506134a7674db9862190b2e58460c01b61082b565b6134bb67db5effc13566aae660c01b61082b565b6000811115613537576134d867b1eb190c8f44d5ee60c01b61082b565b6134ec67a4771986758afdf860c01b61082b565b80600560008282546134fe9190614960565b9250508190555061351967a837fe14c3454d1560c01b61082b565b806006600082825461352b9190614306565b9250508190555061354c565b61354b67b828459592cf27e260c01b61082b565b5b6135606741a8673faccedf7060c01b61082b565b61357467984ce018725f24d960c01b61082b565b83600501543373ffffffffffffffffffffffffffffffffffffffff16897fcea07ad5d3a8e3289656dd4f7e6b1cb58a8c4dbe65a743a6e5edbbd9dcc716f1886040516135c09190614480565b60405180910390a4505050506135d46140f3565b50505050565b6000806000806000806135f76750dda3e2672c7de860c01b61082b565b61360b67f6da44ab14b3147560c01b61082b565b61361f678b56e323d4bc612260c01b61082b565b60035460045447600554600654600754955095509550955095509550909192939495565b61364b614026565b600073ffffffffffffffffffffffffffffffffffffffff168173ffffffffffffffffffffffffffffffffffffffff16036136bd5760006040517f1e4fbdf70000000000000000000000000000000000000000000000000000000081526004016136b49190614592565b60405180910390fd5b6136c68161415e565b50565b60006136df67a88be615c841a07b60c01b61082b565b6136e7613fda565b6136fb6756c805416ed467e760c01b61082b565b61370f67214662bb994fbcca60c01b61082b565b6137176140ad565b61372b6746429d76a7fe0b6760c01b61082b565b61373f67102fb85972b384ca60c01b61082b565b613753672555cfe7df0c764660c01b61082b565b6137676741aeeb48708cc05260c01b61082b565b60018360ff1610801561378a5750613789674894075ff965c45a60c01b61401b565b5b806137b4575060038360ff161180156137b357506137b2673d44a8da397df42160c01b61401b565b5b5b156137ff576137cd67e65259daefe3bafb60c01b61082b565b6040517fe142361700000000000000000000000000000000000000000000000000000000815260040160405180910390fd5b6138136791f0be7a910aea4e60c01b61082b565b61382767de3af96993681c7760c01b61082b565b61383b67820c03cd84f70f6260c01b61082b565b660110d9316ec000341461388f5761385d679f08794ecff26a8160c01b61082b565b6040517f569e8c1100000000000000000000000000000000000000000000000000000000815260040160405180910390fd5b6138a367d957ec0d728ebc6b60c01b61082b565b6138b76742cdd2c4cbe0e77160c01b61082b565b6138cb672f7a7c073814d5e260c01b61082b565b6000801b820361391b576138e96761a3e33fff3fcbf960c01b61082b565b6040517fc06789fa00000000000000000000000000000000000000000000000000000000815260040160405180910390fd5b61392f67051191851de3ca2260c01b61082b565b61394367a740079e543f0ead60c01b61082b565b61395767247550324a74cf2a60c01b61082b565b600060036000815461396890614a25565b9190508190559050613984670e5632be2a5865bb60c01b61082b565b6040518061016001604052808560ff168152602001600061ffff1681526020016000151581526020016000151581526020013373ffffffffffffffffffffffffffffffffffffffff168152602001428152602001600081526020018481526020016000801b81526020016000801b8152602001348152506009600083815260200190815260200160002060008201518160000160006101000a81548160ff021916908360ff16021790555060208201518160000160016101000a81548161ffff021916908361ffff16021790555060408201518160000160036101000a81548160ff02191690831515021790555060608201518160000160046101000a81548160ff02191690831515021790555060808201518160000160056101000a81548173ffffffffffffffffffffffffffffffffffffffff021916908373ffffffffffffffffffffffffffffffffffffffff16021790555060a0820151816001015560c0820151816002015560e08201518160030155610100820151816004015561012082015181600501556101408201518160060155905050613b2f678a7f3785c51fb6d960c01b61082b565b613b43675f1ba195ef07bb3160c01b61082b565b600a60003373ffffffffffffffffffffffffffffffffffffffff1673ffffffffffffffffffffffffffffffffffffffff168152602001908152602001600020819080600181540180825580915050600190039060005260206000200160009091909190915055613bbd676b3bedbe6f880cfe60c01b61082b565b3460056000828254613bcf9190614306565b92505081905550613bea67975e4a0bba65974360c01b61082b565b613bfe67d4a97688c627cc8f60c01b61082b565b3373ffffffffffffffffffffffffffffffffffffffff16817f572bbc94e20d9cc206a294f4ec2c92781bdf0ff9d8a4d4202f7c045093628855348787604051613c4993929190614a6d565b60405180910390a3613c65674baa21cf9d457f0d60c01b61082b565b613c79674094a0c5541a315160c01b61082b565b80915050613c856140f3565b92915050565b60025481565b613ca567b2126e2203ea572d60c01b61082b565b613cad614026565b613cc167452a54af108a68ed60c01b61082b565b613cd567614282210cd7585160c01b61082b565b613ce9675cb6d9888df6fa8660c01b61082b565b6000600b60008373ffffffffffffffffffffffffffffffffffffffff1673ffffffffffffffffffffffffffffffffffffffff16815260200190815260200160002060006101000a81548160ff021916908315150217905550613d556796c437d4b96fdde060c01b61082b565b613d696747c933b78b8ccc2960c01b61082b565b8073ffffffffffffffffffffffffffffffffffffffff167f8cc55edd97b1681f7db6157cf9dfeab2ed6dfa3b3e5b7e287e136ac67cbc544560405160405180910390a250565b6000613dc567a131e317c0bb29d660c01b61082b565b613dd967c3105294d314728560c01b61082b565b613ded67d87773353669a80860c01b61082b565b600082148015613e0d5750613e0c67d14d0f7b5e8bb56060c01b61401b565b5b80613e35575060035482118015613e345750613e3367066e23dcd87b1cd760c01b61401b565b5b5b15613e6b57613e4e671a5413106da3f64560c01b61082b565b613e6267ef20901bac341d2560c01b61082b565b60009050613fd5565b613e7f67507b51c3377d528460c01b61082b565b613e9367c4f5670c91614c1e60c01b61082b565b613ea7674854e12b989dfa5f60c01b61082b565b6000600960008481526020019081526020016000209050613ed2671cfc98b0deda834760c01b61082b565b613ee667a65fdc181b22b84760c01b61082b565b8060000160039054906101000a900460ff168015613f145750613f13673e1d3d720d997ea260c01b61401b565b5b80613f4957508060000160049054906101000a900460ff168015613f485750613f4767cea42a5fc107e80260c01b61401b565b5b5b15613f8057613f6267f1a65e0d335753fc60c01b61082b565b613f76678c829bf2743e09a960c01b61082b565b6000915050613fd5565b613f946748255fa88f336d6060c01b61082b565b613fa867803623e5794161d560c01b61082b565b613fbc67a08cc44d1e128d4d60c01b61082b565b6002548160010154613fce9190614306565b4210159150505b919050565b613fe26115ac565b15614019576040517fd93c066500000000000000000000000000000000000000000000000000000000815260040160405180910390fd5b565b600060019050919050565b61402e614285565b73ffffffffffffffffffffffffffffffffffffffff1661404c6121de565b73ffffffffffffffffffffffffffffffffffffffff16146140ab5761406f614285565b6040517f118cdaa70000000000000000000000000000000000000000000000000000000081526004016140a29190614592565b60405180910390fd5b565b6002600154036140e9576040517f3ee5aeb500000000000000000000000000000000000000000000000000000000815260040160405180910390fd5b6002600181905550565b60018081905550565b61410461428d565b60008060146101000a81548160ff0219169083151502179055507f5db9ee0a495bf2e6ff9c91a7834c1ba4fdd244a5e8aa4e537bd38aeae4b073aa614147614285565b6040516141549190614592565b60405180910390a1565b60008060009054906101000a900473ffffffffffffffffffffffffffffffffffffffff169050816000806101000a81548173ffffffffffffffffffffffffffffffffffffffff021916908373ffffffffffffffffffffffffffffffffffffffff1602179055508173ffffffffffffffffffffffffffffffffffffffff168173ffffffffffffffffffffffffffffffffffffffff167f8be0079c531659141344cd1fd0a4f28419497f9722a3daafe3b4186f6b6457e060405160405180910390a35050565b61422a613fda565b6001600060146101000a81548160ff0219169083151502179055507f62e78cea01bee320cd4e420270b5ea74000d11b0c9f74754ebdbfc544b05a25861426e614285565b60405161427b9190614592565b60405180910390a1565b600033905090565b6142956115ac565b6142cb576040517f8dfc202b00000000000000000000000000000000000000000000000000000000815260040160405180910390fd5b565b6000819050919050565b7f4e487b7100000000000000000000000000000000000000000000000000000000600052601160045260246000fd5b6000614311826142cd565b915061431c836142cd565b9250828201905080821115614334576143336142d7565b5b92915050565b600080fd5b600080fd5b61434d816142cd565b811461435857600080fd5b50565b60008135905061436a81614344565b92915050565b6000819050919050565b61438381614370565b811461438e57600080fd5b50565b6000813590506143a08161437a565b92915050565b600080604083850312156143bd576143bc61433a565b5b60006143cb8582860161435b565b92505060206143dc85828601614391565b9150509250929050565b600073ffffffffffffffffffffffffffffffffffffffff82169050919050565b6000614411826143e6565b9050919050565b61442181614406565b811461442c57600080fd5b50565b60008135905061443e81614418565b92915050565b60006020828403121561445a5761445961433a565b5b60006144688482850161442f565b91505092915050565b61447a816142cd565b82525050565b60006020820190506144956000830184614471565b92915050565b600080fd5b600080fd5b600080fd5b60008083601f8401126144c0576144bf61449b565b5b8235905067ffffffffffffffff8111156144dd576144dc6144a0565b5b6020830191508360208202830111156144f9576144f86144a5565b5b9250929050565b600080602083850312156145175761451661433a565b5b600083013567ffffffffffffffff8111156145355761453461433f565b5b614541858286016144aa565b92509250509250929050565b60008115159050919050565b6145628161454d565b82525050565b600060208201905061457d6000830184614559565b92915050565b61458c81614406565b82525050565b60006020820190506145a76000830184614583565b92915050565b6000602082840312156145c3576145c261433a565b5b60006145d18482850161435b565b91505092915050565b6145e381614370565b82525050565b60006020820190506145fe60008301846145da565b92915050565b600060ff82169050919050565b61461a81614604565b811461462557600080fd5b50565b60008135905061463781614611565b92915050565b6000602082840312156146535761465261433a565b5b600061466184828501614628565b91505092915050565b600081519050919050565b600082825260208201905092915050565b6000819050602082019050919050565b61469f816142cd565b82525050565b60006146b18383614696565b60208301905092915050565b6000602082019050919050565b60006146d58261466a565b6146df8185614675565b93506146ea83614686565b8060005b8381101561471b57815161470288826146a5565b975061470d836146bd565b9250506001810190506146ee565b5085935050505092915050565b6000602082019050818103600083015261474281846146ca565b905092915050565b61475381614604565b82525050565b600060c08201905061476e6000830189614583565b61477b6020830188614471565b614788604083018761474a565b6147956060830186614559565b6147a26080830185614559565b6147af60a0830184614471565b979650505050505050565b600080600080608085870312156147d4576147d361433a565b5b60006147e28782880161435b565b94505060206147f387828801614391565b935050604061480487828801614391565b92505060606148158782880161435b565b91505092959194509250565b600060c0820190506148366000830189614471565b6148436020830188614471565b6148506040830187614471565b61485d6060830186614471565b61486a6080830185614471565b61487760a0830184614471565b979650505050505050565b600080604083850312156148995761489861433a565b5b60006148a785828601614628565b92505060206148b885828601614391565b9150509250929050565b600081905092915050565b50565b60006148dd6000836148c2565b91506148e8826148cd565b600082019050919050565b60006148fe826148d0565b9150819050919050565b600060408201905061491d6000830185614471565b61492a6020830184614583565b9392505050565b7f4e487b7100000000000000000000000000000000000000000000000000000000600052603260045260246000fd5b600061496b826142cd565b9150614976836142cd565b925082820390508181111561498e5761498d6142d7565b5b92915050565b60006040820190506149a96000830185614583565b6149b66020830184614471565b9392505050565b6000819050919050565b6149d86149d382614370565b6149bd565b82525050565b60006149ea82846149c7565b60208201915081905092915050565b6000614a0582856149c7565b602082019150614a1582846149c7565b6020820191508190509392505050565b6000614a30826142cd565b91507fffffffffffffffffffffffffffffffffffffffffffffffffffffffffffffffff8203614a6257614a616142d7565b5b600182019050919050565b6000606082019050614a826000830186614471565b614a8f602083018561474a565b614a9c60408301846145da565b94935050505056fea2646970667358221220e47fb2b1e7e1ae9e4bff896b9b000c9beb07155900519ee0cb48a2e0b71e4eda64736f6c634300081e0033",
  "linkReferences": {},
  "deployedLinkReferences": {}
}